:100000000A128A11E22F0A128A1599220A128A11FB
:10001000831203131308080083120313B00030087F
:100020000319132814282828AB1F17281828282854
:100030002809B2002909B3002A09B4002B09B50028
:10004000B20A0319B30A0319B40A0319B50A30280E
:100050002B08B5002A08B4002908B3002808B2000C
:100060002B082A0429042804031D3728382841288E
:100070000030AB000030AA000030A9000030A8001A
:10008000C7289630AC002C08B10053280130AC00D2
:100090002C08B10701300310B50CB40CB30CB20C32
:1000A000FF3E031D4B28FE303505031D58285928F7
:1000B000462875280130AC002C08B1070130B20782
:1000C000003003180130B307003003180130B407C3
:1000D000003003180130B50701300310B50CB40C23
:1000E000B30CB20CFF3E031D6D28FF303505031D18
:1000F0007A287B285A2887280130B1020130AC00C9
:100100000310B20DB30DB40DB50DAC0B8028B41BAC
:100110008A288B28912802303102031890289128D0
:100120007C283118942895289D28FF30B205FF308F
:10013000B3057F30B405FF30B5050310B10C3108AD
:10014000AC00AD01AE01AF0118300310AC0DAD0D28
:10015000AE0DAF0DFF3E031DA5282C08B2042D08DF
:10016000B3042E08B4042F08B50430080319B928C5
:10017000BA28BF28AB1FBD28BE28BF28B517350831
:10018000AB003408AA003308A9003208A800080010
:1001900083120313AB002130A3002308A600992982
:1001A00025302C060319D528D628E2282C08A300D0
:1001B0002B0884002308831380000130A300230848
:1001C000AB079929A7010130A007FF302007840061
:1001D0000A128A150A200A128A11AC00A300A4018F
:1001E0002408003A0319F52899292308003A03192D
:1001F000AB29643A031900290D3A031900299929FA
:100200002608840083130008A900840A0008AA00B5
:100210000230A3002308A607AA1F0F2910291929B5
:100220000330A3002308A704A909AA09A90A0319EE
:10023000AA0AAC01AC0A2C08A3002307013E8400E3
:100240000A128A150A200A128A11A4000A128A15B3
:100250000A200A128A11A50025082A02031D322944
:100260002408290203183529362937294129013064
:10027000A3002308AC0705302C06031D40294129A3
:100280001B292708033903194629472952292D30EC
:10029000A3002B0884002308831380000130A300EF
:1002A0002308AB072C08A3002308A80090290A30D4
:1002B000F8000030F9002808A3002307013E84005D
:1002C0000A128A150A200A128A11F0000A128A15E7
:1002D0000A200A128A11F1002A08F3002908F20004
:1002E0000A128A15E1230A128A117108FB007008AC
:1002F000FA000A128A1565230A128A117808303E1C
:1003000083120313A4002408AC002C08A3002B08BC
:1003100084002308831380000130A3002308AB0767
:10032000FF30A3002308A807280A031D982999294C
:1003300057290130A007FF30200784000A128A15D0
:100340000A200A128A11A3002308AC002C08031DFE
:10035000AA29AB29D0282B08840083138001080028
:100360008316031388018312031388018B170B175D
:100370008C11831603138C1507309F0085160030EF
:1003800083120313A9000030A8002530A700803095
:10039000A6000A128A1526270A128A11F001F10115
:1003A000F20124300A128A15E3220A128A1100305F
:1003B00083120313A9000030A8000330A700E8301F
:1003C000A6000A128A1574240A128A1100308312B8
:1003D0000313A9000030A8000330A700E830A600EE
:1003E0000A128A1525240A128A118312031388100F
:1003F000081588110816FF3083160313A500003076
:10040000A6000A128A1558250A128A11323083165C
:100410000313A5000030A6000A128A15C3240A128D
:100420008A110A128A15AB220A128A110A128A1537
:10043000A0220A128A110A128A15C2220A128A11ED
:10044000700871040319252A262A962A0A128A118D
:1004500003200A128A1183160313A900AA0129088E
:10046000B6002A08B7003730A90029088312031301
:10047000A00083160313370883120313A200831608
:100480000313360883120313A100AC300A128A1139
:10049000C8200A128A110A128A1103200A128A112C
:1004A000003A0319542A552A922A83120313081476
:1004B00001300A128A1593220A128A112F30F10094
:1004C0008030F2000A128A159F230A128A11AC307A
:1004D000F1000030F2000A128A159F230A128A11D5
:1004E000EA3083160313AA00C230A900A90B762AAA
:1004F000AA0B762A00003B30F1008030F2000A128D
:100500008A159F230A128A110B3083160313AB003E
:100510002630AA005D30A900A90B8C2AAA0B8C2AD0
:10052000AB0B8C2A8312031308108C110D30831629
:100530000313AA00FB30A900A90B9C2AAA0B9C2A32
:10054000FB290A128A110028831203133D088039FF
:10055000BE003E08C7003D08BE003E07BF003F0882
:10056000CE00BC1FB42AB52AB62A4E144E08031971
:10057000BA2ABB2ACB2A4E0A031DBF2AC02AC82A80
:100580000030BD000030BC000030BB000030BA00BD
:10059000BC17BD01D32A0030BD000030BC000030C4
:1005A000BB000030BA0039088039BE003E08C706DB
:1005B0003908BE003E07BF003F08CF00B81FE12A40
:1005C000E22AE32A4F144F080319E72AE82AF82AF7
:1005D0004F0A031DEC2AED2AF52A0030B90000303D
:1005E000B8000030B7000030B600B817B901002BD2
:1005F0000030B9000030B8000030B7000030B6005D
:100600003908380437043604031D072B082B212B27
:100610000030BD000030BC000030BB000030BA002C
:100620008030BC047F30BD044708BE003E08BD04D6
:100630003D08B9003C08B8003B08B7003A08B600CE
:10064000802C4E08031D252B262B2F2B0030B900A4
:100650000030B8000030B7000030B600802C4E08E3
:10066000BE00BF013F08C1004F083E02C000031C8E
:10067000C10340087F3EC80041080318013E003E08
:10068000C9003D08C6003C08C5003B08C4003A0844
:10069000C3000030BD000030BC000030BB000030A3
:1006A000BA000030CD000030CC000030CB0000306C
:1006B000CA00CF01A52B4F0803195F2B602B802B9D
:1006C0000130BE000310C30DC40DC50DC60DBE0B19
:1006D000622B0130BE000310BA0DBB0DBC0DBD0D69
:1006E000BE0B6B2BCD1F752B762B772B3A1401305D
:1006F000BE000310CA0DCB0DCC0DCD0DBE0B792B5A
:1007000039084602031D8E2B38084502031D8E2B27
:1007100037084402031D8E2B36084302031C912B1D
:10072000922BA12B4D173608C3023708031C370F35
:10073000C4023808031C380FC5023908031C390FDE
:10074000C6020130BE003E08CF071A304F02031C1C
:10075000AA2BAB2B5B2B4608450444044304031926
:10076000B22BB32BD22B4A14D22B0130BE00031074
:10077000BA0DBB0DBC0DBD0DBE0BB72BCD1FC12BD4
:10078000C22BC32B3A140130BE000310CA0DCB0D8F
:10079000CC0DCD0DBE0BC52BFF30C8070318C90A01
:1007A000FF30C907BC1FD52BD62BB52BCF01CD1FD2
:1007B000DA2BDB2BF72BFF304A05BE00FF304B0551
:1007C000BF00FF304C05C0007F304D05C10041081F
:1007D00040043F043E040319EE2BEF2BF22BCF0114
:1007E000CF0AF72B3A1CF52BF62BF72BEF2B4F08E4
:1007F0000319FB2BFC2B2D2C0130BA0700300318FA
:100800000130BB07003003180130BC07003003186B
:100810000130BD073D1C0D2C0E2C2D2C3A08BE00BE
:100820003B08BF003C08C0003D08C1000130C200C9
:10083000410DC10CC00CBF0CBE0CC20B182C4108E2
:10084000BD004008BC003F08BB003E08BA000130B4
:10085000C8070318C90A0030C9074908803AFF00D1
:1008600080307F02031D362CFF304802031C392CD8
:100870003A2C482CFF3083120313C8000030C90003
:100880000030BD000030BC000030BB000030BA00BA
:10089000831203134908803AFF0080307F02031D52
:1008A000532C013048020318562C572C642C831209
:1008B0000313C801C9010030BD000030BC00003086
:1008C000BB000030BA00C701831203134808BE0002
:1008D0003E08CE004E1C6D2C6E2C702CBC17742C58
:1008E0007F30BE003E08BC054E08BE0003103E0C23
:1008F000BF003F08BD004708BE003E08BD04182BDE
:1009000008008312031353088039D8005808DD000B
:100910005308D8005807D9005908E300D21F912C7A
:10092000922C932C631463080319972C982CA72CF2
:10093000630A031D9C2C9D2CA52C0030D300003095
:10094000D2000030D1000030D000D217AF2C0030E0
:10095000D3000030D2000030D1000030D000570862
:100960008039D8005808DD065708D8005807D90044
:100970005908E200D61FBD2CBE2CBF2C62146208A1
:100980000319C32CC42CD32C620A031DC82CC92CF8
:10099000D12C0030D7000030D6000030D500003018
:1009A000D400D617DB2C0030D7000030D600003042
:1009B000D5000030D40062080319DF2CE02CE52CB0
:1009C0006308031DE42CE52CEE2C0030D30000302E
:1009D000D2000030D1000030D000E12F5008D80004
:1009E0005808F00056080A128A150F230A128A11B5
:1009F000710883120313E9007008E8006808D80042
:100A0000D901DA01DB015B08E1005A08E00059086E
:100A1000DF005808DE006908D800D901DA01DB01DF
:100A20005B08E7005A08E6005908E5005808E400AA
:100A30005108D8005808F00055080A128A150F23EB
:100A40000A128A11710883120313E9007008E80082
:100A50006808D800D901DA01DB015808DE07590817
:100A600003110318013E0319362DDF075A0803113D
:100A70000318013E03193D2DE0075B08031103181D
:100A8000013E0319442DE1076908D800D901DA01B4
:100A9000DB015808E407590803110318013E031944
:100AA000522DE5075A0803110318013E0319592D69
:100AB000E6075B0803110318013E0319602DE707E1
:100AC0005208D8005808F00054080A128A150F235B
:100AD0000A128A11710883120313E9007008E800F2
:100AE0006808D800D901DA01DB015808DE07590887
:100AF00003110318013E03197E2DDF075A08031165
:100B00000318013E0319852DE0075B080311031844
:100B1000013E03198C2DE1076908D800D901DA01DB
:100B2000DB015808E407590803110318013E0319B3
:100B30009A2DE5075A0803110318013E0319A12D48
:100B4000E6075B0803110318013E0319A82DE70708
:100B50000830D8000310DE0DDF0DE00DE10DD80BDD
:100B6000AA2D5108D8005808F00054080A128A1516
:100B70000F230A128A11710883120313E900700807
:100B8000E8006808D8006908D900DA01DB015808D4
:100B9000DE07590803110318013E0319D02DDF07A2
:100BA0005A0803110318013E0319D72DE0075B080B
:100BB00003110318013E0319DE2DE1075008D80088
:100BC0005808F00055080A128A150F230A128A11D4
:100BD000710883120313E9007008E8006808D80060
:100BE0006908D900DA01DB015808DE07590803114A
:100BF0000318013E0319FD2DDF075A0803110318DE
:100C0000013E0319042EE0075B0803110318013E9F
:100C100003190B2EE1070830D8000310DE0DDF0D9D
:100C2000E00DE10DD80B0D2E5008D8005808F0004B
:100C300054080A128A150F230A128A1171088312A6
:100C40000313E9007008E8006808D8006908D900B3
:100C5000DA01DB015808DE07590803110318013EC9
:100C60000319332EDF075A0803110318013E031935
:100C70003A2EE0075B0803110318013E0319412EC9
:100C8000E1075108D8005808F00056080A128A15E2
:100C90000F230A128A11710883120313E9007008E6
:100CA000E8006808D8006908D900DA01DB015808B3
:100CB000E407590803110318013E0319602EE507E4
:100CC0005A0803110318013E0319672EE6075B0853
:100CD00003110318013E03196E2EE7075208D800CE
:100CE0005808F00055080A128A150F230A128A11B3
:100CF000710883120313E9007008E8006808D8003F
:100D00006908D900DA01DB015808E4075908031122
:100D10000318013E03198D2EE5075A080311031825
:100D2000013E0319942EE6075B0803110318013EE8
:100D300003199B2EE7075208D8005808F000560800
:100D40000A128A150F230A128A11710883120313DB
:100D5000E9007008E8006808D8006908D900DA01DD
:100D6000DB0108300310D80DD90DDA0DDB0DFF3E85
:100D7000031DB22E5808E407590803110318013E59
:100D80000319C32EE5075A0803110318013E03197E
:100D9000CA2EE6075B0803110318013E0319D12E82
:100DA000E7075E08D8005F08D9006008DA0061082C
:100DB000DB0018300310DB0CDA0CD90CD80CFF3E2A
:100DC000031DDA2E5808E407590803110318013EE1
:100DD0000319EB2EE5075A0803110318013E031906
:100DE000F22EE6075B0803110318013E0319F92EE2
:100DF000E7070830D8000310DE0DDF0DE00DE10D30
:100E0000D80BFB2E63086207D800D901D90D58080A
:100E1000823EE80059080318013EFF3EE9002D2FED
:100E20000130D8000310E40DE50DE60DE70DD80BF9
:100E3000122FE11F1C2F1D2F1E2F64140130D8000C
:100E40000310DE0DDF0DE00DE10DD80B202FFF307C
:100E5000E8070318E90AFF30E907E61F302F312FB2
:100E6000102FE201E11F352F362F522FFF305E0584
:100E7000D800FF305F05D900FF306005DA007F3011
:100E80006105DB005B085A04590458040319492F13
:100E90004A2F4D2FE201E20A522F641C502F512F8E
:100EA000522F4A2F62080319562F572F882F0130CF
:100EB000E407003003180130E50700300318013063
:100EC000E607003003180130E707671C682F692F19
:100ED000882F6408D8006508D9006608DA0067081A
:100EE000DB000130DC005B0DDB0CDA0CD90CD80C1C
:100EF000DC0B732F5B08E7005A08E6005908E50091
:100F00005808E4000130E8070318E90A0030E9074F
:100F10006908803AFF0080307F02031D912FFF3067
:100F20006802031C942F952FA02F7F308312031388
:100F3000E7008030E6000030E5000030E400D52F07
:100F4000831203136908803AFF0080307F02031D7B
:100F5000AB2F013068020318AE2FAF2FBB2F00302C
:100F600083120313E7000030E6000030E500003094
:100F7000E400DD01D52F831203136808D800580858
:100F8000E300FF30E405FF30E5057F30E605003083
:100F9000E705631CCC2FCD2FCE2FE6176308D800B2
:100FA0000310580CD9005908E7005D08D80058080C
:100FB000E7046708D3006608D2006508D10064081A
:100FC000D00008008313CE30FD000A30FE00F93057
:100FD000FF00B83084000A128A15D4220A128A113E
:100FE00083160313CE01CF01D001D101D201D30169
:100FF000D401D501D601D70183010A128A11B02983
:10100000FF1B0A2883137F1883170008840A03191B
:10101000FF0A080008308A000408840A82070034A6
:10102000013400340A34003464340034E8340334C6
:1010300010342734EC34F3344A344834353495349E
:101040009534C7341734C134DC344534FD34DB34D3
:101050006D34C3347234B334333440342B343434C9
:10106000013448347F349D34B0344534E734FF34A0
:10107000D93442340034003480343F344434613451
:101080007434613420343D342034003425346434E5
:0A1090000A3400340A340D34003431
:10152600F000700883120313930008008316031358
:10153600141C9E2A9F2A992A0800831203139715C2
:1015460017151214921012158316031307110800AB
:10155600831203139D151D1512149210121583166E
:10156600031387100800F00083160313981CBC2A87
:10157600BD2AB72A70088312031399000800831640
:101586000313141CC72AC82ACD2A0130F0000030E4
:10159600F100CF2AF001F10108007E088A007F08D9
:1015A60082000A128A15D0220A128A158000840A3D
:1015B60004087D0603190034FF0A0319FE0AD42A1B
:1015C600F300831603138712731DEA2AEB2AEF2A08
:1015D600720894008715F32A700872049400871124
:1015E600730871048312031394000800663466348A
:1015F6006634403400340034E13444340A34D73499
:1016060023343C346F34123403343A340A34D73436
:1016160023343C34AA340034F800F401F501700890
:10162600F200F3017208F6007308F700781C1C2B11
:101636001D2B232B7608F4070318F50A7708F50700
:1016460001300310F60DF70DFF3E031D242B03108A
:10165600F80C7808031D302B312B192B7508F10077
:101666007408F0000800831603135408F90055089F
:10167600FA005608FB005708FC0002300310F90D6B
:10168600FA0DFB0DFC0DFF3E031D412B7C08F300FC
:101696007B08F2007A08F1007908F0000030F700C4
:1016A6007A30F6001230F5000030F4000A128A157E
:1016B60089260A128A15710883120313A700700877
:1016C600A60008007808790403196A2B6B2B9A2B5D
:1016D600FD01FD0A792B01300310F80DF90DFF3ECF
:1016E600031D6F2B0130FC007C08FD07F91F7C2BC6
:1016F6007D2B6E2B79087B02031D832B78087A02DB
:10170600031C862B872B8D2B7808FA027908031C7D
:10171600FB03FB0201300310F90CF80CFF3E031D1E
:101726008E2B0130FD02031D992B9A2B7D2B7B08F6
:10173600F9007A08F8000800F601F701C42B7608CC
:101746007107F4007208F3000318F30AF61FAC2BB6
:10175600F3037308F500750883120313FF0074087A
:1017660084000A128A1500200A128A150A128A159E
:10177600B6220A128A150130F6070318F70A003056
:10178600F70776087107F4007208F3000318F30AE6
:10179600F61FCE2BF3037308F500750883120313A7
:1017A600FF00740884000A128A1500200A128A159E
:1017B600003A031DDF2BE02BA22B0800F501F601F2
:1017C600700871040319E82BE92B202CF701F70A9E
:1017D600F72B01300310F00DF10DFF3E031DED2B2D
:1017E6000130F4007408F707F11FFA2BFB2BEC2BE2
:1017F60001300310F50DF60DFF3E031DFC2B71089D
:101806007302031D082C70087202031C0B2C0C2C8F
:10181600132C7008F2027108031CF303F30275140B
:1018260001300310F10CF00CFF3E031D142C0130A7
:10183600F702031D1F2C202CFB2B7608F1007508E0
:10184600F0000800831603135408F9005508FA003F
:101856005608FB005708FC0002300310F90DFA0D7C
:10186600FB0DFC0DFF3E031D302C02300310F90D5D
:10187600FA0DFB0DFC0DFF3E031D392C7C08F30011
:101886007B08F2007A08F1007908F0000030F700D2
:101896007A30F6001230F5000030F4000A128A158C
:1018A60089260A128A157008FF3E831603139200D2
:1018B60083120313290883160313D7008312031315
:1018C600280883160313D6008312031327088316EA
:1018D6000313D50083120313260883160313D400BB
:1018E6000800831603135408F9005508FA00560831
:1018F600FB005708FC0002300310F90DFA0DFB0D32
:10190600FC0DFF3E031D7F2C02300310F90DFA0D6E
:10191600FB0DFC0DFF3E031D882C7C08F3007B08A5
:10192600F2007A08F1007908F0000030F7007A300A
:10193600F6001230F5000030F4000A128A158926E6
:101946000A128A157008FF3E83160313920083124B
:101956000313290883160313D700831203132808D9
:1019660083160313D6008312031327088316031363
:10197600D50083120313260883160313D400080028
:1019860083160313250883120313A8008316031373
:10199600260883120313A900AA01AB0100300A121C
:1019A6008A110C200A128A15831203132B08BD0014
:1019B6002A08BC002908BB002808BA004230B90032
:1019C600C830B8000030B7000030B6000A128A11DD
:1019D600A4220A128A15831203133908D70038087D
:1019E600D6003708D5003608D4000A128A153623E1
:1019F6000A128A15831203132608A8002708A900CD
:101A06000030A91BFF30AA00AB0001300A128A1170
:101A16000C200A128A15831203132B08D3002A08F6
:101A2600D2002908D1002808D0000A128A11812480
:101A36000A128A15831203135308ED005208EC00AC
:101A46005108EB005008EA000A128A15ED250A1221
:101A56008A15831203136B0883160313A6008312D9
:101A660003136A0883160313A50083120313971240
:101A7600831603132518402D442D831203131716BE
:101A8600472D831203131712831603132608A80083
:101A96002508A7000310A80CA70C0310A80CA70C78
:101AA60027088312031395000800831603132508DD
:101AB60083120313A8008316031326088312031345
:101AC600A900AA01AB0100300A128A110C200A12E1
:101AD6008A15831203132B08BD002A08BC002908A7
:101AE600BB002808BA004230B900C830B800003040
:101AF600B7000030B6000A128A11A4220A128A150B
:101B0600831203133908D7003808D6003708D500E2
:101B16003608D4000A128A1536230A128A15831249
:101B260003132608A8002708A9000030A91BFF30C8
:101B3600AA00AB0001300A128A110C200A128A157B
:101B4600831203132B08D3002A08D2002908D100D8
:101B56002808D0000A128A1181240A128A158312D3
:101B660003135308ED005208EC005108EB0050082F
:101B7600EA000A128A15ED250A128A158312031342
:101B86006B0883160313A600831203136A088316D1
:101B96000313A500831203139D128316031325183E
:101BA600D52DD92D831203131D16DC2D8312031395
:101BB6001D12831603132608A8002508A700031084
:101BC600A80CA70C0310A80CA70C27088312031354
:101BD6009B0008000310831203136C0D6D0D831612
:101BE6000313A000200883120313EF006F08031DE0
:101BF600FD2DFE2D072E0030ED000030EC000030EC
:101C0600EB000030EA00882E6A0883160313A00052
:101C1600831203136B0883160313A10083120313A5
:101C26006C0883160313A200831203136D08831630
:101C36000313A3001F300310A30CA20CA10CA00CCD
:101C4600FF3E031D1E2E2008A40024088312031342
:101C5600EE00EC17FF30EA05FF30EB05FF30EC0530
:101C66000030ED059630EF02EF1F3A2E3B2E592E2F
:101C76006F08803A973E0318412E422E432EFE2DC2
:101C860001300310ED0CEC0CEB0CEA0CFF3E031DCF
:101C9600442E013083160313A00020088312031379
:101CA600EF07031D572E582E432E782E20306F0235
:101CB600031C5E2E5F2E732EFE2D0130831603133A
:101CC600A000031083120313EA0DEB0DEC0DED0DCE
:101CD60083160313A00B642E013083120313EF0245
:101CE6006F08031D772E782E602E6E0803197C2E42
:101CF6007D2E882EEA09EB09EC09ED09EA0A03199B
:101D0600EB0A0319EC0A0319ED0A08008312031300
:101D1600A101F31F8F2E902E9D2EF009F109F209D5
:101D2600F309F00A0319F10A0319F20A0319F30A6F
:101D3600A101A10AF71FA02EA12EB02EF409F509C4
:101D4600F609F709F40A0319F50A0319F60A03193D
:101D5600F70A0130F8007808A1060030A500003027
:101D6600A4000030A3000030A200730872047104BE
:101D760070040319BF2EC02E0D2FA001A00AD02E6D
:101D86000130F8000310F00DF10DF20DF30DF80B14
:101D9600C52E0130F8007808A007F31FD32ED42EE5
:101DA600C32E0130F8000310A20DA30DA40DA50D3E
:101DB600F80BD62E73087702031DEB2E72087602F7
:101DC600031DEB2E71087502031DEB2E70087402BD
:101DD600031CEE2EEF2EFE2E7008F4027108031C73
:101DE600710FF5027208031C720FF6027308031CCA
:101DF600730FF702221401300310F30CF20CF10CEE
:101E0600F00CFF3E031DFF2E0130A002031D0C2F18
:101E16000D2FD42E21080319112F122F1D2FA209C1
:101E2600A309A409A509A20A0319A30A0319A40A66
:101E36000319A50A2508F3002408F2002308F10077
:101E46002208F0000800831203132608AA002708B8
:101E5600AB002808AC002908AD0006300310AA0D17
:101E6600AB0DAC0DAD0DFF3E031D312F2D08F3005C
:101E76002C08F2002B08F1002A08F0002608AE0014
:101E86002708AF002808B0002908B1000630031063
:101E9600AE0DAF0DB00DB10DFF3E031D4A2F003044
:101EA600B2001230B3007A30B4000030B5002E080C
:101EB600B2022F08031C2F0F612F622FB3023008C6
:101EC600031C300F672F682FB4023108031C310F33
:101ED6006D2F6E2FB5023508F7003408F60033086B
:101EE600F5003208F4000A128A1589260A128A15A4
:101EF6007108FA007008F90001307A0200300319FF
:101F06007902031C872F882FE42F831203132608D8
:101F1600AA002708AB002808AC002908AD00043049
:101F26000310AA0DAB0DAC0DAD0DFF3E031D932F97
:101F36002D08F3002C08F2002B08F1002A08F00007
:101F46002608AE002708AF002808B0002908B1000F
:101F560004300310AE0DAF0DB00DB10DFF3E031DE5
:101F6600AC2F0030B2001230B3007A30B40000302B
:101F7600B5002E08B2022F08031C2F0FC32FC42F43
:101F8600B3023008031C300FC92FCA2FB402310820
:101F9600031C310FCF2FD02FB5023508F7003408B8
:101FA600F6003308F5003208F4000A128A1589266D
:101FB6000A128A157108FA007008F90083160313CD
:101FC600181501307A020030031979020318EC2F34
:101FD600ED2FFF2F79088316031399001812831229
:101FE6000313981783160313871707178312031310
:0A1FF600181683160313981608004E
:02400E00393F38
:00000001FF
