:100000000A128A11FC2F00308A000408840A820731
:100010000034443461347434613420343D34203449
:0800200000340A340D340034F1
:100B1C00F00070088312031393000800831603136C
:100B2C00141C992D9A2D942D08000A128A119425C3
:100B3C000A128A118312031313080800F00083169B
:100B4C000313981CAA2DAB2DA52D7008831203132B
:100B5C009900080083160313141CB52DB62DBB2D5C
:100B6C000130F0000030F100BD2DF001F101080062
:100B7C00F300831603138712731DC52DC62DCA2DC2
:100B8C00720894008715CE2D70087204940087119A
:100B9C00730871048312031394000800F300F1012D
:100BAC00F201EB2D7108730784000A128A110320DD
:100BBC000A128A110A128A11A4250A128A1101300A
:100BCC00F1070318F20A0030F2077108730784006A
:100BDC000A128A1103200A128A11003A031DF72DFA
:100BEC00F82DD82D080083160313880183120313E4
:100BFC0088018B170B178C11831603138C15073078
:100C0C009F008516003083120313A9000030A80042
:100C1C002530A7008030A6000A128A1122270A125A
:100C2C008A11F001F101F20124300A128A11BE2559
:100C3C000A128A110A128A11B0250A128A11700836
:100C4C00710403192A2E2B2E782E0A128A119B2539
:100C5C000A128A11FB00FC017B0883120313B600F5
:100C6C007C08B7000A128A119B250A128A11003AD5
:100C7C000319412E422E742E8312031308140130D3
:100C8C000A128A118E250A128A1101300A128A114F
:100C9C00D4250A128A118312031336080A128A11F8
:100CAC00A4250A128A11EA30FC00C330FB00FB0BAE
:100CBC005D2EFC0B5D2E09300A128A11D4250A1206
:100CCC008A110B30FD002630FC005D30FB00FB0B65
:100CDC006D2EFC0B6D2EFD0B6D2E742E83120313DB
:100CEC0008108C110D30FC00FB30FB00FB0B7C2E34
:100CFC00FC0B7C2E812E202E0A128A1100288312C6
:100D0C000313A101F31F8B2E8C2E992EF009F109E0
:100D1C00F209F309F00A0319F10A0319F20A03198B
:100D2C00F30AA101A10AF71F9C2E9D2EAC2EF409EB
:100D3C00F509F609F709F40A0319F50A0319F60A75
:100D4C000319F70A0130F8007808A1060030A50055
:100D5C000030A4000030A3000030A200730872041D
:100D6C00710470040319BB2EBC2E092FA001A00A1C
:100D7C00CC2E0130F8000310F00DF10DF20DF30D37
:100D8C00F80BC12E0130F8007808A007F31FCF2E06
:100D9C00D02EBF2E0130F8000310A20DA30DA40D10
:100DAC00A50DF80BD22E73087702031DE72E7208DF
:100DBC007602031DE72E71087502031DE72E7008DD
:100DCC007402031CEA2EEB2EFA2E7008F402710842
:100DDC00031C710FF5027208031C720FF6027308E4
:100DEC00031C730FF702221401300310F30CF20CE6
:100DFC00F10CF00CFF3E031DFB2E0130A002031D75
:100E0C00082F092FD02E210803190D2F0E2F192F63
:100E1C00A209A309A409A509A20A0319A30A031983
:100E2C00A40A0319A50A2508F3002408F2002308D4
:100E3C00F1002208F0000800831203132608AA0010
:100E4C002708AB002808AC002908AD0006300310B9
:100E5C00AA0DAB0DAC0DAD0DFF3E031D2D2F2D08B6
:100E6C00F3002C08F2002B08F1002A08F0002608E9
:100E7C00AE002708AF002808B0002908B1000630E2
:100E8C000310AE0DAF0DB00DB10DFF3E031D462F7F
:100E9C000030B2001230B3007A30B4000030B5002C
:100EAC002E08B2022F08031C2F0F5D2F5E2FB302EA
:100EBC003008031C300F632F642FB4023108031C5D
:100ECC00310F692F6A2FB5023508F7003408F60088
:100EDC003308F5003208F4000A128A1185260A122A
:100EEC008A117108FA007008F90001307A0200309A
:100EFC0003197902031C832F842FE02F8312031311
:100F0C002608AA002708AB002808AC002908AD0069
:100F1C0004300310AA0DAB0DAC0DAD0DFF3E031D3F
:100F2C008F2F2D08F3002C08F2002B08F1002A0853
:100F3C00F0002608AE002708AF002808B0002908EA
:100F4C00B10004300310AE0DAF0DB00DB10DFF3E6E
:100F5C00031DA82F0030B2001230B3007A30B40059
:100F6C000030B5002E08B2022F08031C2F0FBF2F24
:100F7C00C02FB3023008031C300FC52FC62FB4028C
:100F8C003108031C310FCB2FCC2FB5023508F700DD
:100F9C003408F6003308F5003208F4000A128A11FE
:100FAC0085260A128A117108FA007008F900831656
:100FBC000313181501307A02003003197902031853
:100FCC00E82FE92FFB2F79088316031399001812C9
:100FDC0083120313981783160313871707178312AB
:100FEC0003131816831603139816080083010A12AC
:040FFC008A11F92D30
:02400E00393F38
:00000001FF
