:060000000A128A11F62F1E
:10000800F300831603138712731D0B280C2810287E
:1000180072089400871514287008720494008711D8
:1000280073087104831203139400080083160313E2
:100038002E08F9002F08FA003008FB003108FC00F0
:1000480002300310F90DFA0DFB0DFC0DFF3E031DE8
:1000580025287C08F3007B08F2007A08F10079086B
:10006800F0000030F7007A30F6001230F50000306A
:10007800F4000A128A1563270A128A11710883127A
:100088000313A7007008A600080083120313B0002A
:1000980030080319502851286528AB1F54285528C3
:1000A80065282809B2002909B3002A09B4002B09D8
:1000B800B500B20A0319B30A0319B40A0319B50A39
:1000C8006D282B08B5002A08B4002908B3002808B1
:1000D800B2002B082A0429042804031D7428752853
:1000E8007E280030AB000030AA000030A9000030A4
:1000F800A80004299630AC002C08B10090280130E3
:10010800AC002C08B10701300310B50CB40CB30CCB
:10011800B20CFF3E031D8828FE303505031D9528C7
:1001280096288328B2280130AC002C08B10701308A
:10013800B207003003180130B3070030031801304C
:10014800B407003003180130B50701300310B50CAF
:10015800B40CB30CB20CFF3E031DAA28FF303505C2
:10016800031DB728B8289728C4280130B1020130E8
:10017800AC000310B20DB30DB40DB50DAC0BBD281A
:10018800B41BC728C828CE28023031020318CD284E
:10019800CE28B9283118D128D228DA28FF30B2055C
:1001A800FF30B3057F30B405FF30B5050310B10C3F
:1001B8003108AC00AD01AE01AF0118300310AC0D31
:1001C800AD0DAE0DAF0DFF3E031DE2282C08B204A5
:1001D8002D08B3042E08B4042F08B50430080319F9
:1001E800F628F728FC28AB1FFA28FB28FC28B517A7
:1001F8003508AB003408AA003308A9003208A80063
:1002080008008316031388018312031388018B17D0
:100218000B178C11831603138C1507309F00851656
:10022800003083120313A9000030A8002530A7006E
:100238008030A6000A128A11DE210A128A11F00102
:10024800F101F20124300A128A1104200A128A11DB
:10025800003083120313A9000030A8000330A70060
:10026800E830A6000A128A154E250A128A110030B3
:1002780083120313A9000030A8000330A700E83058
:10028800A6000A128A15FF240A128A118312031380
:10029800881008157F3083160313A5000030A600C8
:1002A8000A128A1532260A128A113230831603136B
:1002B800A5000030A6000A128A159D250A128A1187
:1002C8000A128A158E240A128A110A128A158324A0
:1002D8000A128A1101300A128A15B3240A128A11E5
:1002E8000A128A15A5240A128A11700871040319C2
:1002F8007E297F29D0290A128A157A240A128A119E
:1003080083160313A900AA012908AC002A08AD0026
:100318000A128A157A240A128A11003A03199529B1
:100328009629CC2983120313081401300A128A155E
:100338006D240A128A1110300A128A15B3240A127F
:100348008A11831603132C080A128A1599240A1293
:100358008A11EA3083160313AA00C230A900A90B38
:10036800B329AA0BB32900000D300A128A15B32449
:100378000A128A110B3083160313AB002630AA0029
:100388005D30A900A90BC629AA0BC629AB0BC62943
:100398008312031308108C110D3083160313AA005F
:1003A800FB30A900A90BD629AA0BD6294E290A1277
:1003B8008A110028831203132608AA002708AB0015
:1003C8002808AC002908AD0006300310AA0DAB0DB3
:1003D800AC0DAD0DFF3E031DE9292D08F3002C08D7
:1003E800F2002B08F1002A08F0002608AE002708C2
:1003F800AF002808B0002908B10006300310AE0D80
:10040800AF0DB00DB10DFF3E031D022A0030B20042
:100418001230B3007A30B4000030B5002E08B202B2
:100428002F08031C2F0F192A1A2AB3023008031C9D
:10043800300F1F2A202AB4023108031C310F252A45
:10044800262AB5023508F7003408F6003308F50007
:100458003208F4000A128A1563270A128A117108F1
:10046800FA007008F90001307A02003003197902A5
:10047800031C3F2A402A9C2A831203132608AA0039
:100488002708AB002808AC002908AD000430031089
:10049800AA0DAB0DAC0DAD0DFF3E031D4B2A2D086B
:1004A800F3002C08F2002B08F1002A08F0002608B7
:1004B800AE002708AF002808B0002908B1000430B2
:1004C8000310AE0DAF0DB00DB10DFF3E031D642A34
:1004D8000030B2001230B3007A30B4000030B500FA
:1004E8002E08B2022F08031C2F0F7B2A7C2AB30286
:1004F8003008031C300F812A822AB4023108031CF9
:10050800310F872A882AB5023508F7003408F60023
:100518003308F5003208F4000A128A1563270A1214
:100528008A117108FA007008F90083160313181568
:1005380001307A020030031979020318A42AA52A87
:10054800B72A790883160313990018128312031324
:1005580098178316031387170717831203131816A0
:100568008316031398160800831203133D08803975
:10057800BE003E08C7003D08BE003E07BF003F085A
:10058800CE00BC1FC82AC92ACA2A4E144E0803190D
:10059800CE2ACF2ADF2A4E0A031DD32AD42ADC2AE0
:1005A8000030BD000030BC000030BB000030BA0095
:1005B800BC17BD01E72A0030BD000030BC00003088
:1005C800BB000030BA0039088039BE003E08C706B3
:1005D8003908BE003E07BF003F08CF00B81FF52A04
:1005E800F62AF72A4F144F080319FB2AFC2A0C2B6A
:1005F8004F0A031D002B012B092B0030B9000030D6
:10060800B8000030B7000030B600B817B901142B95
:100618000030B9000030B8000030B7000030B60034
:100628003908380437043604031D1B2B1C2B352BC3
:100638000030BD000030BC000030BB000030BA0004
:100648008030BC047F30BD044708BE003E08BD04AE
:100658003D08B9003C08B8003B08B7003A08B600A6
:10066800942C4E08031D392B3A2B432B0030B9002C
:100678000030B8000030B7000030B600942C4E08A7
:10068800BE00BF013F08C1004F083E02C000031C66
:10069800C10340087F3EC80041080318013E003EE0
:1006A800C9003D08C6003C08C5003B08C4003A081C
:1006B800C3000030BD000030BC000030BB0000307B
:1006C800BA000030CD000030CC000030CB00003044
:1006D800CA00CF01B92B4F080319732B742B942B25
:1006E8000130BE000310C30DC40DC50DC60DBE0BF1
:1006F800762B0130BE000310BA0DBB0DBC0DBD0D2D
:10070800BE0B7F2BCD1F892B8A2B8B2B3A140130E4
:10071800BE000310CA0DCB0DCC0DCD0DBE0B8D2B1D
:1007280039084602031DA22B38084502031DA22BD7
:1007380037084402031DA22B36084302031CA52BCD
:10074800A62BB52B4D173608C3023708031C370FE5
:10075800C4023808031C380FC5023908031C390FB6
:10076800C6020130BE003E08CF071A304F02031CF4
:10077800BE2BBF2B6F2B46084504440443040319C2
:10078800C62BC72BE62B4A14E62B0130BE000310FC
:10079800BA0DBB0DBC0DBD0DBE0BCB2BCD1FD52B84
:1007A800D62BD72B3A140130BE000310CA0DCB0D3F
:1007B800CC0DCD0DBE0BD92BFF30C8070318C90AC5
:1007C800FF30C907BC1FE92BEA2BC92BCF01CD1F6E
:1007D800EE2BEF2B0B2CFF304A05BE00FF304B05EC
:1007E800BF00FF304C05C0007F304D05C1004108F7
:1007F80040043F043E040319022C032C062CCF01AD
:10080800CF0A0B2C3A1C092C0A2C0B2C032C4F0852
:1008180003190F2C102C412C0130BA070030031893
:100828000130BB07003003180130BC070030031843
:100838000130BD073D1C212C222C412C3A08BE005A
:100848003B08BF003C08C0003D08C1000130C200A1
:10085800410DC10CC00CBF0CBE0CC20B2C2C4108A6
:10086800BD004008BC003F08BB003E08BA0001308C
:10087800C8070318C90A0030C9074908803AFF00A9
:1008880080307F02031D4A2CFF304802031C4D2C88
:100898004E2C5C2CFF3083120313C8000030C900B3
:1008A8000030BD000030BC000030BB000030BA0092
:1008B800831203134908803AFF0080307F02031D2A
:1008C800672C0130480203186A2C6B2C782C831291
:1008D8000313C801C9010030BD000030BC0000305E
:1008E800BB000030BA00C701831203134808BE00DA
:1008F8003E08CE004E1C812C822C842CBC17882CE0
:100908007F30BE003E08BC054E08BE0003103E0CFA
:10091800BF003F08BD004708BE003E08BD042C2BA1
:1009280008008312031353088039D8005808DD00E3
:100938005308D8005807D9005908E300D21FA52C3E
:10094800A62CA72C631463080319AB2CAC2CBB2C66
:10095800630A031DB02CB12CB92C0030D300003031
:10096800D2000030D1000030D000D217C32C0030A4
:10097800D3000030D2000030D1000030D00057083A
:100988008039D8005808DD065708D8005807D9001C
:100998005908E200D61FD12CD22CD32C621462083D
:1009A8000319D72CD82CE72C620A031DDC2CDD2C6C
:1009B800E52C0030D7000030D6000030D5000030DC
:1009C800D400D617EF2C0030D7000030D600003006
:1009D800D5000030D40062080319F32CF42CF92C4C
:1009E8006308031DF82CF92C022D0030D3000030C9
:1009F800D2000030D1000030D000F52F5008D800C8
:100A08005808F00056080A128A15D8240A128A11C2
:100A1800710883120313E9007008E8006808D80019
:100A2800D901DA01DB015B08E1005A08E000590846
:100A3800DF005808DE006908D800D901DA01DB01B7
:100A48005B08E7005A08E6005908E5005808E40082
:100A58005108D8005808F00055080A128A15D824F9
:100A68000A128A11710883120313E9007008E8005A
:100A78006808D800D901DA01DB015808DE075908EF
:100A880003110318013E03194A2DDF075A08031101
:100A98000318013E0319512DE0075B0803110318E1
:100AA800013E0319582DE1076908D800D901DA0178
:100AB800DB015808E407590803110318013E03191C
:100AC800662DE5075A0803110318013E03196D2D19
:100AD800E6075B0803110318013E0319742DE707A5
:100AE8005208D8005808F00054080A128A15D82469
:100AF8000A128A11710883120313E9007008E800CA
:100B08006808D800D901DA01DB015808DE0759085E
:100B180003110318013E0319922DDF075A08031128
:100B28000318013E0319992DE0075B080311031808
:100B3800013E0319A02DE1076908D800D901DA019F
:100B4800DB015808E407590803110318013E03198B
:100B5800AE2DE5075A0803110318013E0319B52DF8
:100B6800E6075B0803110318013E0319BC2DE707CC
:100B78000830D8000310DE0DDF0DE00DE10DD80BB5
:100B8800BE2D5108D8005808F00054080A128A15DA
:100B9800D8240A128A11710883120313E900700815
:100BA800E8006808D8006908D900DA01DB015808AC
:100BB800DE07590803110318013E0319E42DDF0766
:100BC8005A0803110318013E0319EB2DE0075B08CF
:100BD80003110318013E0319F22DE1075008D8004C
:100BE8005808F00055080A128A15D8240A128A11E2
:100BF800710883120313E9007008E8006808D80038
:100C08006908D900DA01DB015808DE075908031121
:100C18000318013E0319112EDF075A0803110318A0
:100C2800013E0319182EE0075B0803110318013E63
:100C380003191F2EE1070830D8000310DE0DDF0D61
:100C4800E00DE10DD80B212E5008D8005808F0000F
:100C580054080A128A15D8240A128A1171088312B4
:100C68000313E9007008E8006808D8006908D9008B
:100C7800DA01DB015808DE07590803110318013EA1
:100C88000319472EDF075A0803110318013E0319F9
:100C98004E2EE0075B0803110318013E0319552E79
:100CA800E1075108D8005808F00056080A128A15BA
:100CB800D8240A128A11710883120313E9007008F4
:100CC800E8006808D8006908D900DA01DB0158088B
:100CD800E407590803110318013E0319742EE507A8
:100CE8005A0803110318013E03197B2EE6075B0817
:100CF80003110318013E0319822EE7075208D80092
:100D08005808F00055080A128A15D8240A128A11C0
:100D1800710883120313E9007008E8006808D80016
:100D28006908D900DA01DB015808E40759080311FA
:100D38000318013E0319A12EE5075A0803110318E9
:100D4800013E0319A82EE6075B0803110318013EAC
:100D58000319AF2EE7075208D8005808F0005608C4
:100D68000A128A15D8240A128A11710883120313E9
:100D7800E9007008E8006808D8006908D900DA01B5
:100D8800DB0108300310D80DD90DDA0DDB0DFF3E5D
:100D9800031DC62E5808E407590803110318013E1D
:100DA8000319D72EE5075A0803110318013E031942
:100DB800DE2EE6075B0803110318013E0319E52E32
:100DC800E7075E08D8005F08D9006008DA00610804
:100DD800DB0018300310DB0CDA0CD90CD80CFF3E02
:100DE800031DEE2E5808E407590803110318013EA5
:100DF8000319FF2EE5075A0803110318013E0319CA
:100E0800062FE6075B0803110318013E03190D2F8F
:100E1800E7070830D8000310DE0DDF0DE00DE10D07
:100E2800D80B0F2F63086207D800D901D90D5808CD
:100E3800823EE80059080318013EFF3EE900412FB1
:100E48000130D8000310E40DE50DE60DE70DD80BD1
:100E5800262FE11F302F312F322F64140130D80094
:100E68000310DE0DDF0DE00DE10DD80B342FFF3040
:100E7800E8070318E90AFF30E907E61F442F452F62
:100E8800242FE201E11F492F4A2F662FFF305E050C
:100E9800D800FF305F05D900FF306005DA007F30E9
:100EA8006105DB005B085A045904580403195D2FD7
:100EB8005E2F612FE201E20A662F641C642F652F02
:100EC800662F5E2F620803196A2F6B2F9C2F013043
:100ED800E407003003180130E5070030031801303B
:100EE800E607003003180130E707671C7C2F7D2FC9
:100EF8009C2F6408D8006508D9006608DA006708DE
:100F0800DB000130DC005B0DDB0CDA0CD90CD80CF3
:100F1800DC0B872F5B08E7005A08E6005908E50054
:100F28005808E4000130E8070318E90A0030E90727
:100F38006908803AFF0080307F02031DA52FFF302B
:100F48006802031CA82FA92FB42F7F308312031324
:100F5800E7008030E6000030E5000030E400E92FCB
:100F6800831203136908803AFF0080307F02031D53
:100F7800BF2F013068020318C22FC32FCF2F0030B4
:100F880083120313E7000030E6000030E50000306C
:100F9800E400DD01E92F831203136808D80058081C
:100FA800E300FF30E405FF30E5057F30E60500305B
:100FB800E705631CE02FE12FE22FE6176308D8004E
:100FC8000310580CD9005908E7005D08D8005808E4
:100FD800E7046708D3006608D2006508D1006408F2
:100FE800D000080083160313AE01AF01B001B101B0
:100FF80083010A128A11052908308A000408840A24
:1010080082070034543465347334743420346D34B6
:101018006534733473346134673465340A340D3499
:101028000034443461347434613420343D34203421
:02103800003482
:1018DA00F0007008831203139300080083160313A1
:1018EA00141C782C792C732C08000A128A1573247C
:1018FA000A128A15831203131308080083120313AA
:10190A00971517151214921012158316031307113F
:10191A000800831203139D151D1512149210121537
:10192A008316031387100800F00083160313981C0C
:10193A009F2CA02C9A2C700883120313990008007C
:10194A0083160313141CAA2CAB2CB02C0130F00004
:10195A000030F100B22CF001F1010800F300F101AE
:10196A00F201CA2C7108730784000A128A15002032
:10197A000A128A150A128A1599240A128A1501303E
:10198A00F1070318F20A0030F2077108730784009E
:10199A000A128A1500200A128A15003A031DD62C4B
:1019AA00D72CB72C0800F800F401F5017008F200F2
:1019BA00F3017208F6007308F700781CE52CE62C90
:1019CA00EC2C7608F4070318F50A7708F5070130B6
:1019DA000310F60DF70DFF3E031DED2C0310F80C56
:1019EA007808031DF92CFA2CE22C7508F10074080A
:1019FA00F0000800831603132E08F9002F08FA00D6
:101A0A003008FB003108FC0002300310F90DFA0D12
:101A1A00FB0DFC0DFF3E031D0A2D02300310F90DCC
:101A2A00FA0DFB0DFC0DFF3E031D132D7C08F30080
:101A3A007B08F2007A08F1007908F0000030F7001C
:101A4A007A30F6001230F5000030F4000A128A15D6
:101A5A0063270A128A157008FF3E83160313920041
:101A6A0083120313290883160313B1008312031385
:101A7A00280883160313B00083120313270883165A
:101A8A000313AF0083120313260883160313AE0051
:101A9A000800831603132E08F9002F08FA003008ED
:101AAA00FB003108FC0002300310F90DFA0DFB0DA2
:101ABA00FC0DFF3E031D592D02300310F90DFA0DDE
:101ACA00FB0DFC0DFF3E031D622D7C08F3007B0815
:101ADA00F2007A08F1007908F0000030F7007A3055
:101AEA00F6001230F5000030F4000A128A15632756
:101AFA000A128A157008FF3E831603139200831296
:101B0A000313290883160313B10083120313280849
:101B1A0083160313B00083120313270883160313D3
:101B2A00AF0083120313260883160313AE000800BE
:101B3A0083160313250883120313A80083160313BD
:101B4A00260883120313A900AA01AB0100300A1266
:101B5A008A1149200A128A15831203132B08BD0021
:101B6A002A08BC002908BB002808BA004230B9007C
:101B7A00C830B8000030B7000030B6000A128A1127
:101B8A00B8220A128A15831203133908D7003808B3
:101B9A00D6003708D5003608D4000A128A111A204E
:101BAA000A128A15831203132608A8002708A90017
:101BBA000030A91BFF30AA00AB0001300A128A11BB
:101BCA0049200A128A15831203132B08D3002A0804
:101BDA00D2002908D1002808D0000A128A119524B7
:101BEA000A128A15831203135308ED005208EC00F7
:101BFA005108EB005008EA000A128A15C7260A1291
:101C0A008A15831203136B0883160313A600831223
:101C1A0003136A0883160313A5008312031397128A
:101C2A008316031325181A2E1E2E83120313171652
:101C3A00212E831203131712831603132608A800F2
:101C4A002508A7000310A80CA70C0310A80CA70CC2
:101C5A002708831203139500080083160313250827
:101C6A0083120313A800831603132608831203138F
:101C7A00A900AA01AB0100300A128A1149200A12EE
:101C8A008A15831203132B08BD002A08BC002908F1
:101C9A00BB002808BA004230B900C830B80000308A
:101CAA00B7000030B6000A128A11B8220A128A1541
:101CBA00831203133908D7003808D6003708D5002D
:101CCA003608D4000A128A111A200A128A158312B7
:101CDA0003132608A8002708A9000030A91BFF3013
:101CEA00AA00AB0001300A128A1149200A128A1589
:101CFA00831203132B08D3002A08D2002908D10023
:101D0A002808D0000A128A1195240A128A15831209
:101D1A0003135308ED005208EC005108EB00500879
:101D2A00EA000A128A15C7260A128A1583120313B1
:101D3A006B0883160313A600831203136A0883161B
:101D4A000313A500831203139D1283160313251888
:101D5A00AF2EB32E831203131D16B62E831203134E
:101D6A001D12831603132608A8002508A7000310CE
:101D7A00A80CA70C0310A80CA70C2708831203139E
:101D8A009B0008000310831203136C0D6D0D83165C
:101D9A000313A000200883120313EF006F08031D2A
:101DAA00D72ED82EE12E0030ED000030EC000030A6
:101DBA00EB000030EA00622F6A0883160313A000C2
:101DCA00831203136B0883160313A10083120313F0
:101DDA006C0883160313A200831203136D0883167B
:101DEA000313A3001F300310A30CA20CA10CA00C18
:101DFA00FF3E031DF82E2008A400240883120313B3
:101E0A00EE00EC17FF30EA05FF30EB05FF30EC057A
:101E1A000030ED059630EF02EF1F142F152F332FE8
:101E2A006F08803A973E03181B2F1C2F1D2FD82EA0
:101E3A0001300310ED0CEC0CEB0CEA0CFF3E031D19
:101E4A001E2F013083160313A000200883120313E8
:101E5A00EF07031D312F322F1D2F522F20306F0213
:101E6A00031C382F392F4D2FD82E01308316031318
:101E7A00A000031083120313EA0DEB0DEC0DED0D18
:101E8A0083160313A00B3E2F013083120313EF02B4
:101E9A006F08031D512F522F3A2F6E080319562F20
:101EAA00572F622FEA09EB09EC09ED09EA0A03192F
:101EBA00EB0A0319EC0A0319ED0A0800831203134B
:101ECA00A101F31F692F6A2F772FF009F109F2098F
:101EDA00F309F00A0319F10A0319F20A0319F30ABA
:101EEA00A101A10AF71F7A2F7B2F8A2FF409F5097E
:101EFA00F609F709F40A0319F50A0319F60A031988
:101F0A00F70A0130F8007808A1060030A500003071
:101F1A00A4000030A3000030A20073087204710408
:101F2A0070040319992F9A2FE72FA001A00AAA2F4C
:101F3A000130F8000310F00DF10DF20DF30DF80B5E
:101F4A009F2F0130F8007808A007F31FAD2FAE2F9E
:101F5A009D2F0130F8000310A20DA30DA40DA50DAD
:101F6A00F80BB02F73087702031DC52F720876028B
:101F7A00031DC52F71087502031DC52F7008740251
:101F8A00031CC82FC92FD82F7008F4027108031C2C
:101F9A00710FF5027208031C720FF6027308031C14
:101FAA00730FF702221401300310F30CF20CF10C38
:101FBA00F00CFF3E031DD92F0130A002031DE62FAE
:101FCA00E72FAE2F21080319EB2FEC2FF72FA209C9
:101FDA00A309A409A509A20A0319A30A0319A40AB1
:101FEA000319A50A2508F3002408F2002308F100C2
:061FFA002208F0000800BF
:02400E00393F38
:00000001FF
