:1000000000308A0074280000FF00030E8301A10065
:100010000A08A0008A010408A2007708A300780853
:10002000A4007908A5007A08A600831383128C30F7
:100030008400801D1D288C192E2822088400230886
:10004000F7002408F8002508F9002608FA0020081F
:100050008A00210E8300FF0E7F0E09008A110A120A
:1000600031288316141C49280130F7008312141319
:100070008316911591193A2877189112771C9116C9
:100080001116111A412883121308F8007808AE00DF
:10009000831683128C118A110A121D2894138C1155
:1000A0002F0893000230941B5C28831614195628DD
:1000B0000030111B01308312F8000800303084003A
:1000C00083130008031971280630F800F701F70BB5
:1000D0006728F80B66287B30F700F70B6D28800B3C
:1000E00064288A110A12C12803081F398300FF30CF
:1000F000AD00AD152D088316870083122D162D082F
:1001000083168700313093002830831294008316C1
:100110009417141381309900A63098009030831200
:10012000980083161F149F141F159F1107309C0001
:1001300083138312A701A80183168C15C030831284
:100140008B04831686178312861BB6288316111418
:100150001118A828A1308312AF004E200130AF0043
:100160004E20831611151119B32883122E0BC728A0
:1001700083160610831206140430AF00FA30B00064
:100180005E28AF0BBE288316061083120610A12826
:0201900063000A
:02400E00733FFE
:00000001FF
;PIC16F877A
;CRC=310A  CREATED="06-Nov-21 23:10"
