:1000000004308A00072C0000FF00030E8301A100CA
:100010000A08A0008A010408A2007708A300780853
:10002000A4007908A5007A08A60003170D08031399
:10003000A70003170F080313A80003170C080313E6
:10004000A90003170E080313AA00831383128C3030
:100050008400801D2D288C194E2822088400230836
:10006000F7002408F8002508F9002608FA002708F8
:1000700003178D000313280803178F0003132908A3
:1000800003178C0003132A0803178E00031320089C
:100090008A00210E8300FF0E7F0E09008A110A12CA
:1000A00051288316141C5B28140C031C542883123B
:1000B0001308B100831683128C118A110A122D289D
:1000C000432131103D102536F50400004321321044
:1000D0003D102536F5040001432133103D1025362F
:1000E000F5040001432134103D102536F5040001CC
:1000F000432135103D102536F5040001432136100B
:100100003D102536F5040001432137103D102536FA
:10011000F50400014B34EF30EE33A031E1316810CB
:100120003D1025330900890489048904000010303A
:10013000DC00F701FA01D90CD80C031CA5285A08D9
:10014000F7070318FA0A5B08FA07FA0CF70CF90C20
:10015000F80CDC0B9B280800F801F901F701FA0103
:100160005B08031DB6285A080319D0281030DC009C
:100170000310D80DD90DF70DFA0D5B087A02031D97
:10018000C3285A087702031CCC285A08F702031C1C
:10019000FA035B08FA020314F80DF90DDC0BB8281A
:1001A00008000330CF00A130CE00D1012630D000AE
:1001B0004E02D4004F08D5005108031C510FD50240
:1001C0004C084802F7004908FA004D08031C4D0F7F
:1001D000FA027708D6007A08D7005508D9005408E3
:1001E000D8007A08DB007708DA0097207908D50074
:1001F0007808D4004C084A02F7004B08FA004D0872
:10020000031C4D0FFA027708D6007A08D700790848
:10021000D9007808D8007A08DB007708DA00AC202B
:1002200078085007D2005108D30079080318790FD5
:10023000D3075208F8005308F90008008E30F70081
:100240004808F8004708F900FA01F808031D3229A8
:100250007908F800F9010830F702F808031D32297F
:10026000F7013A290310F81B3929F90DF80DF703A6
:100270003229F8138A110A12BA2D483084008313E8
:100280000008031950290630F800F701F70B46293A
:10029000F80B45297B30F700F70B4C29800B4329DD
:1002A0008A110A12D42D0B08C8008B13831603176A
:1002B0008C170C140000000083120313C81B8B174B
:1002C00003188B2903170C087F390313C800031781
:1002D0000D080313C90003170F080313CA004808C9
:1002E0000C1E70299900490803178D0003134A0852
:1002F00003178F0003130B08CB008B138316031710
:100300008C170C140000000083120313CB1B8B17F7
:10031000C70B8B29AB2903170C0D0E0D7F39031367
:10032000C80003170D080313C90003170F080313B0
:10033000CA0048080C1E9A299900490803178D0025
:1003400003134A0803178F008D0A03198F0A03103D
:100350000313C70B53290800CF010408CE004F1028
:10036000831B4F14480EF038CA00CA07E23ECB0088
:10037000323ECD0048080F39CB07CB07CD07E93E09
:10038000CC00CC07CC07470E0F39CC07CD07CC0DDE
:10039000CD0DCD09CD0D47080F39CD07CA0D07305A
:1003A000C9000A30CD07CC03031CD229CC07CB03EC
:1003B000031CD629CB07CA03031CDA29CA07C903C1
:1003C000031CDE2949308400831307304E054E1389
:1003D00084074D30040203194E170008F700031D6F
:1003E000F9294E1BF9294E1A012ACE19F929203074
:1003F000FC29CE154E123030F70777080C1EFE2967
:100400009900840A4E1FE929080083180A2A5C30E3
:1004100084008313F701F801F901FA01DC01DD0121
:10042000DE01DF015B085A04590458040319482A05
:100430002030E0000310D40DD50DD60DD70DDC0D06
:10044000DD0DDE0DDF0D5B085F02031D312A5A084A
:100450005E02031D312A59085D02031D312A580826
:100460005C02031C422A5808DC025908031C590F7D
:10047000DD025A08031C5A0FDE025B08031C5B0FE7
:10048000DF020314F70DF80DF90DFA0DE00B1A2A2F
:100490005C088000840A5D088000840A5E08800091
:1004A000840A5F08800008000408CC004B08CE00D6
:1004B0000319E62A4A08D7004908D6004808D5009B
:1004C0004708D400DB01DA012030D9008230D8009F
:1004D00054080319D82ADC0058080319D82ADC0765
:1004E0000318792A7F30DC02031CD82A0319D82A82
:1004F0007D2A8130DC070318D82A5C08F700F80150
:10050000F901FA015508E000E0175608DF00570826
:10051000DE001830DC00DD015E1CA62A5B08FA074D
:10052000031C982AF90A031D982AF80A0319DD17F3
:100530005A08F907031C9F2AF80A0319DD175908FE
:10054000D600D6175608F8070318DD17DD0DF80C8E
:10055000F90CFA0CE00CDF0CDE0C0310DC0B8B2A20
:100560000130F7070318D82AF81BBD2AE00DFA0D51
:10057000F90DF80DF7030319D82AE01FCE2AFA0A5D
:10058000031DCE2AF90A031DCE2AF80A031DCE2A1E
:10059000F80CF90CFA0CF70A0319D82A5508DD00F3
:1005A0005908DD06DD1FD62AF817DC2AF813DC2AE5
:1005B000F701F801F901FA017A08CA007908C900BF
:1005C0007808C8007708C700CE0B5A2A4A08D70017
:1005D0004908D6004808D5004708D4005408B63C5E
:1005E000D400FA015508D800D5170310D50CD60C45
:1005F000D70CFA0CF90CF80CF70CD40BF52AD81F11
:100600000C2BF709F809F909FA09F70A0319F80A8E
:100610000319F90A0319FA0A7A08CA007908C90005
:100620007808C8007708C700CA1F232BCC03CC1654
:10063000C709C809C909CA09C70A0319C80A031999
:10064000C90A0319CA0A3B30D3009A30D200CA3013
:10065000D100D0010A30CE004B080319CC0A831414
:100660004730840083134A08D7004908D600480859
:10067000D5004708D4005308DB005208DA005108BF
:10068000D9005008D80005227808F708031D5B2B15
:100690004B0A4E0203195B2B4C0803195D2B0F39D3
:1006A0004E020319552B0318912BCC1B912B4C1B7D
:1006B0005D2B20308C2B2030CC05CC1E6C2BCC122B
:1006C0004B08031DCC037708CC002D300C1E662B85
:1006D00099004C08F700CC014B084E02031D7B2B00
:1006E0007708CC002E300C1E732B99004C08F700B5
:1006F0002030CC0500303030CC1E8C2BCC124B0877
:10070000031DCC037708CC002D300C1E852B9900DF
:100710004C08F700CC013030F70777080C1E8E2B01
:10072000990083105308D7005208D6005108D5000D
:100730005008D400DB01DA01D9010A30D8000522C3
:100740007A08D3007908D2007808D1007708D00061
:10075000CE0B2F2B8A110A12812E0B08C7008B1388
:10076000831603178C170C14000000008312031368
:10077000C71B8B1703170C087F390319032C0313AE
:10078000C70003170D080313C80003170F0803134E
:10079000C90047080C1ECA2B9900480803178D0092
:1007A0000313490803178F0003130B08CA008B13A8
:1007B000831603178C170C14000000008312031318
:1007C000CA1B8B1703170C0D0E0D7F390319032C51
:1007D0000313C70003170D080313C80003170F08FE
:1007E0000313C90047080C1EF32B99004808031790
:1007F0008D000313490803178F008D0A03198F0A10
:100800000313AD2B031703138A110A128C2E03084E
:100810001F398300813083169900A63098009030EC
:1008200083129800B101FF30B200B401B301831606
:100830001F149F141F159F1107309C0083138312F0
:10084000AB01AC0183168C15C03083128B0494125B
:10085000B2123208831687008312321632088316CA
:1008600087008312B2153208831687002530831261
:1008700094000030831694001F109F101F119F11C9
:100880001F1383121F179F1783169F1383121F14A2
:100890000030F8001F08C73978049F001030F700B7
:1008A000F70B502C00001F151F19542C1E08C700F1
:1008B000C9011E08C8000330CB007A30CA00CD0140
:1008C0002730CC00D1207908B6007808B500083070
:1008D000F8001F08C73978049F001030F700F70BA5
:1008E0006F2C00001F151F19732C1E08C700C901AB
:1008F0001E08C8000330CB009730CA00CD01273056
:10090000CC00D1207908B8007808B7001030F80082
:100910001F08C73978049F001030F700F70B8E2CA2
:1009200000001F151F19922C1E08C700C9011E08C0
:10093000C8000330CB00A130CA00CD012830CC0064
:10094000D1207908BA007808B9001830F8001F08DB
:10095000C73978049F001030F700F70BAD2C00006A
:100960001F151F19B12C1E08C700C9011E08C80099
:100970000330CB00A130CA00CD012A30CC00D120F9
:100980007908BC007808BB002830F8001F08C73978
:1009900078049F001030F700F70BCC2C00001F15D7
:1009A0001F19D02C1E08C700C9011E08C80003303B
:1009B000CB00A130CA00CD012930CC00D12079086C
:1009C000BE007808BD003030F8001F08C739780431
:1009D0009F001030F700F70BEB2C00001F151F19BC
:1009E000EF2C1E08C700C9011E08C8000330CB0049
:1009F000A130CA00CD012730CC00D1207908C00039
:100A00007808BF003830F8001F08C73978049F0005
:100A10001030F700F70B0A2D00001F151F190E2DBF
:100A20001E08C700C9011E08C8000330CB007A3079
:100A3000CA00CD012630CC00D1207908C200780848
:100A4000C100FF30D900FD30D8003608DB00350882
:100A5000DA0097207908C8007808C700FF30D9006D
:100A6000FE30D8003808DB003708DA009720790814
:100A7000FA007808C70779080318790FC807FF300C
:100A8000D900D8003A08DB003908DA009720790845
:100A9000FA007808C70779080318790FC8073D08D6
:100AA000C7073E0803183E0FC80703103F0DF900A3
:100AB000400DFA007908C7077A0803187A0FC807AB
:100AC000D9010330D8004208DB004108DA00972042
:100AD0007908FA007808C70779080318790FC8075A
:100AE0004808D9004708D800DB011130DA00972008
:100AF0007908C8007808C70037083507C9003608E4
:100B0000CA0038080318380FCA073908C9073A0855
:100B100003183A0FCA073B08C9073C0803183C0FE3
:100B2000CA073D08C9073E0803183E0FCA073F0819
:100B3000C90740080318400FCA0741084907F800D1
:100B40004A08FA0042080318420FFA077808C90059
:100B50007A08CA007908D9004708D8007A08DB006B
:100B60007808DA00AC207908FA007808C70079081C
:100B7000C8001E297A08C6007908C5007808C40094
:100B80007708C300310BD72D83168613831286177F
:100B9000430893008316140C031CCB2D04308312DE
:100BA000C700FA30C8003D29C70BD12DB101603014
:100BB00003178D0000308F00031006300313C700A9
:100BC0005321103084003608C8003508C700AC2116
:100BD00009300C1EE92D9900663003178D00003096
:100BE0008F00031006300313C70053211030840018
:100BF0003808C8003708C700AC2109300C1EFE2D8C
:100C000099006C3003178D0000308F000310063000
:100C10000313C7005321103084003A08C800390874
:100C2000C700AC2109300C1E132E99007230031737
:100C30008D0000308F00031006300313C7005321CE
:100C4000103084003C08C8003B08C700AC210930C4
:100C50000C1E282E9900783003178D0000308F006D
:100C6000031006300313C7005321103084003E08E0
:100C7000C8003D08C700AC2109300C1E3D2E99006C
:100C80007E3003178D0000308F00031006300313F1
:100C9000C7005321103084004008C8003F08C70037
:100CA000AC2109300C1E522E9900843003178D00A0
:100CB00000308F00031006300313C700532110309B
:100CC00084004208C8004108C700AC2109300C1E4E
:100CD000672E99008A3003178D0000308F000310B3
:100CE0000E300313C7005321893084004608CA0020
:100CF0004508C9004408C8004308C7000230CB00BB
:100D0000542A09300C1E822E9900933003178D004F
:0C0D100000308F000313AD2B482C630053
:02400E00733FFE
:00000001FF
;PIC16F877A
;CRC=C5F3  CREATED="08-Nov-21 17:17"
