:060000000A128A11F32F21
:10000800F00083160313981C0A280B28052870088B
:100018008312031399000800F501F60170087104B2
:100028000319172818284F28F701F70A262801303E
:100038000310F00DF10DFF3E031D1C280130F400E4
:100048007408F707F11F29282A281B2801300310F4
:10005800F50DF60DFF3E031D2B2871087302031DD5
:10006800372870087202031C3A283B284228700877
:10007800F2027108031CF303F30275140130031034
:10008800F10CF00CFF3E031D43280130F702031D5D
:100098004E284F282A287608F1007508F000080035
:1000A8007308803983120313A0002008F80073082E
:1000B800A0002007A1002108FA00F21F6428652883
:1000C80066287A147A0803196A286B287B287A0A22
:1000D800031D6F28702878280030F3000030F200E4
:1000E8000030F1000030F000F217F30183280030EF
:1000F800F3000030F2000030F1000030F000770823
:100108008039A0002008F9007908780603198D289D
:100118008E288F2878177708A0002007A1002108CB
:10012800F900F61F982899289A287914790803194C
:100138009E289F28AF28790A031DA328A428AC2845
:100148000030F7000030F6000030F5000030F40011
:10015800F617F701B7280030F7000030F600003036
:10016800F5000030F4007A0879020318BC28BD288D
:100178000129781FC028C128C5288030A000200880
:10018800F8067A08A0002008FB007908A0002008DB
:10019800FA007B08A0002008F9007008A0002008D9
:1001A800FB007408A0002008F0007B08A0002008CD
:1001B800F4007108A0002008FB007508A0002008C2
:1001C800F1007B08A0002008F5007208A0002008B4
:1001D800FB007608A0002008F2007B08A000200899
:1001E800F6007308A0002008FB007708A00020088C
:1001F800F3007B08A0002008F700FB017908A000A5
:10020800A1012108A3007A082002A200031CA3036D
:100218002308803AFF0080307F02031D15291A3019
:100228002202031C182919295A2973087204710417
:100238007004031D2029222901302329003083124C
:100248000313A0002008FB000030F3000030F20088
:100258000030F1000030F0007908A0002008FA0012
:1002680060297B1C3829392944297B088312031308
:10027800A0000310200C0138A1002108FB0046292A
:100288000310FB0C701C49294A294B29FB17013024
:1002980083120313A000730DF30CF20CF10CF00C95
:1002A800A00B4F290130A0002008FA0779087A022C
:1002B800031C5F2960293529781B63296429B32920
:1002C8007A08031D6829692972290030F300003073
:1002D800F2000030F1000030F000EB2A7408F0075B
:1002E800750803110318013E03197B29F1077608E5
:1002F80003110318013E03198229F2077708031135
:100308000318013E03198929F307731C8C298D29C9
:100318006B2A7B1C902991299C297B088312031343
:10032800A0000310200C0138A1002108FB009E2921
:100338000310FB0C701CA129A229A329FB1701306B
:1003480083120313A000730DF30CF20CF10CF00CE4
:10035800A00BA7290130A0002008FA076B2A730810
:10036800803AFF007708803A7F02031DC529760886
:100378007202031DC52975087102031DC529740879
:1003880070020318C829C929232AFF3083120313CE
:10039800A000FF30A100FF30A200FF30A3007408C6
:1003A800A4007508A5007608A6007708A7007008BD
:1003B800A4027108031C710FE229E329A50272083F
:1003C800031C720FE829E929A6027308031C730F9E
:1003D800EE29EF29A7022408A00725080318250FEE
:1003E800F629F729A10726080318260FFC29FD2955
:1003F800A20727080318270AA3072308F3002208DF
:10040800F2002108F1002008F0008030A000200848
:10041800F806FB09FB0A7B08031D132A142A312A54
:100428000130F007003003180130F10700300318DD
:100438000130F207003003180130F307312A74083D
:10044800F0027508031C750FF1027608031C760F7D
:10045800F2027708031C770FF30273087204710421
:100468007004031D382A392A672A7B08031D3D2A90
:100478003E2A672A0030F3000030F2000030F10015
:100488000030F000EB2A013083120313A0000310A0
:10049800F00DF10DF20DF30DA00B4B2AFB1F552AA1
:1004A800562A572A70147B1C5A2A5B2A5E2A031480
:1004B800FB0D602A0310FB0D7A080319642A652ACC
:1004C800672A0130FA02F21F6A2A6B2A472AF901C1
:1004D800FB1F6F2A702A7E2A7B087F390319752A29
:1004E800762A792AF901F90A7E2A701C7C2A7D2A43
:1004F8007E2A762A79080319822A832AB92A0130A2
:10050800F007003003180130F107003003180130FC
:10051800F207003003180130F307731C942A952A58
:10052800B92A700883120313A0007108A100720889
:10053800A2007308A3000130A400230DA30CA20C91
:10054800A10CA00CA40BA12A2308F3002208F20096
:100558002108F1002008F0007A0A0319B42AB52A04
:10056800B92A0130A0002008FA077A0A0319BD2A1F
:10057800BE2AC32A7A08031DC22AC32AD12A0030F8
:10058800F3000030F2000030F1000030F0007A088B
:10059800031DCF2AD02AD12AF8017A1CD42AD52AB9
:1005A800D72AF217DD2A7F3083120313A000200810
:1005B800F2057A0883120313A0000310200CA1008F
:1005C8002108F300F81FE92AEA2AEB2AF3170800A2
:1005D8009A3084001C30FF0083178001840AFF0BC7
:1005E800F02A83160317E801E9018316031769083F
:1005F800803AFF0080307F02031D042B043068021C
:100608000318072B082B422B8316031768080A16B2
:100618008A115B250A128A11700883120313E000FD
:100628007108E100E201E3016308F8006208F700DD
:100638006108F6006008F50000300A128A154420A7
:100648000A128A1183160317680883120313E40039
:1006580001300310E40DFF3E031D2D2B0310640D24
:100668009A3E8400750883178000840A7608800003
:10067800840A77088000840A7808800083160317A4
:100688006908803AFF0080307F02031D4D2B04303B
:100698006802031C502B512B8C2B831603176808F8
:1006A800013E0A168A115B250A128A117008831204
:1006B8000313E0007108E100E201E3016308F800B8
:1006C8006208F7006108F6006008F50000300A12B9
:1006D8008A1544200A128A118316031768088312A0
:1006E8000313E40001300310E40DFF3E031D772BD4
:1006F8000310640D9A3E8400750883178000840AED
:1007080076088000840A77088000840A78088000C8
:10071800013083160317E8070318E90A0030E907D0
:100728006908803AFF0080307F02031D9D2B073047
:100738006802031CA02BA12BF92A83160317E801D2
:10074800E901831603176108F3006008F2005F08E7
:10075800F1005E08F000680883120313E00001301E
:100768000310E00DFF3E031DB42B0310600D9A3EED
:10077800840083170008F400840A0008F500840A3E
:100788000008F600840A0008F7000A168A115E2796
:100798000A128A110318D12BD22BF42B83160317B4
:1007A800680883120313E00001300310E00DFF3ED8
:1007B800031DD92B0310600D9A3E8400831700088F
:1007C80083160317DE00840A0008DF00840A000885
:1007D800E000840A0008E1006908E7006808E6000C
:1007E800013083160317E8070318E90A0030E90700
:1007F8006908803AFF0080307F02031D052C07300E
:100808006802031C082C092CA52B831603176608FD
:1008180083120313E00001300310E00DFF3E031DB7
:10082800102C0310600DFC3E9A3E840083170008CC
:1008380083160317D600840A0008D700840A000824
:10084800D800840A0008D900660883120313E00060
:1008580001300310E00DFF3E031D2D2C0310600D29
:10086800043E9A3E8400000883160317D200840AC7
:100878000008D300840A0008D400840A0008D500C0
:100888005508F3005408F2005308F1005208F0002C
:100898005908F7005808F6005708F5005608F400FC
:1008A8000A128A1154200A128A1173088316031730
:1008B800C1007208C0007108BF007008BE00403057
:1008C80083120313AB000030AA000030A9000030E7
:1008D800A80083160317610883120313AF00831659
:1008E8000317600883120313AE00831603175F080B
:1008F80083120313AD00831603175E0883120313D4
:10090800AC000A128A159F240A128A118312031353
:100918002B08C5002A08C4002908C3002808C200FB
:1009280083160317410883120313C900831603179C
:10093800400883120313C800831603173F08831265
:100948000313C700831603173E0883120313C60058
:100958000A168A1110250A128A11831203134508F0
:1009680083160317C500831203134408831603175D
:10097800C40083120313430883160317C3008312AA
:100988000313420883160317C2003F308312031370
:10099800AB000030AA000030A9000030A800831680
:1009A8000317450883120313AF008316031744087F
:1009B80083120313AE00831603174308831203132D
:1009C800AD0083160317420883120313AC000A1202
:1009D8008A159F240A128A11831203132B0883167F
:1009E8000317E500831203132A0883160317E4008C
:1009F80083120313290883160317E30083120313D2
:100A0800280883160317E200403083120313AB0053
:100A18000030AA000030A9000030A8008316031790
:100A2800650883120313AF00831603176408831243
:100A38000313AE0083160317630883120313AD0074
:100A480083160317620883120313AC000A128A156F
:100A58009F240A128A11831203132B088316031783
:100A6800C900831203132A0883160317C8008312C8
:100A78000313290883160317C700831203132808D2
:100A880083160317C600590883120313C50083167B
:100A98000317580883120313C40083160317570853
:100AA80083120313C3008316031756088312031314
:100AB800C20083160317610883120313C900831643
:100AC8000317600883120313C800831603175F080F
:100AD80083120313C700831603175E0883120313D8
:100AE800C6000A168A1110250A128A1183120313E6
:100AF800450883160317CD00831203134408831691
:100B08000317CC0083120313430883160317CB0083
:100B180083120313420883160317CA006608FF3EB0
:100B2800F50067080318013EFF3EF600F701F61BC3
:100B3800F7037708F80001300A128A1544200A12D0
:100B48008A11780883120313AB007708AA00760885
:100B5800A9007508A8008316031749088312031310
:100B6800AF0083160317480883120313AE008316D9
:100B78000317470883120313AD00831603174608AB
:100B880083120313AC000A128A159F240A128A11D1
:100B9800831203132B08C5002A08C4002908C300C0
:100BA8002808C200831603174D0883120313C900CF
:100BB800831603174C0883120313C8008316031700
:100BC8004B0883120313C700831603174A088312BE
:100BD8000313C6000A168A1110250A128A118312F5
:100BE8000313450883160317D1008312031344081F
:100BF80083160317D00083120313430883160317C1
:100C0800CF0083120313420883160317CE0065082A
:100C180083120313C5008316031764088312031392
:100C2800C40083160317630883120313C3008316D3
:100C38000317620883120313C200831603175108AF
:100C480083120313C9008316031750088312031372
:100C5800C800831603174F0883120313C7008316AF
:100C680003174E0883120313C6000A168A111025AB
:100C78000A128A1183120313450883160317B90051
:100C880083120313440883160317B800831203134F
:100C9800430883160317B700831203134208831609
:100CA8000317B600650883120313AF0083160317F2
:100CB800640883120313AE008316031763088312B4
:100CC8000313AD0083160317620883120313AC00E5
:100CD8004030AB000030AA000030A9000030A80066
:100CE8000A128A159F240A128A11831203132B08E9
:100CF800C5002A08C4002908C3002808C2008316B2
:100D080003173908F3003808F2003708F1003608ED
:100D1800F0000A168A11E1240A128A117308831254
:100D28000313C9007208C8007108C7007008C6001C
:100D38000A128A15C2220A128A118312031345085D
:100D480083160317BD008312031344088316031781
:100D5800BC0083120313430883160317BB008312D6
:100D68000313420883160317BA0041308312031392
:100D7800AB008830AA000030A9000030A800C030BD
:100D8800F3004030F2000030F1000030F00083162C
:100D980003173D08F7003C08F6003B08F5003A0841
:100DA800F4000A128A1154200A128A117308831255
:100DB8000313AF007208AE007108AD007008AC00F4
:100DC8000A128A159F240A128A11831203132B0808
:100DD80083160317DD00831203132A0883160317EB
:100DE800DC0083120313290883160317DB00831220
:100DF8000313280883160317DA00E801E9012130F4
:100E0800F1008030F2000A128A1502200A128A11B3
:100E18001A3083120313E0006008A000831603173A
:100E2800690883120313A200831603176808831244
:100E38000313A10090300A128A15DA210A128A11C6
:100E48009030F1000130F2000A128A1502200A12CD
:100E58008A111630F1008030F2000A128A15022039
:100E68000A128A111A3083120313E0006008A000E6
:100E780083160317680883120313E1000130031077
:100E8800E10DFF3E031D432F0310610D9A3E8400C0
:100E980083170008A100840A0008A200840A000839
:100EA800A300840A0008A40090300A128A15DA21E7
:100EB8000A128A119030F1000130F2000A128A15E4
:100EC80002200A128A11EA3083120313E100C230A9
:100ED800E000E00B6D2FE10B6D2F00001E30F100DC
:100EE8008030F2000A128A1502200A128A11013093
:100EF80083160317E8070318E90A0030E9076908A9
:100F0800803AFF0080307F02031D8C2F0730680273
:100F1800031C8F2F902F032F0B30F1008030F2002D
:100F28000A128A1502200A128A111A308312031330
:100F3800E0006008A000831603175D0883120313FE
:100F4800A400831603175C0883120313A3008316F7
:100F580003175B0883120313A200831603175A08AA
:100F680083120313A10090300A128A15DA210A129B
:100F78008A119030F1000130F2000A128A1502201D
:100F88000A128A11EA3083120313E100C230E0002A
:100F9800E00BCC2FE10BCC2F00001E30F10080308D
:100FA800F2000A128A1502200A128A118316031700
:100FB8005D0883120313DF00831603175C0883128E
:100FC8000313DE00831603175B0883120313DD0087
:100FD800831603175A0883120313DC0008008313CF
:100FE800A0308400BC300A168A11C7240A128A115C
:080FF80083010A168A113A2E4A
:10100400F601F701272876087107F4007208F30047
:101014000318F30AF61F0F28F3037308F500750885
:1010240083120313FF00740884000A168A11002037
:101034000A128A150A128A1104200A128A1501302A
:10104400F6070318F70A0030F70776087107F4006B
:101054007208F3000318F30AF61F3128F303730828
:10106400F500750883120313FF00740884000A1640
:101074008A1100200A128A15003A031D42284328C7
:101084000528080083120313A000200803194B2825
:101094004C286028F81F4F28502860287509A200A2
:1010A4007609A3007709A4007809A500A20A031908
:1010B400A30A0319A40A0319A50A68287808A50035
:1010C4007708A4007608A3007508A20078087704BE
:1010D40076047504031D6F28702879280030F80001
:1010E4000030F7000030F6000030F500FF2896309D
:1010F400F9007908A1008B280130F9007908A107CB
:1011040001300310A50CA40CA30CA20CFF3E031D7C
:101114008328FE302505031D902891287E28AD28BC
:101124000130F9007908A1070130A2070030031843
:101134000130A307003003180130A407003003185E
:101144000130A50701300310A50CA40CA30CA20CBC
:10115400FF3E031DA528FF302505031DB228B32833
:101164009228BF280130A1020130F9000310A20D1A
:10117400A30DA40DA50DF90BB828A41BC228C328E0
:10118400C928023021020318C828C928B428211804
:10119400CC28CD28D528FF30A205FF30A3057F3009
:1011A400A405FF30A5050310A10C2108F900FA01DC
:1011B400FB01FC0118300310F90DFA0DFB0DFC0DB9
:1011C400FF3E031DDD287908A2047A08A3047B08E6
:1011D400A4047C08A50420080319F128F228F728A0
:1011E400F81FF528F628F728A5172508F80024087D
:1011F400F7002308F6002208F50008008312031301
:101204002608AA002708AB002808AC002908AD006E
:1012140006300310AA0DAB0DAC0DAD0DFF3E031D42
:101224000B292D08F3002C08F2002B08F1002A08E2
:10123400F0002608AE002708AF002808B0002908EF
:10124400B10006300310AE0DAF0DB00DB10DFF3E71
:10125400031D24290030B2001230B3007A30B400E8
:101264000030B5002E08B2022F08031C2F0F3B29B3
:101274003C29B3023008031C300F41294229B4022F
:101284003108031C310F47294829B5023508F700F6
:101294003408F6003308F5003208F4000A168A11FF
:1012A400C1260A128A157108FA007008F900013083
:1012B4007A02003003197902031C61296229BE29CC
:1012C400831203132608AA002708AB002808AC00E1
:1012D4002908AD0004300310AA0DAB0DAC0DAD0D03
:1012E400FF3E031D6D292D08F3002C08F2002B0886
:1012F400F1002A08F0002608AE002708AF002808ED
:10130400B0002908B10004300310AE0DAF0DB00DCC
:10131400B10DFF3E031D86290030B2001230B30028
:101324007A30B4000030B5002E08B2022F08031C36
:101334002F0F9D299E29B3023008031C300FA329C7
:10134400A429B4023108031C310FA929AA29B50222
:101354003508F7003408F6003308F5003208F400C5
:101364000A168A11C1260A128A157108FA00700831
:10137400F90083160313181501307A02003003199B
:1013840079020318C629C729D929790883160313B2
:1013940099001812831203139817831603138717DF
:1013A40007178312031318168316031398160800DD
:1013B40083120313AD002130A5002508A800AB2A31
:1013C40025302E060319E729E829F4292E08A5005B
:1013D4002D0884002508831780000130A500250806
:1013E400AD07AB2AA9010130A007FF302007840014
:1013F4000A168A110A200A128A15AE00A500A6014F
:101404002608003A0319072AAB2A2508003A0319CB
:10141400BD2A643A0319122A0D3A0319122AAB2A77
:101424002808840083130008AB00840A0008AC0079
:101434000230A5002508A807AC1F212A222A2B2A3E
:101444000330A5002508A904AB09AC09AB0A0319AC
:10145400AC0AAE01AE0A2E08A5002507013E8400A1
:101464000A168A110A200A128A15A6000A168A1177
:101474000A200A128A15A70027082C02031D442AF1
:1014840026082B020318472A482A492A532A0130DE
:10149400A5002508AE0705302E06031D522A532A3F
:1014A4002D2A290803390319582A592A642A2D3068
:1014B400A5002D0884002508831780000130A500AD
:1014C4002508AD072E08A5002508AA00A22A0A307F
:1014D400F8000030F9002A08A5002507013E840021
:1014E4000A168A110A200A128A15F0000A168A11AD
:1014F4000A200A128A15F1002C08F3002B08F200C6
:101504000A128A1110200A128A157108FB00700849
:10151400FA000A168A1186250A128A157808303EBE
:1015240083120313A6002608AE002E08A5002D087A
:1015340084002508831780000130A5002508AD0725
:10154400FF30A5002508AA072A0A031DAA2AAB2AE8
:10155400692A0130A007FF30200784000A168A1187
:101564000A200A128A15A5002508AE002E08031DBC
:10157400BC2ABD2AE2292D088400831780010800B3
:101584008312031349088039CA004A08D300490862
:10159400CA004A07CB004B08DA00C81FD22AD32A54
:1015A400D42A5A145A080319D82AD92AE92A5A0AD1
:1015B400031DDD2ADE2AE62A0030C9000030C800F7
:1015C4000030C7000030C600C817C901F12A003036
:1015D400C9000030C8000030C7000030C60045080C
:1015E4008039CA004A08D3064508CA004A07CB0016
:1015F4004B08DB00C41FFF2A002B012B5B145B0884
:101604000319052B062B162B5B0A031D0A2B0B2B28
:10161400132B0030C5000030C4000030C30000307C
:10162400C200C417C5011E2B0030C5000030C40021
:101634000030C3000030C20045084404430442049F
:10164400031D252B262B3F2B0030C9000030C8007A
:101654000030C7000030C6008030C8047F30C904A1
:101664005308CA004A08C9044908C5004808C40008
:101674004708C3004608C2009E2C5A08031D432B8A
:10168400442B4D2B0030C5000030C4000030C30093
:101694000030C2009E2C5A08CA00CB014B08CD0072
:1016A4005B084A02CC00031CCD034C087F3ED400E7
:1016B4004D080318013E003ED5004908D2004808F1
:1016C400D1004708D0004608CF000030C9000030E0
:1016D400C8000030C7000030C6000030D900003018
:1016E400D8000030D7000030D600DB01C32B5B08E4
:1016F40003197D2B7E2B9E2B0130CA000310CF0DC6
:10170400D00DD10DD20DCA0B802B0130CA000310AD
:10171400C60DC70DC80DC90DCA0B892BD91F932B34
:10172400942B952B46140130CA000310D60DD70D07
:10173400D80DD90DCA0B972B45085202031DAC2BAB
:1017440044085102031DAC2B43085002031DAC2B6B
:1017540042084F02031CAF2BB02BBF2B5917420872
:10176400CF024308031C430FD0024408031C440F58
:10177400D1024508031C450FD2020130CA004A08B1
:10178400DB071A305B02031CC82BC92B792B5208C8
:10179400510450044F040319D02BD12BF02B5614B1
:1017A400F02B0130CA000310C60DC70DC80DC90DBA
:1017B400CA0BD52BD91FDF2BE02BE12B46140130AC
:1017C400CA000310D60DD70DD80DD90DCA0BE32BC3
:1017D400FF30D4070318D50AFF30D507C81FF32BF1
:1017E400F42BD32BDB01D91FF82BF92B152CFF304D
:1017F4005605CA00FF305705CB00FF305805CC0012
:101804007F305905CD004D084C044B044A0403199C
:101814000C2C0D2C102CDB01DB0A152C461C132C74
:10182400142C152C0D2C5B080319192C1A2C4B2C79
:101834000130C607003003180130C7070030031811
:101844000130C807003003180130C907491C2B2C8C
:101854002C2C4B2C4608CA004708CB004808CC0067
:101864004908CD000130CE004D0DCD0CCC0CCB0C75
:10187400CA0CCE0B362C4D08C9004C08C8004B08C6
:10188400C7004A08C6000130D4070318D50A00303F
:10189400D5075508803AFF0080307F02031D542C81
:1018A400FF305402031C572C582C662CFF30831233
:1018B4000313D4000030D5000030C9000030C80044
:1018C4000030C7000030C600831203135508803A65
:1018D400FF0080307F02031D712C01305402031875
:1018E400742C752C822C83120313D401D50100307F
:1018F400C9000030C8000030C7000030C600D30162
:10190400831203135408CA004A08DA005A1C8B2CA9
:101914008C2C8E2CC817922C7F30CA004A08C8051C
:101924005A08CA0003104A0CCB004B08C9005308DC
:10193400CA004A08C904362B0800831203132B0873
:101944008039B0003008B5002B08B0003007B10072
:101954003108BB00AA1FAF2CB02CB12C3B143B08A0
:101964000319B52CB62CC52C3B0A031DBA2CBB2C71
:10197400C32C0030AB000030AA000030A9000030B6
:10198400A800AA17CD2C0030AB000030AA0000300C
:10199400A9000030A8002F088039B0003008B5062F
:1019A4002F08B0003007B1003108BA00AE1FDB2C9D
:1019B400DC2CDD2C3A143A080319E12CE22CF12C2E
:1019C4003A0A031DE62CE72CEF2C0030AF00003060
:1019D400AE000030AD000030AC00AE17F92C003082
:1019E400AF000030AE000030AD000030AC003A086B
:1019F4000319FD2CFE2C032D3B08031D022D032D82
:101A04000C2D0030AB000030AA000030A9000030DB
:101A1400A800FF2F2808B0003008F0002E080A168E
:101A24008A1134250A128A15710883120313C1001E
:101A34007008C0004008B000B101B201B30133081E
:101A4400B9003208B8003108B7003008B6004108C0
:101A5400B000B101B201B3013308BF003208BE00C7
:101A64003108BD003008BC002908B0003008F0007F
:101A74002D080A168A1134250A128A157108831250
:101A84000313C1007008C0004008B000B101B201E6
:101A9400B3013008B607310803110318013E0319D6
:101AA400542DB707320803110318013E03195B2DA7
:101AB400B807330803110318013E0319622DB9074F
:101AC4004108B000B101B201B3013008BC073108CC
:101AD40003110318013E0319702DBD0732080311C9
:101AE4000318013E0319772DBE07330803110318A9
:101AF400013E03197E2DBF072A08B0003008F0000C
:101B04002C080A168A1134250A128A1571088312C0
:101B14000313C1007008C0004008B000B101B20155
:101B2400B3013008B607310803110318013E031945
:101B34009C2DB707320803110318013E0319A32D86
:101B4400B807330803110318013E0319AA2DB90776
:101B54004108B000B101B201B3013008BC0731083B
:101B640003110318013E0319B82DBD0732080311F0
:101B74000318013E0319BF2DBE07330803110318D0
:101B8400013E0319C62DBF070830B0000310B60D7F
:101B9400B70DB80DB90DB00BC82D2908B000300829
:101BA400F0002C080A168A1134250A128A157108C5
:101BB40083120313C1007008C0004008B00041083C
:101BC400B100B201B3013008B6073108031103189C
:101BD400013E0319EE2DB707320803110318013E25
:101BE4000319F52DB807330803110318013E03192F
:101BF400FC2DB9072808B0003008F0002D080A169B
:101C04008A1134250A128A15710883120313C1003C
:101C14007008C0004008B0004108B100B201B3012F
:101C24003008B607310803110318013E03191B2EAF
:101C3400B707320803110318013E0319222EB8070F
:101C4400330803110318013E0319292EB90708307C
:101C5400B0000310B60DB70DB80DB90DB00B2B2E97
:101C64002808B0003008F0002C080A168A11342520
:101C74000A128A15710883120313C1007008C00088
:101C84004008B0004108B100B201B3013008B60702
:101C9400310803110318013E0319512EB707320806
:101CA40003110318013E0319582EB8073308031112
:101CB4000318013E03195F2EB9072908B000300844
:101CC400F0002E080A168A1134250A128A157108A2
:101CD40083120313C1007008C0004008B00041081B
:101CE400B100B201B3013008BC0731080311031875
:101CF400013E03197E2EBD07320803110318013E6D
:101D04000319852EBE07330803110318013E031976
:101D14008C2EBF072A08B0003008F0002D080A16E0
:101D24008A1134250A128A15710883120313C1001B
:101D34007008C0004008B0004108B100B201B3010E
:101D44003008BC07310803110318013E0319AB2EF8
:101D5400BD07320803110318013E0319B22EBE0752
:101D6400330803110318013E0319B92EBF072A08CB
:101D7400B0003008F0002E080A168A1134250A1221
:101D84008A15710883120313C1007008C00040084B
:101D9400B0004108B100B201B30108300310B00D26
:101DA400B10DB20DB30DFF3E031DD02E3008BC079C
:101DB400310803110318013E0319E12EBD0732084F
:101DC40003110318013E0319E82EBE07330803115B
:101DD4000318013E0319EF2EBF073608B000370879
:101DE400B1003808B2003908B30018300310B30C3E
:101DF400B20CB10CB00CFF3E031DF82E3008BC072A
:101E0400310803110318013E0319092FBD073208D5
:101E140003110318013E0319102FBE0733080311E1
:101E24000318013E0319172FBF070830B000031031
:101E3400B60DB70DB80DB90DB00B192F3B083A0705
:101E4400B000B101B10D3008823EC0003108031862
:101E5400013EFF3EC1004B2F0130B0000310BC0D0A
:101E6400BD0DBE0DBF0DB00B302FB91F3A2F3B2F48
:101E74003C2F3C140130B0000310B60DB70DB80D63
:101E8400B90DB00B3E2FFF30C0070318C10AFF3055
:101E9400C107BE1F4E2F4F2F2E2FBA01B91F532F2C
:101EA400542F702FFF303605B000FF303705B100D6
:101EB400FF303805B2007F303905B30033083204EF
:101EC400310430040319672F682F6B2FBA01BA0A43
:101ED400702F3C1C6E2F6F2F702F682F3A08031938
:101EE400742F752FA62F0130BC0700300318013062
:101EF400BD07003003180130BE070030031801305D
:101F0400BF073F1C862F872FA62F3C08B0003D0833
:101F1400B1003E08B2003F08B3000130B400330DF5
:101F2400B30CB20CB10CB00CB40B912F3308BF003E
:101F34003208BE003108BD003008BC000130C007C3
:101F44000318C10A0030C1074108803AFF008030FD
:101F54007F02031DAF2FFF304002031CB22FB32FAB
:101F6400BE2F7F3083120313BF008030BE000030C9
:101F7400BD000030BC00F32F831203134108803AE4
:101F8400FF0080307F02031DC92F01304002031877
:101F9400CC2FCD2FD92F003083120313BF00003074
:101FA400BE000030BD000030BC00B501F32F831229
:101FB40003134008B0003008BB00FF30BC05FF30FD
:101FC400BD057F30BE050030BF053B1CEA2FEB2F5B
:101FD400EC2FBE173B08B0000310300CB1003108E1
:101FE400BF003508B0003008BF043F08AB003E080E
:101FF400AA003D08A9003C08A8000800FF1B0A2805
:1020040083137F1883170008840A0319FF0A080042
:1020140010308A000408840A820700340134003432
:102024000A34003464340034E8340334103427347C
:102034004B3468346F3461346E3467342034633421
:1020440061346334683420343D342034003425341E
:1020540064340A3400340A340D34003443344234D2
:02206400003446
:10297400F0007008831203139300080083160313F6
:10298400141CC52CC62CC02C080064008001840AC9
:102994000406031900340406C82C413083120313BF
:1029A4009F00C030831603139F0008000A168A1183
:1029B400C0240A168A11831203131308080073082B
:1029C4007204710470040319E82CE92CEB2C803098
:1029D400F306080083160313141CF12CF22CF72CB5
:1029E4000130F0000030F100F92CF001F101080091
:1029F400F300831603138712731D012D022D062D78
:102A04007208940087150A2D7008720494008711C7
:102A14007308710483120313940008008030831236
:102A24000313C5064908F3004808F2004708F100FB
:102A34004608F0004508F7004408F6004308F5008E
:102A44004208F4000A128A1154200A168A117308E3
:102A540083120313C5007208C4007108C300700810
:102A6400C2000800F800F401F5017008F200F30157
:102A74007208F6007308F700781C412D422D482D8A
:102A84007608F4070318F50A7708F50701300310F0
:102A9400F60DF70DFF3E031D492D0310F80C7808C1
:102AA400031D552D562D3E2D7508F1007408F000B8
:102AB4000800F4000130F2007208831203139F052A
:102AC4007408F20002300310F20DFF3E031D652D61
:102AD4000310720DF30073089F040630F3003030C6
:102AE400F200F20B732DF30B732D0000831203130A
:102AF4001F151F197E2D7F2D7B2D1E08F1008316B7
:102B040003131E08F00008007808790403198B2DBC
:102B14008C2DBB2DFD01FD0A9A2D01300310F80DFB
:102B2400F90DFF3E031D902D0130FC007C08FD07CC
:102B3400F91F9D2D9E2D8F2D79087B02031DA42D39
:102B440078087A02031CA72DA82DAE2D7808FA0266
:102B54007908031CFB03FB0201300310F90CF80C89
:102B6400FF3E031DAF2D0130FD02031DBA2DBB2D09
:102B74009E2D7B08F9007A08F80008000310720DF6
:102B8400730DF4007408FA007A08031DCA2DCB2DC6
:102B9400D42D0030F3000030F2000030F10000309A
:102BA400F000392E7008F4007108F5007208F60080
:102BB4007308F7001F300310F70CF60CF50CF40C37
:102BC400FF3E031DDD2D7408F8007808F900F217A4
:102BD400FF30F005FF30F105FF30F2050030F3055A
:102BE4009630FA02FA1FF72DF82D122E7A08803A41
:102BF400973E0318FE2DFF2D002ECB2D0130031020
:102C0400F30CF20CF10CF00CFF3E031D012E01300D
:102C1400F4007408FA07031D102E112E002E292E1D
:102C240020307A02031C172E182E242ECB2D0130AF
:102C3400F4000310F00DF10DF20DF30DF40B1B2E47
:102C44000130FA027A08031D282E292E192E79083C
:102C540003192D2E2E2E392EF009F109F209F3094C
:102C6400F00A0319F10A0319F20A0319F30A080016
:102C7400013083160313850088018312031388012E
:102C84008B170B178C11831603138C1507309F00B9
:102C94000A168A11CF240A168A11003083120313EC
:102CA400A9000030A8002530A7008030A6000A1231
:102CB4008A1500210A168A11F001F101F20124306B
:102CC4000A168A11FA240A168A110A168A11EC24A1
:102CD4000A168A11700871040319712E722EB32E0C
:102CE4000A168A11D8240A168A11003A03197B2E6F
:102CF4007C2EAF2E8312031308140A128A11EC22BD
:102D04000A168A11831203135F08EB005E08EA00B7
:102D14005D08E9005C08E8006B08F3006A08F2004B
:102D24006908F1006808F0000A168A11C0250A161D
:102D34008A1170080A168A11BA240A168A110B30ED
:102D440083120313E7002630E6005D30E500E50B4F
:102D5400A92EE60BA92EE70BA92E83120313081044
:102D64008C110D3083120313E600FB30E500E50BF4
:102D7400B92EE60BB92E672E0A128A110028831287
:102D84000313A101F31FC72EC82ED52EF009F10994
:102D9400F209F309F00A0319F10A0319F20A0319F3
:102DA400F30AA101A10AF71FD82ED92EE82EF4099F
:102DB400F509F609F709F40A0319F50A0319F60ADD
:102DC4000319F70A0130F8007808A1060030A500BD
:102DD4000030A4000030A3000030A2007308720485
:102DE400710470040319F72EF82E452FA001A00AD0
:102DF400082F0130F8000310F00DF10DF20DF30D62
:102E0400F80BFD2E0130F8007808A007F31F0B2FF4
:102E14000C2FFB2E0130F8000310A20DA30DA40DFE
:102E2400A50DF80B0E2F73087702031D232F7208CC
:102E34007602031D232F71087502031D232F7008CA
:102E44007402031C262F272F362F7008F4027108F2
:102E5400031C710FF5027208031C720FF60273084B
:102E6400031C730FF702221401300310F30CF20C4D
:102E7400F10CF00CFF3E031D372F0130A002031D9F
:102E8400442F452F0C2F21080319492F4A2F552F62
:102E9400A209A309A409A509A20A0319A30A0319EB
:102EA400A40A0319A50A2508F3002408F20023083C
:102EB400F1002208F000080000307005F80000302E
:102EC4007105F90080307205FA007F307305FB004C
:102ED4007B087A0479047804031D712F722F7A2FEA
:102EE4000030F3000030F2000030F1000030F00058
:102EF40000307405F80000307505F900803076055F
:102F0400FA007F307705FB007B087A0479047804A3
:102F1400031D8D2F8E2F962F0030F7000030F60002
:102F24000030F5000030F400F31F992F9A2FBE2FC4
:102F34000030F8000030F9000030FA008030FB0067
:102F44007008F8027108031C710FA92FAA2FF90247
:102F54007208031C720FAF2FB02FFA027308031C00
:102F6400730FB52FB62FFB027B08F3007A08F2002B
:102F74007908F1007808F000F71FC12FC22FE62F5F
:102F84000030F8000030F9000030FA008030FB0017
:102F94007408F8027508031C750FD12FD22FF9029B
:102FA4007608031C760FD72FD82FFA027708031C54
:102FB400770FDD2FDE2FFB027B08F7007A08F6007F
:102FC4007908F5007808F4008030F3068030F706BD
:102FD40077087302031DF82F76087202031DF82F79
:102FE40075087102031DF82F740870020318FB2F73
:0C2FF400FC2FFE2F0310FF2F0314080019
:02400E00393F38
:00000001FF
