:060000000A128A11EE2F26
:10000E0083160313141C0C280D2812280130F0003F
:10001E000030F1001428F001F101080083120313DF
:10002E002B088039B0003008B5002B08B00030071F
:10003E00B1003108BB00AA1F2528262827283B140B
:10004E003B0803192B282C283B283B0A031D30287C
:10005E00312839280030AB000030AA000030A9004A
:10006E000030A800AA1743280030AB000030AA00C9
:10007E000030A9000030A8002F088039B0003008E9
:10008E00B5062F08B0003007B1003108BA00AE1F18
:10009E005128522853283A143A0803195728582839
:1000AE0067283A0A031D5C285D2865280030AF00DA
:1000BE000030AE000030AD000030AC00AE176F283F
:1000CE000030AF000030AE000030AD000030AC00AC
:1000DE003A0803197328742879283B08031D7828D9
:1000EE00792882280030AB000030AA000030A90029
:1000FE000030A800752B2808B0003008F0002E083C
:10010E000A128A1502200A128A1171088312031329
:10011E00C1007008C0004008B000B101B201B301C7
:10012E003308B9003208B8003108B7003008B600FD
:10013E004108B000B101B201B3013308BF0032086B
:10014E00BE003108BD003008BC002908B0003008E0
:10015E00F0002D080A128A1502200A128A1171085F
:10016E0083120313C1007008C0004008B000B10133
:10017E00B201B3013008B607310803110318013E6E
:10018E000319CA28B707320803110318013E0319D1
:10019E00D128B807330803110318013E0319D828D4
:1001AE00B9074108B000B101B201B3013008BC0774
:1001BE00310803110318013E0319E628BD07320862
:1001CE0003110318013E0319ED28BE07330803116E
:1001DE000318013E0319F428BF072A08B00030089F
:1001EE00F0002C080A128A1502200A128A117108D0
:1001FE0083120313C1007008C0004008B000B101A3
:10020E00B201B3013008B607310803110318013EDD
:10021E0003191229B707320803110318013E0319F7
:10022E001929B807330803110318013E03192029B1
:10023E00B9074108B000B101B201B3013008BC07E3
:10024E00310803110318013E03192E29BD07320888
:10025E0003110318013E03193529BE073308031194
:10026E000318013E03193C29BF070830B0000310E4
:10027E00B60DB70DB80DB90DB00B3E292908B0005B
:10028E003008F0002C080A128A1502200A128A1170
:10029E00710883120313C1007008C0004008B0003B
:1002AE004108B100B201B3013008B607310803119D
:1002BE000318013E03196429B70732080311031806
:1002CE00013E03196B29B807330803110318013EC9
:1002DE0003197229B9072808B0003008F0002D085C
:1002EE000A128A1502200A128A1171088312031348
:1002FE00C1007008C0004008B0004108B100B20152
:10030E00B3013008B607310803110318013E031973
:10031E009129B707320803110318013E03199829D2
:10032E00B807330803110318013E03199F29B907B3
:10033E000830B0000310B60DB70DB80DB90DB00BE7
:10034E00A1292808B0003008F0002C080A128A15DE
:10035E0002200A128A11710883120313C100700859
:10036E00C0004008B0004108B100B201B30130082E
:10037E00B607310803110318013E0319C729B70741
:10038E00320803110318013E0319CE29B8073308AA
:10039E0003110318013E0319D529B9072908B00026
:1003AE003008F0002E080A128A1502200A128A114D
:1003BE00710883120313C1007008C0004008B0001A
:1003CE004108B100B201B3013008BC073108031176
:1003DE000318013E0319F429BD073208031103184F
:1003EE00013E0319FB29BE07330803110318013E12
:1003FE000319022ABF072A08B0003008F0002D08A2
:10040E000A128A1502200A128A1171088312031326
:10041E00C1007008C0004008B0004108B100B20130
:10042E00B3013008BC07310803110318013E03194C
:10043E00212ABD07320803110318013E0319282A89
:10044E00BE07330803110318013E03192F2ABF07F5
:10045E002A08B0003008F0002E080A128A15022071
:10046E000A128A11710883120313C1007008C000AA
:10047E004008B0004108B100B201B30108300310CA
:10048E00B00DB10DB20DB30DFF3E031D462A30085F
:10049E00BC07310803110318013E0319572ABD0783
:1004AE00320803110318013E03195E2ABE073308F2
:1004BE0003110318013E0319652ABF073608B00061
:1004CE003708B1003808B2003908B30018300310ED
:1004DE00B30CB20CB10CB00CFF3E031D6E2A3008EB
:1004EE00BC07310803110318013E03197F2ABD070B
:1004FE00320803110318013E0319862ABE0733087A
:10050E0003110318013E03198D2ABF070830B000EE
:10051E000310B60DB70DB80DB90DB00B8F2A3B08F1
:10052E003A07B000B101B10D3008823EC00031086B
:10053E000318013EFF3EC100C12A0130B000031076
:10054E00BC0DBD0DBE0DBF0DB00BA62AB91FB02A36
:10055E00B12AB22A3C140130B0000310B60DB70D0B
:10056E00B80DB90DB00BB42AFF30C0070318C10A7D
:10057E00FF30C107BE1FC42AC52AA42ABA01B91F5B
:10058E00C92ACA2AE62AFF303605B000FF303705E1
:10059E00B100FF303805B2007F303905B3003308A3
:1005AE003204310430040319DD2ADE2AE12ABA01AD
:1005BE00BA0AE62A3C1CE42AE52AE62ADE2A3A088A
:1005CE000319EA2AEB2A1C2B0130BC070030031852
:1005DE000130BD07003003180130BE07003003188C
:1005EE000130BF073F1CFC2AFD2A1C2B3C08B00023
:1005FE003D08B1003E08B2003F08B3000130B40020
:10060E00330DB30CB20CB10CB00CB40B072B33087A
:10061E00BF003208BE003108BD003008BC000130FA
:10062E00C0070318C10A0030C1074108803AFF0015
:10063E0080307F02031D252BFF304002031C282B28
:10064E00292B342B7F3083120313BF008030BE0062
:10065E000030BD000030BC00692B8312031341082B
:10066E00803AFF0080307F02031D3F2B0130400295
:10067E000318422B432B4F2B003083120313BF0062
:10068E000030BE000030BD000030BC00B501692B4B
:10069E00831203134008B0003008BB00FF30BC05C6
:1006AE00FF30BD057F30BE050030BF053B1C602B03
:1006BE00612B622BBE173B08B0000310300CB1004B
:1006CE003108BF003508B0003008BF043F08AB004A
:1006DE003E08AA003D08A9003C08A800080090307A
:1006EE008400C03083120313E0000408E1001C30C4
:1006FE00E2006008840083170008E300E00A610846
:10070E00840063088000E10AE20B802B0030831620
:10071E000317BB000030BA000030B9000030B8003B
:10072E0083160313E801E901831603173B08F30050
:10073E003A08F2003908F1003808F0008316031366
:10074E00680883120313E00001300310E00DFF3E32
:10075E00031DAC2B0310600D903E84008317000820
:10076E00F400840A0008F500840A0008F600840AE2
:10077E000008F7000A128A156D200A128A11031852
:10078E00C92BCA2B232C8316031368088312031359
:10079E00E00001300310E00DFF3E031DD12B0310CE
:1007AE00600D903E84008317000883160317B8006F
:1007BE00840A0008B900840A0008BA00840A0008F6
:1007CE00BB00831603136908E7006808E6002630AD
:1007DE0083120313E0006008A000831603173B0882
:1007EE0083120313A400831603173A08831203130C
:1007FE00A30083160317390883120313A20083166E
:10080E000317380883120313A100A0300A128A15A9
:10081E00A3220A128A11A0300A168A11D5250A12AD
:10082E008A11EA3083120313E100C230E000E00BBC
:10083E001E2CE10B1E2C0000013083160313E8075B
:10084E000318E90A0030E9076908803AFF00803092
:10085E007F02031D342C07306802031C372C382C02
:10086E009B2B83160313660883120313E0000130DB
:10087E000310E00DFF3E031D3F2C0310600DFC3EE8
:10088E00903E84008317000883160317AC00840A79
:10089E000008AD00840A0008AE00840A0008AF000C
:1008AE0083160313660883120313E000013003104E
:1008BE00E00DFF3E031D5E2C0310600D043E903EC6
:1008CE0084000008E400840A0008E500840A000899
:1008DE00E600840A0008E7006708F3006608F200E5
:1008EE006508F1006408F000831603172F08F7005F
:1008FE002E08F6002D08F5002C08F4000A128A15B1
:10090E0068250A128A11730883160313D50072081C
:10091E00D4007108D3007008D20040308312031344
:10092E00AB000030AA000030A9000030A8008316EA
:10093E0003173B0883120313AF00831603173A08FD
:10094E0083120313AE0083160317390883120313A1
:10095E00AD0083160317380883120313AC000A1276
:10096E008A1115200A128A11831203132B08C5004F
:10097E002A08C4002908C3002808C20083160313DE
:10098E00550883120313C9008316031354088312E8
:10099E000313C80083160313530883120313C700EF
:1009AE0083160313520883120313C6000A168A1104
:1009BE00F6250A128A1183120313450883160313B0
:1009CE00D90083120313440883160313D80083122D
:1009DE000313430883160313D7008312031342082D
:1009EE0083160313D6003F3083120313AB0000307F
:1009FE00AA000030A9000030A8008316031359087E
:100A0E0083120313AF0083160313580883120313C4
:100A1E00AE0083160313570883120313AD0083161B
:100A2E000313560883120313AC000A128A11152001
:100A3E000A128A11831203132B0883160317B700A9
:100A4E00831203132A0883160317B60083120313A7
:100A5E00290883160317B50083120313280883167B
:100A6E000317B400403083120313AB000030AA000A
:100A7E000030A9000030A800831603173708831230
:100A8E000313AF0083160317360883120313AE0049
:100A9E0083160317350883120313AD00831603174D
:100AAE00340883120313AC000A128A1115200A129D
:100ABE008A11831203132B0883160313DD0083128E
:100ACE0003132A0883160313DC0083120313290869
:100ADE0083160313DB0083120313280883160313F4
:100AEE00DA00831603172F0883120313C50083162B
:100AFE0003172E0883120313C400831603172D0841
:100B0E0083120313C300831603172C0883120313D7
:100B1E00C200831603173B0883120313C900831602
:100B2E0003173A0883120313C800831603173908F4
:100B3E0083120313C7008316031738088312031397
:100B4E00C6000A168A11F6250A128A118312031399
:100B5E00450883160313E10083120313440883161A
:100B6E000313E00083120313430883160313DF00FD
:100B7E0083120313420883160313DE006608FF3E3A
:100B8E00F00067080318013EFF3EF100F201F11B71
:100B9E00F2037208F30001300A128A150F210A12AD
:100BAE008A11730883120313AB007208AA0071082E
:100BBE00A9007008A800831603135D08831203139F
:100BCE00AF00831603135C0883120313AE00831663
:100BDE0003135B0883120313AD00831603135A0825
:100BEE0083120313AC000A128A1115200A128A11FD
:100BFE00831203132B08C5002A08C4002908C3005A
:100C0E002808C20083160313610883120313C90058
:100C1E0083160313600883120313C800831603138D
:100C2E005F0883120313C700831603135E08831233
:100C3E000313C6000A168A11F6250A128A118312A8
:100C4E000313450883160313E500831203134408A8
:100C5E0083160313E400831203134308831603134E
:100C6E00E30083120313420883160313E200831674
:100C7E000317370883120313C500831603173608AC
:100C8E0083120313C400831603173508831203134C
:100C9E00C30083160317340883120313C20083168E
:100CAE000313650883120313C90083160313640824
:100CBE0083120313C80083160313630883120313EE
:100CCE00C70083160313620883120313C6000A16A5
:100CDE008A11F6250A128A11831203134508EB00B6
:100CEE004408EA004308E9004208E80083160317A7
:100CFE00370883120313AF008316031736088312C7
:100D0E000313AE0083160317350883120313AD00C9
:100D1E0083160317340883120313AC004030AB0064
:100D2E000030AA000030A9000030A8000A128A1173
:100D3E0015200A128A11831203132B08C5002A08E4
:100D4E00C4002908C3002808C2006B08F3006A0813
:100D5E00F2006908F1006808F0000A168A11792578
:100D6E000A128A11730883120313C9007208C8008D
:100D7E007108C7007008C6000A128A158B230A1262
:100D8E008A11831203134508EF004408EE0043084E
:100D9E00ED004208EC004130AB008830AA00003074
:100DAE00A9000030A800C030F3004030F20000303F
:100DBE00F1000030F0006F08F7006E08F6006D08C5
:100DCE00F5006C08F4000A128A1568250A128A11B9
:100DDE00730883120313AF007208AE007108AD00E2
:100DEE007008AC000A128A1115200A128A11831299
:100DFE0003132B0883160317B300831203132A0859
:100E0E0083160317B20083120313290883160317E0
:100E1E00B10083120313280883160317B0000B309A
:100E2E0083120313E0006008A00083160317130853
:100E3E0083120313A40083160317120883120313DD
:100E4E00A30083160317110883120313A20083163F
:100E5E000317100883120313A1000430903E840080
:100E6E0083170008A500840A0008A600840A00085B
:100E7E00A700840A0008A8000830903E84000008ED
:100E8E00A900840A0008AA00840A0008AB00840A9C
:100E9E000008AC000C30903E84000008AD00840ABF
:100EAE000008AE00840A0008AF00840A0008B000F3
:100EBE001030903E84000008B100840A0008B20091
:100ECE00840A0008B300840A0008B4001430903E6F
:100EDE0084000008B500840A0008B600840A0008E1
:100EEE00B700840A0008B8001830903E840000084D
:100EFE00B900840A0008BA00840A0008BB00840AFC
:100F0E000008BC00A0300A128A15A3220A128A1108
:100F1E00A0300A168A11D5250A128A11EA308312D8
:100F2E000313E100C230E000E00B9B2FE10B9B2F7F
:100F3E000000223083120313E0006008A000831625
:100F4E000317330883120313A40083160317320802
:100F5E0083120313A300831603173108831203139E
:100F6E00A20083160317300883120313A100A030CA
:100F7E000A128A15A3220A128A11A0300A168A11A1
:100F8E00D5250A128A11EA3083120313E100C2300A
:100F9E00E000E00BD02FE10BD02F000083160317DB
:100FAE00330883120313DF008316031732088312EC
:100FBE000313DE0083160317310883120313DD00BB
:100FCE0083160317300883120313DC0008008317FF
:100FDE00DC30FD001530FE00B930FF00C03084005B
:100FEE000A168A1194250A128A1183010A168A1189
:020FFE00CE2EF5
:10100400F800F401F5017008F200F3017208F6002B
:101014007308F700781C0F28102816287608F407A0
:101024000318F50A7708F50701300310F60DF70DDC
:10103400FF3E031D17280310F80C7808031D23280E
:1010440024280C287508F1007408F0000800F50144
:10105400F601700871040319302831286828F70153
:10106400F70A3F2801300310F00DF10DFF3E031D78
:1010740035280130F4007408F707F11F422843288B
:10108400342801300310F50DF60DFF3E031D4428EE
:1010940071087302031D502870087202031C532840
:1010A40054285B287008F2027108031CF303F3024E
:1010B400751401300310F10CF00CFF3E031D5C2885
:1010C4000130F702031D6728682843287608F100D9
:1010D4007508F000080000307005F8000030710554
:1010E400F90080307205FA007F307305FB007B083D
:1010F4007A0479047804031D802881288928003023
:10110400F3000030F2000030F1000030F000003055
:101114007405F80000307505F90080307605FA0092
:101124007F307705FB007B087A0479047804031D7B
:101134009C289D28A5280030F7000030F6000030D8
:10114400F5000030F400F31FA828A928CD280030AA
:10115400F8000030F9000030FA008030FB0070081D
:10116400F8027108031C710FB828B928F902720833
:10117400031C720FBE28BF28FA027308031C730FE6
:10118400C428C528FB027B08F3007A08F20079081A
:10119400F1007808F000F71FD028D128F528003096
:1011A400F8000030F9000030FA008030FB007408C9
:1011B400F8027508031C750FE028E128F902760887
:1011C400031C760FE628E728FA027708031C770F3A
:1011D400EC28ED28FB027B08F7007A08F600790872
:1011E400F5007808F4008030F3068030F7067708BD
:1011F4007302031D072976087202031D0729750867
:101204007102031D07297408700203180A290B29A7
:101214000D2903100E2903140800F8007808031997
:10122400142915292929F31F18291929292970098D
:10123400FA007109FB007209FC007309FD00FA0A47
:101244000319FB0A0319FC0A0319FD0A312973085F
:10125400FD007208FC007108FB007008FA007308B6
:10126400720471047004031D38293929422900309D
:10127400F3000030F2000030F1000030F000C82923
:101284009630F4007408F90054290130F40074080D
:10129400F90701300310FD0CFC0CFB0CFA0CFF3EAB
:1012A400031D4C29FE307D05031D59295A29472960
:1012B40076290130F4007408F9070130FA07003088
:1012C40003180130FB07003003180130FC0700301D
:1012D40003180130FD0701300310FD0CFC0CFB0C5E
:1012E400FA0CFF3E031D6E29FF307D05031D7B298B
:1012F4007C295B2988290130F9020130F4000310AC
:10130400FA0DFB0DFC0DFD0DF40B8129FC1B8B2943
:101314008C299229023079020318912992297D2976
:101324007918952996299E29FF30FA05FF30FB0587
:101334007F30FC05FF30FD050310F90C7908F4003B
:10134400F501F601F70118300310F40DF50DF60D53
:10135400F70DFF3E031DA6297408FA047508FB0463
:101364007608FC047708FD0478080319BA29BB2918
:10137400C029F31FBE29BF29C029FD177D08F3002A
:101384007C08F2007B08F1007A08F0000800831260
:1013940003132608AA002708AB002808AC00290874
:1013A400AD0006300310AA0DAB0DAC0DAD0DFF3E24
:1013B400031DD4292D08F3002C08F2002B08F1009A
:1013C4002A08F0002608AE002708AF002808B0005D
:1013D4002908B10006300310AE0DAF0DB00DB10DEC
:1013E400FF3E031DED290030B2001230B3007A3005
:1013F400B4000030B5002E08B2022F08031C2F0FD2
:10140400042A052AB3023008031C300F0A2A0B2AC7
:10141400B4023108031C310F102A112AB502350811
:10142400F7003408F6003308F5003208F4000A1611
:101434008A1163270A128A157108FA007008F900E4
:1014440001307A02003003197902031C2A2A2B2A5C
:10145400872A831203132608AA002708AB0028084A
:10146400AC002908AD0004300310AA0DAB0DAC0D7F
:10147400AD0DFF3E031D362A2D08F3002C08F200A3
:101484002B08F1002A08F0002608AE002708AF0058
:101494002808B0002908B10004300310AE0DAF0DC8
:1014A400B00DB10DFF3E031D4F2A0030B2001230C3
:1014B400B3007A30B4000030B5002E08B2022F0811
:1014C400031C2F0F662A672AB3023008031C300F4F
:1014D4006C2A6D2AB4023108031C310F722A732A54
:1014E400B5023508F7003408F6003308F500320871
:1014F400F4000A168A1163270A128A157108FA0081
:101504007008F90083160313181501307A020030AD
:101514000319790203188F2A902AA22A79088316BC
:1015240003139900181283120313981783160313D5
:1015340087170717831203131816831603139816B5
:10154400080083120313C5002130BD003D08C0000C
:10155400742B253046060319B02AB12ABD2A460841
:10156400BD00450884003D08831380000130BD00A0
:101574003D08C507742BC1010130A007FF302007C7
:1015840084000A168A1100200A128A15C600BD00BA
:10159400BE013E08003A0319D02A742B3D08003AD4
:1015A4000319862B643A0319DB2A0D3A0319DB2A43
:1015B400742B4008840083130008C300840A0008C5
:1015C400C4000230BD003D08C007C41FEA2AEB2A4C
:1015D400F42A0330BD003D08C104C309C409C30A89
:1015E4000319C40AC601C60A4608BD003D07013EE8
:1015F40084000A168A1100200A128A15BE000A16EF
:101604008A1100200A128A15BF003F084402031DF4
:101614000D2B3E0843020318102B112B122B1C2BED
:101624000130BD003D08C60705304606031D1B2BCF
:101634001C2BF62A410803390319212B222B2D2BAD
:101644002D30BD00450884003D088313800001301F
:10165400BD003D08C5074608BD003D08C2006B2B10
:101664000A30F8000030F9004208BD003D07013E91
:1016740084000A168A1100200A128A15F0000A163C
:101684008A1100200A128A15F1004408F300430865
:10169400F2000A128A1529200A128A157108FB0021
:1016A4007008FA000A168A111A260A128A1578088E
:1016B400303E83120313BE003E08C6004608BD0038
:1016C400450884003D08831380000130BD003D08B7
:1016D400C507FF30BD003D08C207420A031D732B36
:1016E400742B322B0130A007FF30200784000A1628
:1016F4008A1100200A128A15BD003D08C60046085A
:10170400031D852B862BAB2A450884008313800197
:1017140008008312031349088039CA004A08D30019
:101724004908CA004A07CB004B08DA00C81F9B2BA4
:101734009C2B9D2B5A145A080319A12BA22BB22BB4
:101744005A0A031DA62BA72BAF2B0030C90000306B
:10175400C8000030C7000030C600C817C901BA2B42
:101764000030C9000030C8000030C7000030C60097
:1017740045088039CA004A08D3064508CA004A0702
:10178400CB004B08DB00C41FC82BC92BCA2B5B142E
:101794005B080319CE2BCF2BDF2B5B0A031DD32B46
:1017A400D42BDC2B0030C5000030C4000030C30053
:1017B4000030C200C417C501E72B0030C50000305B
:1017C400C4000030C3000030C20045084404430490
:1017D4004204031DEE2BEF2B082C0030C90000300F
:1017E400C8000030C7000030C6008030C8047F3015
:1017F400C9045308CA004A08C9044908C50048086E
:10180400C4004708C3004608C200672D5A08031DD8
:101814000C2C0D2C162C0030C5000030C4000030F8
:10182400C3000030C200672D5A08CA00CB014B0820
:10183400CD005B084A02CC00031CCD034C087F3E5C
:10184400D4004D080318013E003ED5004908D200DB
:101854004808D1004708D0004608CF000030C9002E
:101864000030C8000030C7000030C6000030D90086
:101874000030D8000030D7000030D600DB018C2CBB
:101884005B080319462C472C672C0130CA0003104F
:10189400CF0DD00DD10DD20DCA0B492C0130CA0089
:1018A4000310C60DC70DC80DC90DCA0B522CD91F84
:1018B4005C2C5D2C5E2C46140130CA000310D60D3E
:1018C400D70DD80DD90DCA0B602C45085202031D43
:1018D400752C44085102031D752C43085002031D46
:1018E400752C42084F02031C782C792C882C59172C
:1018F4004208CF024308031C430FD0024408031CD0
:10190400440FD1024508031C450FD2020130CA001E
:101914004A08DB071A305B02031C912C922C422CE0
:101924005208510450044F040319992C9A2CB92CD1
:101934005614B92C0130CA000310C60DC70DC80DCA
:10194400C90DCA0B9E2CD91FA82CA92CAA2C46144D
:101954000130CA000310D60DD70DD80DD90DCA0B0E
:10196400AC2CFF30D4070318D50AFF30D507C81FA5
:10197400BC2CBD2C9C2CDB01D91FC12CC22CDE2C11
:10198400FF305605CA00FF305705CB00FF3058051D
:10199400CC007F305905CD004D084C044B044A045B
:1019A4000319D52CD62CD92CDB01DB0ADE2C461CE2
:1019B400DC2CDD2CDE2CD62C5B080319E22CE32C6A
:1019C400142D0130C607003003180130C70700305A
:1019D40003180130C807003003180130C907491C37
:1019E400F42CF52C142D4608CA004708CB004808EF
:1019F400CC004908CD000130CE004D0DCD0CCC0CEF
:101A0400CB0CCA0CCE0BFF2C4D08C9004C08C800E7
:101A14004B08C7004A08C6000130D4070318D50A8A
:101A24000030D5075508803AFF0080307F02031D3F
:101A34001D2DFF305402031C202D212D2F2DFF308E
:101A440083120313D4000030D5000030C9000030E5
:101A5400C8000030C7000030C600831203135508C5
:101A6400803AFF0080307F02031D3A2D013054027A
:101A740003183D2D3E2D4B2D83120313D401D501A4
:101A84000030C9000030C8000030C7000030C60074
:101A9400D301831203135408CA004A08DA005A1CFB
:101AA400542D552D572DC8175B2D7F30CA004A0879
:101AB400C8055A08CA0003104A0CCB004B08C900D9
:101AC4005308CA004A08C904FF2B08007308803968
:101AD40083120313A0002008F8007308A000200755
:101AE400A1002108FA00F21F782D792D7A2D7A149D
:101AF4007A0803197E2D7F2D8F2D7A0A031D832DDD
:101B0400842D8C2D0030F3000030F2000030F10001
:101B14000030F000F217F301972D0030F30000308D
:101B2400F2000030F1000030F00077088039A000A6
:101B34002008F900790878060319A12DA22DA32DF8
:101B440078177708A0002007A1002108F900F61FE4
:101B5400AC2DAD2DAE2D791479080319B22DB32D0A
:101B6400C32D790A031DB72DB82DC02D0030F70001
:101B74000030F6000030F5000030F400F617F701ED
:101B8400CB2D0030F7000030F6000030F5000030B7
:101B9400F4007A0879020318D02DD12D152E781F60
:101BA400D42DD52DD92D8030A0002008F8067A0830
:101BB400A0002008FB007908A0002008FA007B0898
:101BC400A0002008F9007008A0002008FB00740899
:101BD400A0002008F0007B08A0002008F400710891
:101BE400A0002008FB007508A0002008F1007B0875
:101BF400A0002008F5007208A0002008FB00760869
:101C0400A0002008F2007B08A0002008F60073085A
:101C1400A0002008FB007708A0002008F3007B0840
:101C2400A0002008F700FB017908A000A101210809
:101C3400A3007A082002A200031CA3032308803A0D
:101C4400FF0080307F02031D292E1A302202031C5C
:101C54002C2E2D2E6E2E7308720471047004031D35
:101C6400342E362E0130372E003083120313A00099
:101C74002008FB000030F3000030F2000030F100D7
:101C84000030F0007908A0002008FA00742E7B1CB4
:101C94004C2E4D2E582E7B0883120313A0000310E4
:101CA400200C0138A1002108FB005A2E0310FB0C64
:101CB400701C5D2E5E2E5F2EFB1701308312031302
:101CC400A000730DF30CF20CF10CF00CA00B632EBE
:101CD4000130A0002008FA0779087A02031C732E49
:101CE400742E492E781B772E782EC72E7A08031D62
:101CF4007C2E7D2E862E0030F3000030F200003062
:101D0400F1000030F000FF2F7408F007750803118C
:101D14000318013E03198F2EF107760803110318E7
:101D2400013E0319962EF207770803110318013EAA
:101D340003199D2EF307731CA02EA12E7F2F7B1C4D
:101D4400A42EA52EB02E7B0883120313A00003102B
:101D5400200C0138A1002108FB00B22E0310FB0C5B
:101D6400701CB52EB62EB72EFB1701308312031349
:101D7400A000730DF30CF20CF10CF00CA00BBB2EB5
:101D84000130A0002008FA077F2F7308803AFF0073
:101D94007708803A7F02031DD92E76087202031D4C
:101DA400D92E75087102031DD92E74087002031808
:101DB400DC2EDD2E372FFF3083120313A000FF30FB
:101DC400A100FF30A200FF30A3007408A40075082E
:101DD400A5007608A6007708A7007008A402710879
:101DE400031C710FF62EF72EA5027208031C720F46
:101DF400FC2EFD2EA6027308031C730F022F032F63
:101E0400A7022408A00725080318250F0A2F0B2F63
:101E1400A10726080318260F102F112FA207270841
:101E24000318270AA3072308F3002208F200210855
:101E3400F1002008F0008030A0002008F806FB091B
:101E4400FB0A7B08031D272F282F452F0130F0079D
:101E5400003003180130F107003003180130F20795
:101E6400003003180130F307452F7408F002750899
:101E7400031C750FF1027608031C760FF202770833
:101E8400031C770FF3027308720471047004031DBA
:101E94004C2F4D2F7B2F7B08031D512F522F7B2F4F
:101EA4000030F3000030F2000030F1000030F000A8
:101EB400FF2F013083120313A0000310F00DF10D66
:101EC400F20DF30DA00B5F2FFB1F692F6A2F6B2FF1
:101ED40070147B1C6E2F6F2F722F0314FB0D742F45
:101EE4000310FB0D7A080319782F792F7B2F01300B
:101EF400FA02F21F7E2F7F2F5B2FF901FB1F832F26
:101F0400842F922F7B087F390319892F8A2F8D2FD5
:101F1400F901F90A922F701C902F912F922F8A2F7A
:101F240079080319962F972FCD2F0130F007003031
:101F340003180130F107003003180130F2070030B4
:101F440003180130F307731CA82FA92FCD2F700895
:101F540083120313A0007108A1007208A200730881
:101F6400A3000130A400230DA30CA20CA10CA00C0F
:101F7400A40BB52F2308F3002208F2002108F10076
:101F84002008F0007A0A0319C82FC92FCD2F013079
:101F9400A0002008FA077A0A0319D12FD22FD72FCD
:101FA4007A08031DD62FD72FE52F0030F300003019
:101FB400F2000030F1000030F0007A08031DE32F36
:101FC400E42FE52FF8017A1CE82FE92FEB2FF21705
:101FD400F12F7F3083120313A0002008F2057A0842
:101FE40083120313A0000310200CA1002108F300A6
:101FF400F81FFD2FFE2FFF2FF317080010308A0063
:102004000408840A82070034013400340A3400349A
:1020140064340034E834033410342734253464340D
:102024002034253464342034253464342034253475
:102034006434203425346434203425346434203426
:10204400253464340A340D340034643420343D348B
:0C2054002034253464340A340D34003488
:102AB400F0007008831203139300080083160313B5
:102AC400141C652D662D602D0800413083120313FC
:102AD4009F00C030831603139F0008000A168A1152
:102AE40060250A168A118312031313080800730859
:102AF4007204710470040319802D812D832D80309C
:102B0400F3060800F00083160313981C8A2D8B2DFE
:102B1400852D700883120313990008007E088A002B
:102B24007F0882000A168A1190250A168A118000ED
:102B3400840A04087D0603190034FF0A0319FE0AF7
:102B4400942DF300831603138712731DAA2DAB2D46
:102B5400AF2D720894008715B32D70087204940089
:102B6400871173087104831203139400080000345E
:102B740000342034423400340034283442340034E5
:102B840000342434423400340034183442340034E1
:102B9400C0341D3444340034C0345E34443400340E
:102BA400003473344334F400F201F301EA2D720863
:102BB4007407F1007108840000080A168A1184253C
:102BC4000A168A110130F2070318F30A0030F307DA
:102BD40072087407F1007108840083130008031D50
:102BE400F42DF52DD92D0800803083120313C5066A
:102BF4004908F3004808F2004708F1004608F000CD
:102C04004508F7004408F6004308F5004208F400BC
:102C14000A128A1568250A168A1173088312031387
:102C2400C5007208C4007108C3007008C20008001F
:102C34007808790403191F2E202E4F2EFD01FD0A5A
:102C44002E2E01300310F80DF90DFF3E031D242E26
:102C54000130FC007C08FD07F91F312E322E232E93
:102C640079087B02031D382E78087A02031C3B2E58
:102C74003C2E422E7808FA027908031CFB03FB025F
:102C840001300310F90CF80CFF3E031D432E0130F4
:102C9400FD02031D4E2E4F2E322E7B08F9007A08BA
:102CA400F80008000310720D730DF4007408FA00A4
:102CB4007A08031D5E2E5F2E682E0030F30000306C
:102CC400F2000030F1000030F000CD2E7008F40066
:102CD4007108F5007208F6007308F7001F3003103E
:102CE400F70CF60CF50CF40CFF3E031D712E740862
:102CF400F8007808F900F217FF30F005FF30F1050D
:102D0400FF30F2050030F3059630FA02FA1F8B2EDD
:102D14008C2EA62E7A08803A973E0318922E932E74
:102D2400942E5F2E01300310F30CF20CF10CF00C16
:102D3400FF3E031D952E0130F4007408FA07031DAD
:102D4400A42EA52E942EBD2E20307A02031CAB2E69
:102D5400AC2EB82E5F2E0130F4000310F00DF10DEF
:102D6400F20DF30DF40BAF2E0130FA027A08031DB5
:102D7400BC2EBD2EAD2E79080319C12EC22ECD2E28
:102D8400F009F109F209F309F00A0319F10A031928
:102D9400F20A0319F30A08000130831603138500AD
:102DA40088018312031388018B170B178C11831668
:102DB40003138C1507309F000A168A1167250A161B
:102DC4008A11003083120313A9000030A8002530B3
:102DD400A7008030A6000A128A15C9210A168A1192
:102DE400F001F101F20124300A168A11A3250A1612
:102DF4008A110A128A1107200A168A1170087104AE
:102E04000319052F062F552F0A168A1170250A1645
:102E14008A11003A03190F2F102F512F8312031315
:102E240008140A128A1176230A168A1183120313CC
:102E34005F0883160317BF00831203135E0883160B
:102E44000317BE00831203135D0883160317BD0026
:102E5400831203135C0883160317BC003F08F300B6
:102E64003E08F2003D08F1003C08F0000A168A1101
:102E740054260A168A1170080A168A115A250A1647
:102E84008A110B3083160313EC002630EB005D30FF
:102E9400EA00EA0B4B2FEB0B4B2FEC0B4B2F83125F
:102EA400031308108C110D3083160313EB00FB3051
:102EB400EA00EA0B5B2FEB0B5B2FFB2E0A128A1145
:102EC400002883120313A101F31F692F6A2F772FA0
:102ED400F009F109F209F309F00A0319F10A0319D7
:102EE400F20A0319F30AA101A10AF71F7A2F7B2F13
:102EF4008A2FF409F509F609F709F40A0319F50A02
:102F04000319F60A0319F70A0130F8007808A10634
:102F14000030A5000030A4000030A3000030A2005F
:102F240073087204710470040319992F9A2FE72F00
:102F3400A001A00AAA2F0130F8000310F00DF10D32
:102F4400F20DF30DF80B9F2F0130F8007808A0075D
:102F5400F31FAD2FAE2F9D2F0130F8000310A20DEB
:102F6400A30DA40DA50DF80BB02F73087702031D54
:102F7400C52F72087602031DC52F71087502031D43
:102F8400C52F70087402031CC82FC92FD82F7008CE
:102F9400F4027108031C710FF5027208031C720F0E
:102FA400F6027308031C730FF70222140130031096
:102FB400F30CF20CF10CF00CFF3E031DD92F013081
:102FC400A002031DE62FE72FAE2F21080319EB2FD4
:102FD400EC2FF72FA209A309A409A509A20A031932
:102FE400A30A0319A40A0319A50A2508F30024084F
:0C2FF400F2002308F1002208F0000800A1
:02400E00393F38
:00000001FF
