:100000000A128A11F32FF000700883120313930071
:10001000080083160313141C0E280F28142801301F
:10002000F0000030F1001628F001F1010800013065
:1000300083160313850088018312031388018B172D
:100040000B178C11831603138C1507309F000A16AB
:100050008A1195260A128A11003083120313A9000F
:100060000030A8002530A7008030A6000A128A15AB
:10007000E8210A128A11F001F101F20124300A1676
:100080008A11B2260A128A110A128A1109200A124A
:100090008A117008710403194E284F2890280A16F7
:1000A0008A119E260A128A11003A031958285928E3
:1000B0008C288312031308140A128A1136230A1299
:1000C0008A11831203135F08EB005E08EA005D08E3
:1000D000E9005C08E8006B08F3006A08F2006908B0
:1000E000F1006808F0000A128A1510200A128A111D
:1000F00070080A128A1103200A128A110B30831227
:100100000313E7002630E6005D30E500E50B8628A6
:10011000E60B8628E70B86288312031308108C1140
:100120000D3083120313E600FB30E500E50B962843
:10013000E60B962844280A128A1100287308803991
:1001400083120313A0002008F8007308A000200702
:10015000A1002108FA00F21FAE28AF28B0287A14B7
:100160007A080319B428B528C5287A0A031DB928C6
:10017000BA28C2280030F3000030F2000030F1004D
:100180000030F000F217F301CD280030F30000300A
:10019000F2000030F1000030F00077088039A00054
:1001A0002008F900790878060319D728D828D92813
:1001B00078177708A0002007A1002108F900F61F92
:1001C000E228E328E428791479080319E828E928C3
:1001D000F928790A031DED28EE28F6280030F700EB
:1001E0000030F6000030F5000030F400F617F7019B
:1001F00001290030F7000030F6000030F500003033
:10020000F4007A0879020318062907294B29781F78
:100210000A290B290F298030A0002008F8067A0847
:10022000A0002008FB007908A0002008FA007B0845
:10023000A0002008F9007008A0002008FB00740846
:10024000A0002008F0007B08A0002008F40071083E
:10025000A0002008FB007508A0002008F1007B0822
:10026000A0002008F5007208A0002008FB00760816
:10027000A0002008F2007B08A0002008F600730808
:10028000A0002008FB007708A0002008F3007B08EE
:10029000A0002008F700FB017908A000A1012108B7
:1002A000A3007A082002A200031CA3032308803ABB
:1002B000FF0080307F02031D5F291A302202031CD9
:1002C00062296329A4297308720471047004031D50
:1002D0006A296C2901306D29003083120313A000B4
:1002E0002008FB000030F3000030F2000030F10085
:1002F0000030F0007908A0002008FA00AA297B1C31
:10030000822983298E297B0883120313A0000310FE
:10031000200C0138A1002108FB0090290310FB0CE0
:10032000701C932994299529FB170130831203131C
:10033000A000730DF30CF20CF10CF00CA00B99293A
:100340000130A0002008FA0779087A02031CA929C5
:10035000AA297F29781BAD29AE29FD297A08031D1A
:10036000B229B329BC290030F3000030F20000307C
:10037000F1000030F000352B7408F0077508031108
:100380000318013E0319C529F10776080311031864
:10039000013E0319CC29F207770803110318013E27
:1003A0000319D329F307731CD629D729B52A7B1C37
:1003B000DA29DB29E6297B0883120313A000031046
:1003C000200C0138A1002108FB00E8290310FB0CD8
:1003D000701CEB29EC29ED29FB1701308312031364
:1003E000A000730DF30CF20CF10CF00CA00BF12932
:1003F0000130A0002008FA07B52A7308803AFF00F0
:100400007708803A7F02031D0F2A76087202031DC7
:100410000F2A75087102031D0F2A74087002031851
:10042000122A132A6D2AFF3083120313A000FF3013
:10043000A100FF30A200FF30A3007408A4007508DB
:10044000A5007608A6007708A7007008A402710826
:10045000031C710F2C2A2D2AA5027208031C720F8F
:10046000322A332AA6027308031C730F382A392A4A
:10047000A7022408A00725080318250F402A412AAF
:10048000A10726080318260F462A472AA20727088D
:100490000318270AA3072308F3002208F200210803
:1004A000F1002008F0008030A0002008F806FB09C9
:1004B000FB0A7B08031D5D2A5E2A7B2A0130F007B8
:1004C000003003180130F107003003180130F20743
:1004D000003003180130F3077B2A7408F002750816
:1004E000031C750FF1027608031C760FF2027708E1
:1004F000031C770FF3027308720471047004031D68
:10050000822A832AB12A7B08031D872A882AB12AD6
:100510000030F3000030F2000030F1000030F00055
:10052000352B013083120313A0000310F00DF10DE1
:10053000F20DF30DA00B952AFB1F9F2AA02AA12ADA
:1005400070147B1CA42AA52AA82A0314FB0DAA2A2E
:100550000310FB0D7A080319AE2AAF2AB12A013025
:10056000FA02F21FB42AB52A912AF901FB1FB92A0F
:10057000BA2AC82A7B087F390319BF2AC02AC32A8E
:10058000F901F90AC82A701CC62AC72AC82AC02A33
:1005900079080319CC2ACD2A032B0130F00700304B
:1005A00003180130F107003003180130F207003062
:1005B00003180130F307731CDE2ADF2A032B7008AF
:1005C00083120313A0007108A1007208A20073082F
:1005D000A3000130A400230DA30CA20CA10CA00CBD
:1005E000A40BEB2A2308F3002208F2002108F100F3
:1005F0002008F0007A0A0319FE2AFF2A032B013093
:10060000A0002008FA077A0A0319072B082B0D2BE4
:100610007A08031D0C2B0D2B1B2B0030F300003030
:10062000F2000030F1000030F0007A08031D192BB1
:100630001A2B1B2BF8017A1C1E2B1F2B212BF217B8
:10064000272B7F3083120313A0002008F2057A08BD
:1006500083120313A0000310200CA1002108F30053
:10066000F81F332B342B352BF3170800A0308400F0
:100670001C30FF0083138001840AFF0B3A2B831682
:100680000313EE01EF01831603136F08803AFF0096
:1006900080307F02031D4E2B04306E020318512B55
:1006A000522B8C2B831603136E080A168A113827D7
:1006B0000A128A11700883120313E0007108E10026
:1006C000E201E3016308F8006208F7006108F60040
:1006D0006008F50000300A128A152C210A128A11CE
:1006E000831603136E0883120313E4000130031012
:1006F000E40DFF3E031D772B0310640DA03E840024
:10070000750883138000840A76088000840A7708BD
:100710008000840A78088000831603136F08803AEB
:10072000FF0080307F02031D972B04306E02031CF4
:100730009A2B9B2BD62B831603136E08013E0A16A9
:100740008A1138270A128A11700883120313E000F5
:100750007108E100E201E3016308F8006208F700B4
:100760006108F6006008F50000300A128A152C2195
:100770000A128A11831603136E0883120313E4000E
:1007800001300310E40DFF3E031DC12B0310640D67
:10079000A03E8400750883138000840A76088000D8
:1007A000840A77088000840A780880000130831664
:1007B0000313EE070318EF0A0030EF076F08803AC3
:1007C000FF0080307F02031DE72B07306E02031C01
:1007D000EA2BEB2B432B83160313EE01EF01831659
:1007E00003136708F3006608F2006508F100640867
:1007F000F0006E0883120313E00001300310E00DD7
:10080000FF3E031DFE2B0310600DA03E84008313EA
:100810000008F400840A0008F500840A0008F600C5
:10082000840A0008F7000A128A158A200A128A111F
:1008300003181B2C1C2C3E2C831603136E088312EA
:100840000313E00001300310E00DFF3E031D232CD5
:100850000310600DA03E8400831300088316031369
:10086000E400840A0008E500840A0008E600840A1F
:100870000008E7006F08ED006E08EC0001308316F9
:100880000313EE070318EF0A0030EF076F08803AF2
:10089000FF0080307F02031D4F2C07306E02031CC7
:1008A000522C532CEF2B831603136C088312031363
:1008B000E00001300310E00DFF3E031D5A2C031031
:1008C000600DFC3EA03E84008313000883160313D2
:1008D000DC00840A0008DD00840A0008DE00840AC7
:1008E0000008DF006C0883120313E00001300310DE
:1008F000E00DFF3E031D772C0310600D043EA03E6B
:100900008400000883160313D800840A0008D90065
:10091000840A0008DA00840A0008DB005B08F300A0
:100920005A08F2005908F1005808F0005F08F70073
:100930005E08F6005D08F5005C08F4000A128A11F2
:100940009E200A128A11730883160313C7007208C7
:10095000C6007108C5007008C4004030831203133C
:10096000AB000030AA000030A9000030A8008316B8
:100970000313670883120313AF008316031366087B
:1009800083120313AE008316031365088312031347
:10099000AD0083160313640883120313AC000A121C
:1009A0008A159F240A128A11831203132B08C5008B
:1009B0002A08C4002908C3002808C20083160313AC
:1009C000470883120313C9008316031346088312D2
:1009D0000313C80083160313450883120313C700CB
:1009E00083160313440883120313C6000A168A11E0
:1009F000C8260A128A1183120313450883160313AB
:100A0000CB0083120313440883160313CA00831216
:100A10000313430883160313C90083120313420808
:100A200083160313C8003F3083120313AB0000305A
:100A3000AA000030A9000030A800831603134B0859
:100A400083120313AF00831603134A0883120313A0
:100A5000AE0083160313490883120313AD008316F7
:100A60000313480883120313AC000A128A159F244B
:100A70000A128A11831203132B0883160313EB0047
:100A8000831203132A0883160313EA008312031345
:100A9000290883160313E900831203132808831619
:100AA0000313E800403083120313AB000030AA00A8
:100AB0000030A9000030A800831603136B088312CE
:100AC0000313AF00831603136A0883120313AE00E7
:100AD00083160313690883120313AD0083160313EF
:100AE000680883120313AC000A128A159F240A12A5
:100AF0008A11831203132B0883160313CF0083126A
:100B000003132A0883160313CE0083120313290844
:100B100083160313CD0083120313280883160313CF
:100B2000CC005F0883120313C500831603135E080D
:100B300083120313C400831603135D088312031387
:100B4000C300831603135C0883120313C2008316C9
:100B50000313670883120313C9008316031366087F
:100B600083120313C800831603136508831203134B
:100B7000C70083160313640883120313C6000A1602
:100B80008A11C8260A128A11831203134508831694
:100B90000313D30083120313440883160313D200F4
:100BA00083120313430883160313D1008312031324
:100BB000420883160313D0006C08FF3EF5006D0851
:100BC0000318013EFF3EF600F701F61BF703770816
:100BD000F80001300A128A152C210A128A117808AD
:100BE00083120313AB007708AA007608A9007508E2
:100BF000A800831603134F0883120313AF00831654
:100C000003134E0883120313AE00831603134D081B
:100C100083120313AD00831603134C0883120313CE
:100C2000AC000A128A159F240A128A118312031338
:100C30002B08C5002A08C4002908C3002808C200E0
:100C400083160313530883120313C9008316031377
:100C5000520883120313C80083160313510883122A
:100C60000313C70083160313500883120313C6002F
:100C70000A168A11C8260A128A118312031345081C
:100C800083160313D7008312031344088316031338
:100C9000D60083120313430883160313D50083126F
:100CA0000313420883160313D4006B088312031343
:100CB000C500831603136A0883120313C400831646
:100CC0000313690883120313C30083160313680810
:100CD00083120313C20083160313570883120313EE
:100CE000C90083160313560883120313C800831622
:100CF0000313550883120313C70083160313540804
:100D000083120313C6000A168A11C8260A128A1112
:100D100083120313450883160313BF0083120313C2
:100D2000440883160313BE0083120313430883167B
:100D30000313BD0083120313420883160313BC0080
:100D40006B0883120313AF00831603136A08831220
:100D50000313AE0083160313690883120313AD0057
:100D600083160313680883120313AC004030AB00F2
:100D70000030AA000030A9000030A8000A128A152D
:100D80009F240A128A11831203132B08C5002A0814
:100D9000C4002908C3002808C200831603133F08B3
:100DA000F3003E08F2003D08F1003C08F0000A168E
:100DB0008A11A7260A128A11730883120313C90025
:100DC0007208C8007108C7007008C6000A128A15A8
:100DD000C2220A128A1183120313450883160313D1
:100DE000C30083120313440883160313C200831243
:100DF0000313430883160313C1008312031342082D
:100E000083160313C000413083120313AB008830F4
:100E1000AA000030A9000030A800C030F300403024
:100E2000F2000030F1000030F00083160313430895
:100E3000F7004208F6004108F5004008F4000A12E5
:100E40008A119E200A128A11730883120313AF00BD
:100E50007208AE007108AD007008AC000A128A1565
:100E60009F240A128A11831203132B08831603137B
:100E7000E300831203132A0883160313E20083128C
:100E80000313290883160313E100831203132808B0
:100E900083160313E000EE01EF0113300A168A11E6
:100EA000EC260A128A11831603136E080A128A1599
:100EB00004200A128A110C300A168A11EC260A1232
:100EC0008A11831603136E0883120313E0000130A6
:100ED0000310E00DFF3E031D682F0310600DA03EC0
:100EE000840083130008F000840A0008F100840ADB
:100EF0000008F200840A0008F3000A128A15102084
:100F00000A128A1170080A128A1504200A128A111C
:100F1000EA3083120313E100C230E000E00B8E2FB1
:100F2000E10B8E2F000010300A168A11EC260A12EF
:100F30008A11013083160313EE070318EF0A0030FD
:100F4000EF076F08803AFF0080307F02031DAA2F51
:100F500007306E02031CAD2FAE2F4D2F01300A1645
:100F60008A11EC260A128A11831603136308F30010
:100F70006208F2006108F1006008F0000A128A15A8
:100F800010200A128A1170080A128A1504200A1207
:100F90008A11EA3083120313E100C230E000E00B53
:100FA000CF2FE10BCF2F000010300A168A11EC264C
:100FB0000A128A1183160313630883120313DF00D6
:100FC00083160313620883120313DE0083160313D0
:100FD000610883120313DD00831603136008831274
:100FE0000313DC000800831790308400AC300A162D
:100FF0008A118D260A128A1183010A128A11172872
:10100800F00083160313981C0A280B28052870087B
:1010180083120313990008000310720D730DF40076
:101028007408FA007A08031D1A281B28242800309F
:10103800F3000030F2000030F1000030F0008928A1
:101048007008F4007108F5007208F6007308F700DC
:101058001F300310F70CF60CF50CF40CFF3E031DC3
:101068002D287408F8007808F900F217FF30F00509
:10107800FF30F105FF30F2050030F3059630FA0233
:10108800FA1F4728482862287A08803A973E0318AA
:101098004E284F2850281B2801300310F30CF20C5F
:1010A800F10CF00CFF3E031D51280130F4007408C8
:1010B800FA07031D602861285028792820307A0211
:1010C800031C6728682874281B280130F4000310C3
:1010D800F00DF10DF20DF30DF40B6B280130FA024F
:1010E8007A08031D782879286928790803197D2842
:1010F8007E288928F009F109F209F309F00A031991
:10110800F10A0319F20A0319F30A080000307005FE
:10111800F80000307105F90080307205FA007F3060
:101128007305FB007B087A0479047804031D9D2865
:101138009E28A6280030F3000030F2000030F100AD
:101148000030F00000307405F80000307505F90033
:1011580080307605FA007F307705FB007B087A043B
:1011680079047804031DB928BA28C2280030F7008A
:101178000030F6000030F5000030F400F31FC528F9
:10118800C628EA280030F8000030F9000030FA00DC
:101198008030FB007008F8027108031C710FD52815
:1011A800D628F9027208031C720FDB28DC28FA0221
:1011B8007308031C730FE128E228FB027B08F30085
:1011C8007A08F2007908F1007808F000F71FED2896
:1011D800EE2812290030F8000030F9000030FA003B
:1011E8008030FB007408F8027508031C750FFD2891
:1011F800FE28F9027608031C760F03290429FA024F
:101208007708031C770F09290A29FB027B08F700D6
:101218007A08F6007908F5007808F4008030F306BB
:101228008030F70677087302031D242976087202B6
:10123800031D242975087102031D242974087002EE
:101248000318272928292A2903102B290314080001
:1012580083120313A00020080319332934294829CD
:10126800F81F3729382948297509A2007609A300EB
:101278007709A4007809A500A20A0319A30A03198B
:10128800A40A0319A50A50297808A5007708A4001C
:101298007608A3007508A200780877047604750418
:1012A800031D5729582961290030F8000030F7003C
:1012B8000030F6000030F500E7299630F90079088B
:1012C800A10073290130F9007908A1070130031042
:1012D800A50CA40CA30CA20CFF3E031D6B29FE3029
:1012E8002505031D78297929662995290130F900F2
:1012F8007908A1070130A207003003180130A307BD
:10130800003003180130A407003003180130A50786
:1013180001300310A50CA40CA30CA20CFF3E031D66
:101328008D29FF302505031D9A299B297A29A7298C
:101338000130A1020130F9000310A20DA30DA40D84
:10134800A50DF90BA029A41BAA29AB29B1290230A4
:1013580021020318B029B1299C292118B429B529DB
:10136800BD29FF30A205FF30A3057F30A405FF305B
:10137800A5050310A10C2108F900FA01FB01FC01E5
:1013880018300310F90DFA0DFB0DFC0DFF3E031D7F
:10139800C5297908A2047A08A3047B08A4047C0858
:1013A800A50420080319D929DA29DF29F81FDD291E
:1013B800DE29DF29A5172508F8002408F7002308E7
:1013C800F6002208F5000800831203132608AA0075
:1013D8002708AB002808AC002908AD000630031028
:1013E800AA0DAB0DAC0DAD0DFF3E031DF3292D0865
:1013F800F3002C08F2002B08F1002A08F000260858
:10140800AE002708AF002808B0002908B100063050
:101418000310AE0DAF0DB00DB10DFF3E031D0C2A2C
:101428000030B2001230B3007A30B4000030B5009A
:101438002E08B2022F08031C2F0F232A242AB302D6
:101448003008031C300F292A2A2AB4023108031C49
:10145800310F2F2A302AB5023508F7003408F60074
:101468003308F5003208F4000A168A1163270A12B5
:101478008A157108FA007008F90001307A02003004
:1014880003197902031C492A4A2AA62A831203133C
:101498002608AA002708AB002808AC002908AD00D8
:1014A80004300310AA0DAB0DAC0DAD0DFF3E031DAE
:1014B800552A2D08F3002C08F2002B08F1002A0801
:1014C800F0002608AE002708AF002808B000290859
:1014D800B10004300310AE0DAF0DB00DB10DFF3EDD
:1014E800031D6E2A0030B2001230B3007A30B40007
:1014F8000030B5002E08B2022F08031C2F0F852AD2
:10150800862AB3023008031C300F8B2A8C2AB402B7
:101518003108031C310F912A922AB5023508F700C9
:101528003408F6003308F5003208F4000A168A1168
:1015380063270A128A157108FA007008F9008316E1
:101548000313181501307A020030031979020318C1
:10155800AE2AAF2AC12A79088316031399001812F4
:101568008312031398178316031387170717831219
:10157800031318168316031398160800831203130F
:1015880049088039CA004A08D3004908CA004A07EE
:10159800CB004B08DA00C81FD22AD32AD42A5A14FF
:1015A8005A080319D82AD92AE92A5A0A031DDD2A12
:1015B800DE2AE62A0030C9000030C8000030C70023
:1015C8000030C600C817C901F12A0030C900003030
:1015D800C8000030C7000030C60045088039CA007E
:1015E8004A08D3064508CA004A07CB004B08DB0067
:1015F800C41FFF2A002B012B5B145B080319052B62
:10160800062B162B5B0A031D0A2B0B2B132B003002
:10161800C5000030C4000030C3000030C200C41749
:10162800C5011E2B0030C5000030C4000030C300C7
:101638000030C2004508440443044204031D252B1E
:10164800262B3F2B0030C9000030C8000030C700EF
:101658000030C6008030C8047F30C9045308CA006F
:101668004A08C9044908C5004808C4004708C30017
:101678004608C2009E2C5A08031D432B442B4D2BB1
:101688000030C5000030C4000030C3000030C20084
:101698009E2C5A08CA00CB014B08CD005B084A02B1
:1016A800CC00031CCD034C087F3ED4004D08031822
:1016B800013E003ED5004908D2004808D10047083D
:1016C800D0004608CF000030C9000030C800003004
:1016D800C7000030C6000030D9000030D800003004
:1016E800D7000030D600DB01C32B5B0803197D2B24
:1016F8007E2B9E2B0130CA000310CF0DD00DD10DCB
:10170800D20DCA0B802B0130CA000310C60DC70DBD
:10171800C80DC90DCA0B892BD91F932B942B952B58
:1017280046140130CA000310D60DD70DD80DD90DB7
:10173800CA0B972B45085202031DAC2B44085102D3
:10174800031DAC2B43085002031DAC2B42084F026B
:10175800031CAF2BB02BBF2B59174208CF024308ED
:10176800031C430FD0024408031C440FD102450850
:10177800031C450FD2020130CA004A08DB071A30A1
:101788005B02031CC82BC92B792B52085104500447
:101798004F040319D02BD12BF02B5614F02B01300A
:1017A800CA000310C60DC70DC80DC90DCA0BD52B2D
:1017B800D91FDF2BE02BE12B46140130CA000310A0
:1017C800D60DD70DD80DD90DCA0BE32BFF30D40792
:1017D8000318D50AFF30D507C81FF32BF42BD32BDA
:1017E800DB01D91FF82BF92B152CFF305605CA0041
:1017F800FF305705CB00FF305805CC007F30590526
:10180800CD004D084C044B044A0403190C2C0D2C34
:10181800102CDB01DB0A152C461C132C142C152C60
:101828000D2C5B080319192C1A2C4B2C0130C607F8
:10183800003003180130C707003003180130C8070B
:10184800003003180130C907491C2B2C2C2C4B2CB9
:101858004608CA004708CB004808CC004908CD0014
:101868000130CE004D0DCD0CCC0CCB0CCA0CCE0BE0
:10187800362C4D08C9004C08C8004B08C7004A0858
:10188800C6000130D4070318D50A0030D50755081B
:10189800803AFF0080307F02031D542CFF30540231
:1018A800031C572C582C662CFF3083120313D400CA
:1018B8000030D5000030C9000030C8000030C70033
:1018C8000030C600831203135508803AFF008030A9
:1018D8007F02031D712C013054020318742C752CDF
:1018E800822C83120313D401D5010030C9000030C3
:1018F800C8000030C7000030C600D30183120313AC
:101908005408CA004A08DA005A1C8B2C8C2C8E2CDE
:10191800C817922C7F30CA004A08C8055A08CA005E
:1019280003104A0CCB004B08C9005308CA004A08E8
:10193800C904362B0800831203132B088039B00022
:101948003008B5002B08B0003007B1003108BB00E3
:10195800AA1FAF2CB02CB12C3B143B080319B52C93
:10196800B62CC52C3B0A031DBA2CBB2CC32C00304B
:10197800AB000030AA000030A9000030A800AA1768
:10198800CD2C0030AB000030AA000030A900003098
:10199800A8002F088039B0003008B5062F08B0001D
:1019A8003007B1003108BA00AE1FDB2CDC2CDD2C6F
:1019B8003A143A080319E12CE22CF12C3A0A031DD7
:1019C800E62CE72CEF2C0030AF000030AE000030E2
:1019D800AD000030AC00AE17F92C0030AF0000307D
:1019E800AE000030AD000030AC003A080319FD2C01
:1019F800FE2C032D3B08031D022D032D0C2D00305A
:101A0800AB000030AA000030A9000030A800FF2F6A
:101A18002808B0003008F0002E080A168A1111278D
:101A28000A128A15710883120313C1007008C000D6
:101A38004008B000B101B201B3013308B90032085F
:101A4800B8003108B7003008B6004108B000B1014D
:101A5800B201B3013308BF003208BE003108BD002F
:101A68003008BC002908B0003008F0002D080A161C
:101A78008A1111270A128A15710883120313C100EB
:101A88007008C0004008B000B101B201B3013008CD
:101A9800B607310803110318013E0319542DB7077F
:101AA800320803110318013E03195B2DB8073308E8
:101AB80003110318013E0319622DB9074108B0004C
:101AC800B101B201B3013008BC0731080311031892
:101AD800013E0319702DBD07320803110318013E9A
:101AE8000319772DBE07330803110318013E0319A4
:101AF8007E2DBF072A08B0003008F0002C080A160F
:101B08008A1111270A128A15710883120313C1005A
:101B18007008C0004008B000B101B201B30130083C
:101B2800B607310803110318013E03199C2DB707A6
:101B3800320803110318013E0319A32DB80733080F
:101B480003110318013E0319AA2DB9074108B00073
:101B5800B101B201B3013008BC0731080311031801
:101B6800013E0319B82DBD07320803110318013EC1
:101B78000319BF2DBE07330803110318013E0319CB
:101B8800C62DBF070830B0000310B60DB70DB80D4D
:101B9800B90DB00BC82D2908B0003008F0002C088A
:101BA8000A168A1111270A128A157108831203135B
:101BB800C1007008C0004008B0004108B100B2017F
:101BC800B3013008B607310803110318013E0319A1
:101BD800EE2DB707320803110318013E0319F52D3E
:101BE800B807330803110318013E0319FC2DB90780
:101BF8002808B0003008F0002D080A168A111127AD
:101C08000A128A15710883120313C1007008C000F4
:101C18004008B0004108B100B201B3013008B6076E
:101C2800310803110318013E03191B2EB7073208A8
:101C380003110318013E0319222EB80733080311B4
:101C48000318013E0319292EB9070830B000031004
:101C5800B60DB70DB80DB90DB00B2B2E2808B00076
:101C68003008F0002C080A168A1111270A128A1562
:101C7800710883120313C1007008C0004008B00047
:101C88004108B100B201B3013008B60731080311A9
:101C98000318013E0319512EB70732080311031820
:101CA800013E0319582EB807330803110318013EE3
:101CB80003195F2EB9072908B0003008F0002E0874
:101CC8000A168A1111270A128A157108831203133A
:101CD800C1007008C0004008B0004108B100B2015E
:101CE800B3013008BC07310803110318013E03197A
:101CF8007E2EBD07320803110318013E0319852EF5
:101D0800BE07330803110318013E03198C2EBF07C1
:101D18002A08B0003008F0002D080A168A11112789
:101D28000A128A15710883120313C1007008C000D3
:101D38004008B0004108B100B201B3013008BC0747
:101D4800310803110318013E0319AB2EBD073208F1
:101D580003110318013E0319B22EBE0733080311FD
:101D68000318013E0319B92EBF072A08B00030082E
:101D7800F0002E080A168A1111270A128A1571080E
:101D880083120313C1007008C0004008B000410866
:101D9800B100B201B30108300310B00DB10DB20D9E
:101DA800B30DFF3E031DD02E3008BC0731080311C8
:101DB8000318013E0319E12EBD0732080311031869
:101DC800013E0319E82EBE07330803110318013E2C
:101DD8000319EF2EBF073608B0003708B1003808DE
:101DE800B2003908B30018300310B30CB20CB10CB0
:101DF800B00CFF3E031DF82E3008BC073108031154
:101E08000318013E0319092FBD07320803110318EF
:101E1800013E0319102FBE07330803110318013EB2
:101E28000319172FBF070830B0000310B60DB70D00
:101E3800B80DB90DB00B192F3B083A07B000B10126
:101E4800B10D3008823EC00031080318013EFF3E44
:101E5800C1004B2F0130B0000310BC0DBD0DBE0DED
:101E6800BF0DB00B302FB91F3A2F3B2F3C2F3C141E
:101E78000130B0000310B60DB70DB80DB90DB00B99
:101E88003E2FFF30C0070318C10AFF30C107BE1F2D
:101E98004E2F4F2F2E2FBA01B91F532F542F702FAB
:101EA800FF303605B000FF303705B100FF30380588
:101EB800B2007F303905B3003308320431043004EE
:101EC8000319672F682F6B2FBA01BA0A702F3C1CB1
:101ED8006E2F6F2F702F682F3A080319742F752FE4
:101EE800A62F0130BC07003003180130BD070030B1
:101EF80003180130BE07003003180130BF073F1C2C
:101F0800862F872FA62F3C08B0003D08B1003E0859
:101F1800B2003F08B3000130B400330DB30CB20C6B
:101F2800B10CB00CB40B912F3308BF003208BE00BF
:101F38003108BD003008BC000130C0070318C10AD1
:101F48000030C1074108803AFF0080307F02031D3E
:101F5800AF2FFF304002031CB22FB32FBE2F7F30AC
:101F680083120313BF008030BE000030BD00003074
:101F7800BC00F32F831203134108803AFF0080301E
:101F88007F02031DC92F013040020318CC2FCD2F2B
:101F9800D92F003083120313BF000030BE00003079
:101FA800BD000030BC00B501F32F831203134008B5
:101FB800B0003008BB00FF30BC05FF30BD057F30E6
:101FC800BE050030BF053B1CEA2FEB2FEC2FBE17D8
:101FD8003B08B0000310300CB1003108BF003508D1
:101FE800B0003008BF043F08AB003E08AA003D0817
:101FF800A9003C08A800080010308A000408840AD8
:10200800820700344B3468346F3461346E3467347B
:102018002034633461346334683420343D342034EC
:0E20280000340A340D340034433442340034A2
:102D0C0083160313141C8B2E8C2E862E0800640045
:102D1C008001840A04060319003404068E2E413007
:102D2C00831203139F00C030831603139F00080007
:102D3C000A168A1186260A168A118312031313089F
:102D4C00080073087204710470040319AE2EAF2EC0
:102D5C00B12E8030F3060800F3008316031387129C
:102D6C00731DB92EBA2EBE2E720894008715C22E72
:102D7C007008720494008711730871048312031392
:102D8C0094000800803083120313C5064908F30031
:102D9C004808F2004708F1004608F0004508F70023
:102DAC004408F6004308F5004208F4000A128A11A0
:102DBC009E200A168A11730883120313C500720829
:102DCC00C4007108C3007008C2000800F300F101D0
:102DDC00F201032F7108730784000A168A11002070
:102DEC000A168A110A128A1504200A168A11013051
:102DFC00F1070318F20A0030F20771087307840018
:102E0C000A168A1100200A168A11003A031D0F2F88
:102E1C00102FF02E0800F800F401F5017008F200F4
:102E2C00F3017208F6007308F700781C1E2F1F2F91
:102E3C00252F7608F4070318F50A7708F5070130F3
:102E4C000310F60DF70DFF3E031D262F0310F80C93
:102E5C007808031D322F332F1B2F7508F1007408CF
:102E6C00F0000800F4000130F20072088312031322
:102E7C009F057408F20002300310F20DFF3E031D93
:102E8C00422F0310720DF30073089F040630F300F9
:102E9C003030F200F20B502FF30B502F0000831246
:102EAC0003131F151F195B2F5C2F582F1E08F100E1
:102EBC00831603131E08F000080083120313A101EC
:102ECC00F31F692F6A2F772FF009F109F209F30923
:102EDC00F00A0319F10A0319F20A0319F30AA10102
:102EEC00A10AF71F7A2F7B2F8A2FF409F509F6090F
:102EFC00F709F40A0319F50A0319F60A0319F70A74
:102F0C000130F8007808A1060030A5000030A400BC
:102F1C000030A3000030A200730872047104700426
:102F2C000319992F9A2FE72FA001A00AAA2F01307D
:102F3C00F8000310F00DF10DF20DF30DF80B9F2FAF
:102F4C000130F8007808A007F31FAD2FAE2F9D2F8E
:102F5C000130F8000310A20DA30DA40DA50DF80B64
:102F6C00B02F73087702031DC52F72087602031D5C
:102F7C00C52F71087502031DC52F70087402031C40
:102F8C00C82FC92FD82F7008F4027108031C710FB9
:102F9C00F5027208031C720FF6027308031C730F00
:102FAC00F702221401300310F30CF20CF10CF00CAC
:102FBC00FF3E031DD92F0130A002031DE62FE72F82
:102FCC00AE2F21080319EB2FEC2FF72FA209A30921
:102FDC00A409A509A20A0319A30A0319A40A03192F
:102FEC00A50A2508F3002408F2002308F1002208A2
:042FFC00F0000800D9
:02400E00393F38
:00000001FF
