:100000000A128A11EE2FF00083160313981C092898
:100010000A28042870088312031399000800F300CB
:10002000831603138712731D162817281B287208BE
:10003000940087151F2870087204940087117308B4
:1000400071048312031394000800F501F60170088F
:10005000710403192C282D286428F701F70A3B287E
:1000600001300310F00DF10DFF3E031D312801306A
:10007000F4007408F707F11F3E283F2830280130AC
:100080000310F50DF60DFF3E031D402871087302A5
:10009000031D4C2870087202031C4F285028572853
:1000A0007008F2027108031CF303F30275140130A7
:1000B0000310F10CF00CFF3E031D58280130F7022D
:1000C000031D632864283F287608F1007508F000B6
:1000D0000800233083120313B1003108B40045290E
:1000E0002530390603197528762886283908B10085
:1000F000200884008317211C8313310880000130FD
:10010000A0070318A10A0030A1074529B501013055
:10011000A207FF30220784000A168A1100200A1263
:100120008A11B900B100B2013208003A03199928C6
:1001300045293108003A03195729643A0319A428BC
:100140000D3A0319A42845293408840083130008B4
:10015000B700840A0008B8000230B1003108B407C3
:10016000B81FB328B428BD280330B1003108B50446
:10017000B709B809B70A0319B80AB901B90A3908A1
:10018000B1003107013E84000A168A1100200A12CC
:100190008A11B2000A168A1100200A128A11B300CD
:1001A00033083802031DD628320837020318D9282D
:1001B000DA28DB28E5280130B1003108B90705301D
:1001C0003906031DE428E528BF283508033903193B
:1001D000EA28EB28FA282D30B10020088400831784
:1001E000211C8313310880000130A0070318A10AE5
:1001F0000030A1073908B1003108B6003C290A30A7
:10020000F8000030F9003608B1003107013E8400E3
:100210000A168A1100200A128A11F0000A168A11A1
:1002200000200A128A11F1003808F3003708F200A2
:100230000A128A1125200A128A117108FB0070081F
:10024000FA000A168A11C6270A128A117808303E67
:1002500083120313B2003208B9003908B100200834
:1002600084008317211C8313310880000130A0070C
:100270000318A10A0030A107FF30B1003108B6070A
:10028000360A031D44294529FF280130A207FF3003
:10029000220784000A168A1100200A128A11B1006E
:1002A0003108B9003908031D56295729702820083C
:1002B00084008317211C831380010800D33084003D
:1002C000E83083120313E0000408E1000730E20085
:1002D0006008840083170008E300E00A61088400D6
:1002E00063088000E10AE20B682983160317E50121
:1002F000E601E701831603176608D33E84008317DF
:100300000008650203188529862995296608D33EC9
:100310008400000883120313E000600883160317AB
:10032000E5006708E4006608E3000130E60703180B
:10033000E70A0030E7076708803AFF0080307F0255
:10034000031DA42907306602031CA729A8297A29BE
:10035000831603176308FF3ED33E8400831700080B
:1003600083120313E000600883160317DE0063089E
:10037000013ED33E8400000883120313E0006008AE
:1003800083160317D2003F3083120313AB000030F3
:10039000AA000030A9000030A800831603176508E2
:1003A00083120313E000E1010310E00DE10D831659
:1003B00003175E08520783120313E200E301E30D03
:1003C00060086202F0006108031C610A6302F10028
:1003D000F201F11BF2037208F30001300A128A15D0
:1003E00019210A128A11730883120313AF007208CD
:1003F000AE007108AD007008AC000A128A118D249D
:100400000A128A11831203132B0883160317E200C2
:10041000831203132A0883160317E10083120313C0
:10042000290883160317E000831203132808831694
:100430000317DF00620883120313AF00831603174C
:10044000610883120313AE0083160317600883123A
:100450000313AD00831603175F0883120313AC0068
:100460004030AB000030AA000030A9000030A800E6
:100470000A128A118D240A128A11831203132B087F
:1004800083160317CD00831203132A08831603175C
:10049000CC0083120313290883160317CB008312A1
:1004A0000313280883160317CA004D088312031389
:1004B000AF00831603174C0883120313AE00831694
:1004C00003174B0883120313AD00831603174A0862
:1004D00083120313AC00831603176308FF3EF0007A
:1004E00064080318013EFF3EF100F201F11BF20324
:1004F0007208F30001300A128A1519210A128A11B2
:10050000730883120313AB007208AA007108A900D4
:100510007008A8000A128A118D240A128A11831207
:1005200003132B08C5002A08C4002908C3002808A3
:10053000C200831603175E086502F000F101031C78
:10054000F103F201F11BF2037208F30001300A1209
:100550008A1519210A128A11730883120313C9001C
:100560007208C8007108C7007008C6000A168A1110
:1005700044270A128A1183120313450883160317AE
:10058000D10083120313440883160317D00083128B
:100590000313430883160317CF0083120313420883
:1005A00083160317CE00620883120313C500831657
:1005B0000317610883120313C4008316031760082E
:1005C00083120313C300831603175F0883120313F8
:1005D000C20083160317510883120313C900831640
:1005E0000317500883120313C800831603174F081C
:1005F00083120313C700831603174E0883120313D5
:10060000C6000A168A1144270A128A11831203139C
:10061000450883160317C500831203134408831685
:100620000317C40083120313430883160317C30080
:1006300083120313420883160317C2006208831251
:100640000313AF0083160317610883120313AE0070
:1006500083160317600883120313AD008316031774
:100660005F0883120313AC004030AB000030AA00D7
:100670000030A9000030A8000A128A118D240A1245
:100680008A11831203132B08C5002A08C400290805
:10069000C3002808C200831603174508F300440866
:1006A000F2004308F1004208F0000A168A112627DA
:1006B0000A128A11730883120313C9007208C80052
:1006C0007108C7007008C6000A128A158B230A1227
:1006D0008A1183120313450883160317C900831276
:1006E0000313440883160317C80083120313430837
:1006F00083160317C70083120313420883160317D8
:10070000C600413083120313AB008830AA000030CA
:10071000A9000030A800C030F3004030F2000030E3
:10072000F1000030F000831603174908F70048086D
:10073000F6004708F5004608F4000A128A156825F5
:100740000A128A11730883120313AF007208AE00F5
:100750007108AD007008AC000A128A118D240A12CB
:100760008A11831203132B0883160317DD008312EB
:1007700003132A0883160317DC00831203132908C6
:1007800083160317DB00831203132808831603174D
:10079000DA00903083120313A0000130A1000B3067
:1007A000E0006008A20083160317530883120313A6
:1007B000E100E2016108A3006208A40083160317A8
:1007C000540883120313E300E4016308A5006408DE
:1007D000A60083160317550883120313E500E601EC
:1007E0006508A7006608A800831603175608831239
:1007F0000313E700E8016708A9006808AA00831648
:100800000317570883120313E900EA016908AB00D4
:100810006A08AC0083160317580883120313EB0011
:10082000EC016B08AD006C08AE0083160317590885
:1008300083120313ED00EE016D08AF006E08B000E7
:100840000A128A1169200A128A119030F1000130CF
:10085000F2000A168A118F270A128A11EA308312CF
:100860000313E100C230E000E00B342CE10B342C28
:100870000000903083120313A0000130A10031303A
:10088000E0006008A200831603175D0883120313BB
:10089000A600831603175C0883120313A5008316B2
:1008A00003175B0883120313A400831603175A0867
:1008B00083120313A3000A128A1169200A128A11F3
:1008C0009030F1000130F2000A168A118F270A12C7
:1008D0008A11EA3083120313E100C230E000E00B1A
:1008E0006F2CE10B6F2C0000831603175D08831239
:1008F0000313DF00831603175C0883120313DE0063
:10090000831603175B0883120313DD008316031796
:100910005A0883120313DC000800831203132B0808
:100920008039B0003008B5002B08B0003007B100A6
:100930003108BB00AA1F9D2C9E2C9F2C3B143B080A
:100940000319A32CA42CB32C3B0A031DA82CA92CFF
:10095000B12C0030AB000030AA000030A9000030FC
:10096000A800AA17BB2C0030AB000030AA00003052
:10097000A9000030A8002F088039B0003008B50663
:100980002F08B0003007B1003108BA00AE1FC92CE3
:10099000CA2CCB2C3A143A080319CF2CD02CDF2CBC
:1009A0003A0A031DD42CD52CDD2C0030AF000030CA
:1009B000AE000030AD000030AC00AE17E72C0030C8
:1009C000AF000030AE000030AD000030AC003A089F
:1009D0000319EB2CEC2CF12C3B08031DF02CF12C13
:1009E000FA2C0030AB000030AA000030A900003023
:1009F000A800ED2F2808B0003008F0002E080A16D5
:100A00008A1168270A128A11710883120313C10020
:100A10007008C0004008B000B101B201B301330852
:100A2000B9003208B8003108B7003008B6004108F4
:100A3000B000B101B201B3013308BF003208BE00FB
:100A40003108BD003008BC002908B0003008F000B3
:100A50002D080A168A1168270A128A117108831252
:100A60000313C1007008C0004008B000B101B2011A
:100A7000B3013008B607310803110318013E03190A
:100A8000422DB707320803110318013E0319492DFF
:100A9000B807330803110318013E0319502DB90795
:100AA0004108B000B101B201B3013008BC07310800
:100AB00003110318013E03195E2DBD07320803110F
:100AC0000318013E0319652DBE07330803110318EF
:100AD000013E03196C2DBF072A08B0003008F00052
:100AE0002C080A168A1168270A128A1171088312C3
:100AF0000313C1007008C0004008B000B101B2018A
:100B0000B3013008B607310803110318013E031979
:100B10008A2DB707320803110318013E0319912DDE
:100B2000B807330803110318013E0319982DB907BC
:100B30004108B000B101B201B3013008BC0731086F
:100B400003110318013E0319A62DBD073208031136
:100B50000318013E0319AD2DBE0733080311031816
:100B6000013E0319B42DBF070830B0000310B60DC5
:100B7000B70DB80DB90DB00BB62D2908B00030086F
:100B8000F0002C080A168A1168270A128A117108C7
:100B900083120313C1007008C0004008B000410870
:100BA000B100B201B3013008B607310803110318D0
:100BB000013E0319DC2DB707320803110318013E6B
:100BC0000319E32DB807330803110318013E031975
:100BD000EA2DB9072808B0003008F0002D080A16E1
:100BE0008A1168270A128A11710883120313C1003F
:100BF0007008C0004008B0004108B100B201B30164
:100C00003008B607310803110318013E0319092EF5
:100C1000B707320803110318013E0319102EB80755
:100C2000330803110318013E0319172EB9070830C2
:100C3000B0000310B60DB70DB80DB90DB00B192EDD
:100C40002808B0003008F0002C080A168A1168271E
:100C50000A128A11710883120313C1007008C000C0
:100C60004008B0004108B100B201B3013008B60736
:100C7000310803110318013E03193F2EB70732084C
:100C800003110318013E0319462EB8073308031158
:100C90000318013E03194D2EB9072908B00030088A
:100CA000F0002E080A168A1168270A128A117108A4
:100CB00083120313C1007008C0004008B00041084F
:100CC000B100B201B3013008BC07310803110318A9
:100CD000013E03196C2EBD07320803110318013EB3
:100CE0000319732EBE07330803110318013E0319BD
:100CF0007A2EBF072A08B0003008F0002D080A1627
:100D00008A1168270A128A11710883120313C1001D
:100D10007008C0004008B0004108B100B201B30142
:100D20003008BC07310803110318013E0319992E3E
:100D3000BD07320803110318013E0319A02EBE0798
:100D4000330803110318013E0319A72EBF072A0811
:100D5000B0003008F0002E080A168A1168270A121F
:100D60008A11710883120313C1007008C000400883
:100D7000B0004108B100B201B30108300310B00D5A
:100D8000B10DB20DB30DFF3E031DBE2E3008BC07E2
:100D9000310803110318013E0319CF2EBD07320895
:100DA00003110318013E0319D62EBE0733080311A1
:100DB0000318013E0319DD2EBF073608B0003708BF
:100DC000B1003808B2003908B30018300310B30C72
:100DD000B20CB10CB00CFF3E031DE62E3008BC0770
:100DE000310803110318013E0319F72EBD0732081D
:100DF00003110318013E0319FE2EBE073308031129
:100E00000318013E0319052FBF070830B000031077
:100E1000B60DB70DB80DB90DB00B072F3B083A074B
:100E2000B000B101B10D3008823EC0003108031896
:100E3000013EFF3EC100392F0130B0000310BC0D50
:100E4000BD0DBE0DBF0DB00B1E2FB91F282F292FB2
:100E50002A2F3C140130B0000310B60DB70DB80DA9
:100E6000B90DB00B2C2FFF30C0070318C10AFF309B
:100E7000C107BE1F3C2F3D2F1C2FBA01B91F412FA8
:100E8000422F5E2FFF303605B000FF303705B1002E
:100E9000FF303805B2007F303905B3003308320423
:100EA000310430040319552F562F592FBA01BA0AAD
:100EB0005E2F3C1C5C2F5D2F5E2F562F3A080319C6
:100EC000622F632F942F0130BC07003003180130CC
:100ED000BD07003003180130BE0700300318013091
:100EE000BF073F1C742F752F942F3C08B0003D089E
:100EF000B1003E08B2003F08B3000130B400330D2A
:100F0000B30CB20CB10CB00CB40B7F2F3308BF0084
:100F10003208BE003108BD003008BC000130C007F7
:100F20000318C10A0030C1074108803AFF00803031
:100F30007F02031D9D2FFF304002031CA02FA12F15
:100F4000AC2F7F3083120313BF008030BE0000300F
:100F5000BD000030BC00E12F831203134108803A2A
:100F6000FF0080307F02031DB72F013040020318BD
:100F7000BA2FBB2FC72F003083120313BF000030DE
:100F8000BE000030BD000030BC00B501E12F83126F
:100F900003134008B0003008BB00FF30BC05FF3031
:100FA000BD057F30BE050030BF053B1CD82FD92FB3
:100FB000DA2FBE173B08B0000310300CB100310827
:100FC000BF003508B0003008BF043F08AB003E0842
:100FD000AA003D08A9003C08A80008008317EF30CC
:100FE000FD001730FE000D30FF00E83084000A16C7
:100FF0008A1135270A128A1183010A128A15AD2A2D
:10100000031083160313220D230DA4002408AA0045
:101010002A08031D0C280D2816280030A3000030D4
:10102000A2000030A1000030A0007B282008A4000E
:101030002108A5002208A6002308A7001F300310DE
:10104000A70CA60CA50CA40CFF3E031D1F2824080A
:10105000A8002808A900A217FF30A005FF30A105AD
:10106000FF30A2050030A3059630AA02AA1F392836
:101070003A2854282A08803A973E031840284128E5
:1010800042280D2801300310A30CA20CA10CA00CC7
:10109000FF3E031D43280130A4002408AA07031DB6
:1010A0005228532842286B2820302A02031C592832
:1010B0005A2866280D280130A4000310A00DA10DA8
:1010C000A20DA30DA40B5D280130AA022A08031D5E
:1010D0006A286B285B28290803196F2870287B2849
:1010E000A009A109A209A309A00A0319A10A0319C9
:1010F000A20A0319A30A080083120313A101F31F14
:10110000822883289028F009F109F209F309F00AEE
:101110000319F10A0319F20A0319F30AA101A10A3A
:10112000F71F93289428A328F409F509F609F7096D
:10113000F40A0319F50A0319F60A0319F70A01302C
:10114000F8007808A1060030A5000030A4000030A7
:10115000A3000030A2007308720471047004031924
:10116000B228B3280029A001A00AC3280130F80042
:101170000310F00DF10DF20DF30DF80BB82801304E
:10118000F8007808A007F31FC628C728B628013042
:10119000F8000310A20DA30DA40DA50DF80BC9288E
:1011A00073087702031DDE2872087602031DDE280D
:1011B00071087502031DDE2870087402031CE12803
:1011C000E228F1287008F4027108031C710FF5027F
:1011D0007208031C720FF6027308031C730FF702E8
:1011E000221401300310F30CF20CF10CF00CFF3E52
:1011F000031DF2280130A002031DFF280029C72883
:1012000021080319042905291029A209A309A40901
:10121000A509A20A0319A30A0319A40A0319A50A16
:101220002508F3002408F2002308F1002208F0004A
:101230000800F800780803191E291F293329F31F15
:101240002229232933297009FA007109FB00720948
:10125000FC007309FD00FA0A0319FB0A0319FC0AD2
:101260000319FD0A3B297308FD007208FC00710890
:10127000FB007008FA007308720471047004031D07
:10128000422943294C290030F3000030F20000309D
:10129000F1000030F000D2299630F4007408F90013
:1012A0005E290130F4007408F90701300310FD0CC9
:1012B000FC0CFB0CFA0CFF3E031D5629FE307D058D
:1012C000031D63296429512980290130F400740821
:1012D000F9070130FA07003003180130FB0700302E
:1012E00003180130FC07003003180130FD070130FE
:1012F0000310FD0CFC0CFB0CFA0CFF3E031D7829BF
:10130000FF307D05031D8529862965299229013035
:10131000F9020130F4000310FA0DFB0DFC0DFD0D78
:10132000F40B8B29FC1B952996299C290230790204
:1013300003189B299C29872979189F29A029A82966
:10134000FF30FA05FF30FB057F30FC05FF30FD055F
:101350000310F90C7908F400F501F601F7011830D3
:101360000310F40DF50DF60DF70DFF3E031DB0292A
:101370007408FA047508FB047608FC047708FD0479
:1013800078080319C429C529CA29F31FC829C929FE
:10139000CA29FD177D08F3007C08F2007B08F100E4
:1013A0007A08F0000800831203132608AA00270811
:1013B000AB002808AC002908AD0006300310AA0DC8
:1013C000AB0DAC0DAD0DFF3E031DDE292D08F30066
:1013D0002C08F2002B08F1002A08F0002608AE00C5
:1013E0002708AF002808B0002908B1000630031014
:1013F000AE0DAF0DB00DB10DFF3E031DF72900304E
:10140000B2001230B3007A30B4000030B5002E08BC
:10141000B2022F08031C2F0F0E2A0F2AB302300826
:10142000031C300F142A152AB4023108031C310F93
:101430001A2A1B2AB5023508F7003408F6003308CB
:10144000F5003208F4000A128A157C200A128A1567
:101450007108FA007008F90001307A0200300319AF
:101460007902031C342A352A912A83120313260891
:10147000AA002708AB002808AC002908AD000430FA
:101480000310AA0DAB0DAC0DAD0DFF3E031D402AA0
:101490002D08F3002C08F2002B08F1002A08F000B8
:1014A0002608AE002708AF002808B0002908B100C0
:1014B00004300310AE0DAF0DB00DB10DFF3E031D96
:1014C000592A0030B2001230B3007A30B400003034
:1014D000B5002E08B2022F08031C2F0F702A712AA4
:1014E000B3023008031C300F762A772AB402310881
:1014F000031C310F7C2A7D2AB5023508F700340819
:10150000F6003308F5003208F4000A128A157C2030
:101510000A128A157108FA007008F900831603137D
:10152000181501307A020030031979020318992A3C
:101530009A2AAC2A79088316031399001812831289
:1015400003139817831603138717071783120313C0
:101550001816831603139816080001308316031318
:10156000850088018312031388018B170B178C11D8
:10157000831603138C1507309F000A168A1114274F
:101580000A128A15003083120313A9000030A80044
:101590002530A7008030A6000A128A15D3210A122E
:1015A0008A15F001F101F20124300A128A110F208C
:1015B0000A128A15831203138C1DDF2AE02A7D2B61
:1015C00083160313C201C3010A168A111D270A12CA
:1015D0008A1583160313AB00AC012B08C2002C083C
:1015E000C30042034304031DF62AF72A792B831212
:1015F000031308140A128A115E210A128A15831233
:1016000003135F0883160313A300831203135E08FA
:1016100083160313A200831203135D0883160313BA
:10162000A100831203135C0883160313A0000A129F
:101630008A1500200A128A15831603132108C50093
:101640002008C400043083160313AD000C30AC0036
:101650003330AB00AB0B2A2BAC0B2A2BAD0B2A2B58
:10166000AE3083120313A0000030A1002230831695
:101670000313AB002B0883120313A200831603137A
:10168000450883120313A40083160313440883122E
:101690000313A3000A128A1169200A128A158316FD
:1016A000031344080A168A1100270A128A15033008
:1016B00083160313AC009730AB00AB0B5D2BAC0B68
:1016C0005D2BAE30F1000030F2000A168A118F2730
:1016D0000A128A15023083160313AD000430AC00E1
:1016E000B930AB00AB0B722BAC0B722BAD0B722B6A
:1016F000792B8312031308108C110D3083160313FA
:10170000AC00FB30AB00AB0B832BAC0B832BDA2A8A
:101710000A128A1100288312031349088039CA006B
:101720004A08D3004908CA004A07CB004B08DA0030
:10173000C81F9B2B9C2B9D2B5A145A080319A12BB5
:10174000A22BB22B5A0A031DA62BA72BAF2B0030BE
:10175000C9000030C8000030C7000030C600C817FC
:10176000C901BA2B0030C9000030C8000030C700E2
:101770000030C60045088039CA004A08D30645082B
:10178000CA004A07CB004B08DB00C41FC82BC92B7B
:10179000CA2B5B145B080319CE2BCF2BDF2B5B0A04
:1017A000031DD32BD42BDC2B0030C5000030C4002C
:1017B0000030C3000030C200C417C501E72B003061
:1017C000C5000030C4000030C3000030C20045082E
:1017D000440443044204031DEE2BEF2B082C00307D
:1017E000C9000030C8000030C7000030C60080309B
:1017F000C8047F30C9045308CA004A08C90449080C
:10180000C5004808C4004708C3004608C200672D49
:101810005A08031D0C2C0D2C162C0030C50000306E
:10182000C4000030C3000030C200672D5A08CA004F
:10183000CB014B08CD005B084A02CC00031CCD0352
:101840004C087F3ED4004D080318013E003ED500F1
:101850004908D2004808D1004708D0004608CF0008
:101860000030C9000030C8000030C7000030C6009A
:101870000030D9000030D8000030D7000030D6004A
:10188000DB018C2C5B080319462C472C672C01309C
:10189000CA000310CF0DD00DD10DD20DCA0B492CAB
:1018A0000130CA000310C60DC70DC80DC90DCA0B03
:1018B000522CD91F5C2C5D2C5E2C46140130CA00C2
:1018C0000310D60DD70DD80DD90DCA0B602C4508C5
:1018D0005202031D752C44085102031D752C430848
:1018E0005002031D752C42084F02031C782C792CE2
:1018F000882C59174208CF024308031C430FD0021B
:101900004408031C440FD1024508031C450FD202B2
:101910000130CA004A08DB071A305B02031C912C15
:10192000922C422C5208510450044F040319992C54
:101930009A2CB92C5614B92C0130CA000310C60DCC
:10194000C70DC80DC90DCA0B9E2CD91FA82CA92CD8
:10195000AA2C46140130CA000310D60DD70DD80D9D
:10196000D90DCA0BAC2CFF30D4070318D50AFF30B1
:10197000D507C81FBC2CBD2C9C2CDB01D91FC12C4A
:10198000C22CDE2CFF305605CA00FF305705CB00B5
:10199000FF305805CC007F305905CD004D084C0470
:1019A0004B044A040319D52CD62CD92CDB01DB0AB5
:1019B000DE2C461CDC2CDD2CDE2CD62C5B0803191F
:1019C000E22CE32C142D0130C6070030031801303F
:1019D000C707003003180130C80700300318013072
:1019E000C907491CF42CF52C142D4608CA004708D9
:1019F000CB004808CC004908CD000130CE004D0D89
:101A0000CD0CCC0CCB0CCA0CCE0BFF2C4D08C90056
:101A10004C08C8004B08C7004A08C6000130D4076C
:101A20000318D50A0030D5075508803AFF008030EA
:101A30007F02031D1D2DFF305402031C202D212D7C
:101A40002F2DFF3083120313D4000030D500003057
:101A5000C9000030C8000030C7000030C600831243
:101A600003135508803AFF0080307F02031D3A2D92
:101A70000130540203183D2D3E2D4B2D83120313CC
:101A8000D401D5010030C9000030C8000030C700C3
:101A90000030C600D301831203135408CA004A0859
:101AA000DA005A1C542D552D572DC8175B2D7F3049
:101AB000CA004A08C8055A08CA0003104A0CCB00DD
:101AC0004B08C9005308CA004A08C904FF2B080084
:101AD0007308803983120313A0002008F8007308EC
:101AE000A0002007A1002108FA00F21F782D792D0F
:101AF0007A2D7A147A0803197E2D7F2D8F2D7A0A7C
:101B0000031D832D842D8C2D0030F3000030F20056
:101B10000030F1000030F000F217F301972D003093
:101B2000F3000030F2000030F1000030F0007708E0
:101B30008039A0002008F900790878060319A12D42
:101B4000A22DA32D78177708A0002007A100210857
:101B5000F900F61FAC2DAD2DAE2D791479080319BF
:101B6000B22DB32DC32D790A031DB72DB82DC02D6D
:101B70000030F7000030F6000030F5000030F400CF
:101B8000F617F701CB2D0030F7000030F6000030DB
:101B9000F5000030F4007A0879020318D02DD12D19
:101BA000152E781FD42DD52DD92D8030A0002008DA
:101BB000F8067A08A0002008FB007908A000200899
:101BC000FA007B08A0002008F9007008A000200897
:101BD000FB007408A0002008F0007B08A00020088B
:101BE000F4007108A0002008FB007508A000200880
:101BF000F1007B08A0002008F5007208A000200872
:101C0000FB007608A0002008F2007B08A000200856
:101C1000F6007308A0002008FB007708A000200849
:101C2000F3007B08A0002008F700FB017908A00062
:101C3000A1012108A3007A082002A200031CA3032B
:101C40002308803AFF0080307F02031D292E1A30BE
:101C50002202031C2C2E2D2E6E2E7308720471048A
:101C60007004031D342E362E0130372E00308312BF
:101C70000313A0002008FB000030F3000030F20046
:101C80000030F1000030F0007908A0002008FA00D0
:101C9000742E7B1C4C2E4D2E582E7B088312031362
:101CA000A0000310200C0138A1002108FB005A2ECF
:101CB0000310FB0C701C5D2E5E2E5F2EFB17013097
:101CC00083120313A000730DF30CF20CF10CF00C53
:101CD000A00B632E0130A0002008FA0779087A02D1
:101CE000031C732E742E492E781B772E782EC72E48
:101CF0007A08031D7C2E7D2E862E0030F3000030E6
:101D0000F2000030F1000030F000FF2F7408F007FF
:101D1000750803110318013E03198F2EF107760889
:101D200003110318013E0319962EF20777080311D9
:101D30000318013E03199D2EF307731CA02EA12E3C
:101D40007F2F7B1CA42EA52EB02E7B08831203139D
:101D5000A0000310200C0138A1002108FB00B22EC6
:101D60000310FB0C701CB52EB62EB72EFB170130DE
:101D700083120313A000730DF30CF20CF10CF00CA2
:101D8000A00BBB2E0130A0002008FA077F2F73089C
:101D9000803AFF007708803A7F02031DD92E76082B
:101DA0007202031DD92E75087102031DD92E740805
:101DB00070020318DC2EDD2E372FFF308312031341
:101DC000A000FF30A100FF30A200FF30A300740884
:101DD000A4007508A5007608A6007708A70070087B
:101DE000A4027108031C710FF62EF72EA5027208CB
:101DF000031C720FFC2EFD2EA6027308031C730F2A
:101E0000022F032FA7022408A00725080318250F77
:101E10000A2F0B2FA10726080318260F102F112FAA
:101E2000A20727080318270AA3072308F30022089C
:101E3000F2002108F1002008F0008030A000200806
:101E4000F806FB09FB0A7B08031D272F282F452FC7
:101E50000130F007003003180130F107003003189B
:101E60000130F207003003180130F307452F7408E2
:101E7000F0027508031C750FF1027608031C760F3B
:101E8000F2027708031C770FF302730872047104DF
:101E90007004031D4C2F4D2F7B2F7B08031D512FEA
:101EA000522F7B2F0030F3000030F2000030F100A1
:101EB0000030F000FF2F013083120313A000031045
:101EC000F00DF10DF20DF30DA00B5F2FFB1F692F2D
:101ED0006A2F6B2F70147B1C6E2F6F2F722F0314C1
:101EE000FB0D742F0310FB0D7A080319782F792F3F
:101EF0007B2F0130FA02F21F7E2F7F2F5B2FF9011B
:101F0000FB1F832F842F922F7B087F390319892F82
:101F10008A2F8D2FF901F90A922F701C902F912F83
:101F2000922F8A2F79080319962F972FCD2F0130E2
:101F3000F007003003180130F107003003180130BA
:101F4000F207003003180130F307731CA82FA92FE4
:101F5000CD2F700883120313A0007108A10072082E
:101F6000A2007308A3000130A400230DA30CA20C4F
:101F7000A10CA00CA40BB52F2308F3002208F2003B
:101F80002108F1002008F0007A0A0319C82FC92F90
:101F9000CD2F0130A0002008FA077A0A0319D12FAB
:101FA000D22FD72F7A08031DD62FD72FE52F003039
:101FB000F3000030F2000030F1000030F0007A0849
:101FC000031DE32FE42FE52FF8017A1CE82FE92FFA
:101FD000EB2FF217F12F7F3083120313A00020089C
:101FE000F2057A0883120313A0000310200CA1004D
:101FF0002108F300F81FFD2FFE2FFF2FF317080015
:1020000010308A000408840A820700340134003446
:102010000A34003464340034E83403341034273490
:102020002534643420342534643420342534643435
:102030002034253464342034253464342034253469
:1020400064342034253464340A340D340034533479
:102050006C346134763465342034313420343D348A
:102060002034253464340A340D340034643420348C
:0E2070003D342034253464340A340D340034F9
:102E0000F000700883120313930008008316031365
:102E1000141C0B2F0C2F062F080028342A342934B9
:102E2000263477347B34F3344130831203139F000C
:102E3000C030831603139F0008000A168A11062764
:102E40000A168A1183120313130808007308720408
:102E50007104700403192D2F2E2F302F8030F306AC
:102E600008007E088A007F0882000A168A1131272E
:102E70000A168A118000840A04087D0603190034AA
:102E8000FF0A0319FE0A352F803083120313C5068B
:102E90004908F3004808F2004708F1004608F0002E
:102EA0004508F7004408F6004308F5004208F4001E
:102EB0000A128A1568250A168A11730883120313E9
:102EC000C5007208C4007108C3007008C200080081
:102ED000F800F401F5017008F200F3017208F60041
:102EE0007308F700781C752F762F7C2F7608F4076F
:102EF0000318F50A7708F50701300310F60DF70DF2
:102F0000FF3E031D7D2F0310F80C7808031D892F49
:102F10008A2F722F7508F1007408F0000800F6017E
:102F2000F701AF2F76087107F4007208F300031859
:102F3000F30AF61F9C2FF3037308F500740884004E
:102F40008317751C831300080A128A1103200A16BE
:102F50008A110130F6070318F70A0030F7077608E0
:102F60007107F4007208F3000318F30AF61FB92F73
:102F7000F3037308F500740884008317751C83132A
:102F80000008031DC42FC52F922F0800780879046C
:102F90000319CB2FCC2FFB2FFD01FD0ADA2F0130B7
:102FA0000310F80DF90DFF3E031DD02F0130FC007A
:102FB0007C08FD07F91FDD2FDE2FCF2F79087B025C
:102FC000031DE42F78087A02031CE72FE82FEE2F69
:102FD0007808FA027908031CFB03FB020130031096
:102FE000F90CF80CFF3E031DEF2F0130FD02031D0D
:102FF000FA2FFB2FDE2F7B08F9007A08F800080073
:02400E00393F38
:00000001FF
