:100000000A128A11D62FFF1B0D2883137F1883171E
:100010000008840A0319FF0A080000308A00040857
:10002000840A82070034013400340A340034643412
:100030000034E834033410342734EC34F3344A34D5
:100040004834353495349534C7341734C134DC34EE
:100050004534FD34DB346D34C3347234B33433345B
:1000600040342B343434013448347F349D34B0343C
:100070004534E734FF34D93442340034003480341A
:100080003F3425346434203425346434203425341A
:1000900064342034253464342034253464340A3400
:1000A0000D34003445346E345F347234693467344F
:1000B0006834743420343D342034253464340A34B4
:1000C0000D34003445346E345F346C34653466343A
:1000D000743420343D342034253464340A340D34EF
:1000E0000034653420343D342034253464340A34FB
:0E00F0000D34003454346534783474340034E4
:1003140064008001840A04060319003404068B294E
:100324004130831203139F00C030831603139F00D0
:100334000800F00083160313981CA129A2299C2904
:100344007008831203139900080066346634663417
:10035400403400340034E13444340A34D734233490
:100364003C346F34123403343A349A3499341934A3
:100374003F34CD34CC344C343F34A33400347E0881
:100384008A007F0882000A128A11C1210A128A1186
:100394008000840A04087D0603190034FF0A031947
:1003A400FE0AC529F401F501701CD929DA29E029CE
:1003B4007208F4070318F50A7308F50701300310EF
:1003C400F20DF30DFF3E031DE12901300310F10C82
:1003D400F00CFF3E031DE82970087104031DF32986
:1003E400F429D6297508F1007408F0000800F40017
:1003F4000130F2007208831203139F057408F2009F
:1004040002300310F20DFF3E031D032A0310720D88
:10041400F30073089F040D30F300FB30F200F20B7D
:10042400112AF30B112A162A831203131F151F19FD
:100434001C2A1D2A192A1E08F100831603131E08FC
:10044400F0000800780879040319292A2A2A592A6D
:10045400FD01FD0A382A01300310F80DF90DFF3EA5
:10046400031D2E2A0130FC007C08FD07F91F3B2ADE
:100474003C2A2D2A79087B02031D422A78087A0235
:10048400031C452A462A4C2A7808FA027908031CD8
:10049400FB03FB0201300310F90CF80CFF3E031DB3
:1004A4004D2A0130FD02031D582A592A3C2A7B0893
:1004B400F9007A08F8000800831203136908F900A8
:1004C4006A08FA006B08FB006C08FC000230031099
:1004D400F90DFA0DFB0DFC0DFF3E031D692A0230D8
:1004E4000310F90DFA0DFB0DFC0DFF3E031D722ADE
:1004F4007C08F3007B08F2007A08F1007908F00028
:100504000130F7003130F6002D30F5000030F400F2
:100514000A128A1126240A128A117008FF3E8316D1
:1005240003139200831203132908EC002808EB003C
:100534002708EA002608E900080083120313690863
:10054400F9006A08FA006B08FB006C08FC00023032
:100554000310F90DFA0DFB0DFC0DFF3E031DAA2A35
:1005640002300310F90DFA0DFB0DFC0DFF3E031DC7
:10057400B32A7C08F3007B08F2007A08F1007908BA
:10058400F0000130F7003130F6002D30F500003076
:10059400F4000A128A1126240A128A117008FF3EF6
:1005A400831603139200831203132908EC0028080E
:1005B400EB002708EA002608E9000800F601F70125
:1005C400052B76087107F4007208F3000318F30A88
:1005D400F61FED2AF3037308F5007508831203135D
:1005E400FF00740884000A128A1103200A128A1177
:1005F4000A128A119B210A128A110130F607031884
:10060400F70A0030F70776087107F4007208F30060
:100614000318F30AF61F0F2BF3037308F50075088C
:1006240083120313FF00740884000A128A11032042
:100634000A128A11003A031D202B212BE32A0800F9
:10064400F501F601700871040319292B2A2B612B7B
:10065400F701F70A382B01300310F00DF10DFF3EBE
:10066400031D2E2B0130F4007408F707F11F3B2BF8
:100674003C2B2D2B01300310F50DF60DFF3E031D11
:100684003D2B71087302031D492B70087202031C71
:100694004C2B4D2B542B7008F2027108031CF303EE
:1006A400F302751401300310F10CF00CFF3E031D2E
:1006B400552B0130F702031D602B612B3C2B760870
:1006C400F1007508F000080001308316031385005B
:1006D400013089008801003083120313A90000301F
:1006E400A8000330A700E830A6000A128A115E228F
:1006F4000A128A11003083120313A9000030A800E3
:100704000330A700E830A6000A128A119F220A12B9
:100714008A118312031388100815881108160A1207
:100724008A1192210A128A11003083120313A9003C
:100734000030A8002530A7008030A6000A128A11D4
:10074400C3240A128A110A128A1187260A128A11EC
:100754000D3083120313C600AF30C500B530C4009A
:10076400C40BB22BC50BB22BC60BB22BB92BA52BCA
:100774000A128A11002883120313A101F71FC32B45
:10078400C42BCB2BF609F709F60A0319F70AA101C2
:10079400A10AF91FCE2BCF2BD82BF809F909F80A97
:1007A4000319F90A0130FA007A08A106A201A3018B
:1007B400760877040319DF2BE02B172CA001A00A7D
:1007C400EE2B01300310F60DF70DFF3E031DE42B55
:1007D4000130FA007A08A007F71FF12BF22BE32B64
:1007E40001300310A20DA30DFF3E031DF32B770868
:1007F4007902031DFF2B76087802031C022C032CBC
:100804000A2C7608F8027708031CF903F90222146B
:1008140001300310F70CF60CFF3E031D0B2C0130C6
:10082400A002031D162C172CF22B210803191B2CD4
:100834001C2C212CA209A309A20A0319A30A230828
:10084400F7002208F600080083120313A101F31F26
:100854002C2C2D2C3A2CF009F109F209F309F00A99
:100864000319F10A0319F20A0319F30AA101A10AEF
:10087400F71F3D2C3E2C4D2CF409F509F609F70918
:10088400F40A0319F50A0319F60A0319F70A0130E1
:10089400F8007808A1060030A5000030A40000305C
:1008A400A3000030A20073087204710470040319D9
:1008B4005C2C5D2CAA2CA001A00A6D2C0130F80040
:1008C4000310F00DF10DF20DF30DF80B622C013055
:1008D400F8007808A007F31F702C712C602C0130ED
:1008E400F8000310A20DA30DA40DA50DF80B732C95
:1008F40073087702031D882C72087602031D882C66
:1009040071087502031D882C70087402031C8B2C5B
:100914008C2C9B2C7008F4027108031C710FF502D7
:100924007208031C720FF6027308031C730FF7029C
:10093400221401300310F30CF20CF10CF00CFF3E06
:10094400031D9C2C0130A002031DA92CAA2C712C80
:1009540021080319AE2CAF2CBA2CA209A309A409AF
:10096400A509A20A0319A30A0319A40A0319A50ACB
:100974002508F3002408F2002308F1002208F000FF
:100984000800831203132608AA002708AB002808CE
:10099400AC002908AD0006300310AA0DAB0DAC0D58
:1009A400AD0DFF3E031DCE2C2D08F3002C08F200E4
:1009B4002B08F1002A08F0002608AE002708AF0033
:1009C4002808B0002908B10006300310AE0DAF0DA1
:1009D400B00DB10DFF3E031DE72C0030B2002D30E9
:1009E400B3003130B4000130B5002E08B2022F0834
:1009F400031C2F0FFE2CFF2CB3023008031C300FF6
:100A0400042D052DB4023108031C310F0A2D0B2DC2
:100A1400B5023508F7003408F6003308F50032084B
:100A2400F4000A128A1126240A128A117108FA00A3
:100A34007008F90001307A02003003197902031CAE
:100A4400242D252D812D831203132608AA0027089F
:100A5400AB002808AC002908AD0004300310AA0D2F
:100A6400AB0DAC0DAD0DFF3E031D302D2D08F30075
:100A74002C08F2002B08F1002A08F0002608AE002A
:100A84002708AF002808B0002908B100043003107B
:100A9400AE0DAF0DB00DB10DFF3E031D492D00305D
:100AA400B2002D30B3003130B4000130B5002E084F
:100AB400B2022F08031C2F0F602D612DB3023008E2
:100AC400031C300F662D672DB4023108031C310F4F
:100AD4006C2D6D2DB5023508F7003408F600330887
:100AE400F5003208F4000A128A1126240A128A1127
:100AF4007108FA007008F900831603131815013001
:100B04007A020030031979020318892D8A2D9E2D4B
:100B14007908831603139900181283120313981784
:100B24008316031387170713181383120313181359
:100B34001816831603139816080083120313B300C0
:100B44002130AB002B08AE00702E2530340603197B
:100B5400AC2DAD2DB92D3408AB00330884002B081F
:100B6400831380000130AB002B08B307702EAF0154
:100B74000130A007FF30200784000A128A110D20DB
:100B84000A128A11B400AB00AC012C08003A031914
:100B9400CC2D702E2B08003A0319822E643A0319C7
:100BA400D72D0D3A0319D72D702E2E0884008313E8
:100BB4000008B100840A0008B2000230AB002B0820
:100BC400AE07B21FE62DE72DF02D0330AB002B0846
:100BD400AF04B109B209B10A0319B20AB401B40AE3
:100BE4003408AB002B07013E84000A128A110D2041
:100BF4000A128A11AC000A128A110D200A128A11F3
:100C0400AD002D083202031D092E2C0831020318F1
:100C14000C2E0D2E0E2E182E0130AB002B08B4070F
:100C240005303406031D172E182EF22D2F08033914
:100C340003191D2E1E2E292E2D30AB0033088400DF
:100C44002B08831380000130AB002B08B307340852
:100C5400AB002B08B000672E0A30F8000030F90012
:100C64003008AB002B07013E84000A128A110D20C4
:100C74000A128A11F0000A128A110D200A128A112E
:100C8400F1003208F3003108F2000A128A1122231B
:100C94000A128A117108FB007008FA000A128A11FC
:100CA40024220A128A117808303E83120313AC00FE
:100CB4002C08B4003408AB00330884002B088313D9
:100CC40080000130AB002B08B307FF30AB002B08CA
:100CD400B007300A031D6F2E702E2E2E0130A00790
:100CE400FF30200784000A128A110D200A128A118B
:100CF400AB002B08B4003408031D812E822EA72DCF
:100D04003308840083138001080000300A128A111A
:100D1400F9210A128A11700883120313B5003508E9
:100D240083160313D30001300A128A11F9210A121F
:100D34008A11700883120313B50035088316031350
:100D4400D40002300A128A11F9210A128A11700899
:100D540083120313B500350883160313D20003303E
:100D64000A128A11F9210A128A11700883120313D4
:100D7400B500350883160313D50004300A128A110E
:100D8400F9210A128A11700883120313B500350879
:100D940083160313D6005308540783120313B500B4
:100DA400B601B60D831603135208831203133507D5
:100DB400B7000030031801303607B8008316031358
:100DC4005508831203133707B900003003180130A4
:100DD4003807BA008316031356088312031339071E
:100DE400F6000030031801303A07F70083160313A6
:100DF400530883120313BB00BC010310BB0DBC0DCD
:100E040083160313560883120313BD00BE01031097
:100E1400BD0DBE0D831603135508831203133D073E
:100E2400BF003E0803183E0AC0003B083F02C10051
:100E34003C08031C3C0A4002C200831603135408F6
:100E4400831203134102F0004208031C4203F10021
:100E54001130F2000030F3000A128A11D4210A1270
:100E64008A117108F9007008F8000A128A11BD236A
:100E74000A128A11760883120313C30043088316E7
:100E84000313E3002F3083120313B5003508A000C9
:100E940083160313530883120313B600B7013608ED
:100EA400A1003708A2008316031354088312031306
:100EB400B800B9013808A3003908A4008316031345
:100EC400520883120313BA00BB013A08A5003B0879
:100ED400A60083160313550883120313BC00BD0137
:100EE4003C08A7003D08A800831603135608831284
:100EF4000313BE00BF013E08A9003F08AA00A030AA
:100F04000A128A119F250A128A11A030F1000030BA
:100F1400F2000A128A11E0220A128A1102308312A4
:100F24000313B7004530B600A930B500B50B982FB0
:100F3400B60B982FB70B982F5F3083120313B500AD
:100F44003508A00083160313630883120313B60045
:100F5400B7013608A1003708A200A0300A128A118E
:100F64009F250A128A11A030F1000030F2000A1203
:100F74008A11E0220A128A11023083120313B70085
:100F84004530B600A930B500B50BC62FB60BC62F39
:100F9400B70BC62F6830F1008030F2000A128A11B4
:100FA400E0220A128A1108008313E330FD000130A5
:100FB400FE00A730FF00D73084000A128A11C52131
:100FC4000A128A116930FD000130FE00B330FF00BF
:100FD4005B3084000A128A11C5210A128A11831611
:100FE4000313E301473084005B300A128A118A211B
:0C0FF4000A128A1183010A128A11662B6E
:02400E00393F38
:00000001FF
