:100000000A128A11FC2F00308A000408840A820731
:1000100000347334313420343D34203400347334AC
:10002000323420343D34203400340A340D3400346A
:100A9E00F0007008831203139300080083160313EB
:100AAE00141C5A2D5B2D552D08000A128A1155253E
:100ABE000A128A118312031313080800F00083161A
:100ACE000313981C6B2D6C2D662D70088312031367
:100ADE0099000800F300831603138712731D782DF7
:100AEE00792D7D2D720894008715812D7008720462
:100AFE009400871173087104831203139400080085
:100B0E00F300F101F2019E2D7108730784000A12A1
:100B1E008A1103200A128A110A128A1165250A12F5
:100B2E008A110130F1070318F20A0030F20771083A
:100B3E00730784000A128A1103200A128A11003ADE
:100B4E00031DAA2DAB2D8B2D080083120313A101BB
:100B5E00F31FB22DB32DC02DF009F109F209F309DF
:100B6E00F00A0319F10A0319F20A0319F30AA10193
:100B7E00A10AF71FC32DC42DD32DF409F509F609CB
:100B8E00F709F40A0319F50A0319F60A0319F70A05
:100B9E000130F8007808A1060030A5000030A4004E
:100BAE000030A3000030A2007308720471047004B8
:100BBE000319E22DE32D302EA001A00AF32D0130F2
:100BCE00F8000310F00DF10DF20DF30DF80BE82DFA
:100BDE000130F8007808A007F31FF62DF72DE62D4B
:100BEE000130F8000310A20DA30DA40DA50DF80BF6
:100BFE00F92D73087702031D0E2E72087602031D5F
:100C0E000E2E71087502031D0E2E70087402031C41
:100C1E00112E122E212E7008F4027108031C710F72
:100C2E00F5027208031C720FF6027308031C730F91
:100C3E00F702221401300310F30CF20CF10CF00C3D
:100C4E00FF3E031D222E0130A002031D2F2E302E3B
:100C5E00F72D21080319342E352E402EA209A30993
:100C6E00A409A509A20A0319A30A0319A40A0319C0
:100C7E00A50A2508F3002408F2002308F100220833
:100C8E00F0000800831603138113850101308600DE
:100C9E008801831203138801851405150030A900FD
:100CAE000030A8002530A7008030A6000A128A1155
:100CBE0022270A128A11F001F101F20120300A12E4
:100CCE008A1171250A128A1183120313B601B70114
:100CDE00B801B9010618742E752EBA2E8510033080
:100CEE00FC009730FB00FB0B7A2EFC0B7A2E7F2E2E
:100CFE0001300A128A114F250A128A110A128A111C
:100D0E005C250A128A11FB00FC017B088312031377
:100D1E00B6007C08B70001300A128A1187250A1224
:100D2E008A118312031336080A128A1165250A12D4
:100D3E008A11EA30FC00C330FB00FB0BA42EFC0B27
:100D4E00A42E0D300A128A1187250A128A11033039
:100D5E00FC009730FB00FB0BB22EFC0BB22EB72E15
:100D6E0083120313851436033704031DBF2EC02EC2
:100D7E00062F081405110330FC009730FB00FB0B07
:100D8E00C62EFC0BC62ECB2E01300A128A114F2511
:100D9E000A128A110A128A115C250A128A11FB00A4
:100DAE00FC017B0883120313B8007C08B9000730DE
:100DBE000A128A1187250A128A1183120313380820
:100DCE000A128A1165250A128A11EA30FC00C33014
:100DDE00FB00FB0BF02EFC0BF02E0D300A128A11CD
:100DEE0087250A128A110330FC009730FB00FB0B9B
:100DFE00FE2EFC0BFE2E032F831203130515380354
:100E0E003904031D0B2F0C2F6B2E081088140B307A
:100E1E00FD002630FC005D30FB00FB0B142FFC0B9D
:100E2E00142FFD0B142F1B2F8312031388106B2E00
:100E3E000A128A110028831203132608AA00270813
:100E4E00AB002808AC002908AD0006300310AA0D2F
:100E5E00AB0DAC0DAD0DFF3E031D2D2F2D08F30078
:100E6E002C08F2002B08F1002A08F0002608AE002C
:100E7E002708AF002808B0002908B100063003107B
:100E8E00AE0DAF0DB00DB10DFF3E031D462F003060
:100E9E00B2001230B3007A30B4000030B5002E0824
:100EAE00B2022F08031C2F0F5D2F5E2FB3023008E6
:100EBE00031C300F632F642FB4023108031C310F53
:100ECE00692F6A2FB5023508F7003408F60033088B
:100EDE00F5003208F4000A128A11AC250A128A11A2
:100EEE007108FA007008F90001307A020030031917
:100EFE007902031C832F842FE02F831203132608FD
:100F0E00AA002708AB002808AC002908AD00043061
:100F1E000310AA0DAB0DAC0DAD0DFF3E031D8F2FB3
:100F2E002D08F3002C08F2002B08F1002A08F0001F
:100F3E002608AE002708AF002808B0002908B10027
:100F4E0004300310AE0DAF0DB00DB10DFF3E031DFD
:100F5E00A82F0030B2001230B3007A30B400003047
:100F6E00B5002E08B2022F08031C2F0FBF2FC02F63
:100F7E00B3023008031C300FC52FC62FB402310840
:100F8E00031C310FCB2FCC2FB5023508F7003408D8
:100F9E00F6003308F5003208F4000A128A11AC2567
:100FAE000A128A117108FA007008F90083160313E9
:100FBE00181501307A020030031979020318E82F50
:100FCE00E92FFB2F79088316031399001812831249
:100FDE000313981783160313871707178312031328
:100FEE001816831603139816080083010A128A1125
:020FFE00492E7A
:02400E00393F38
:00000001FF
