:100000000A128A11D62F730872047104700403193E
:100010000A280B280D288030F3060800F800F401A8
:10002000F5017008F200F3017208F6007308F7009A
:10003000781C1B281C2822287608F4070318F50AC8
:100040007708F50701300310F60DF70DFF3E031D8D
:1000500023280310F80C7808031D2F2830281828AF
:100060007508F1007408F00008008316031381136B
:10007000850188018312031388018514051500305A
:10008000A9000030A8002530A7008030A6000A167D
:100090008A1126270A128A11F001F101F20120309B
:1000A0000A168A11CB200A128A1183160317A4019B
:1000B000A501043083160313DC000C30DB00333061
:1000C000DA00DA0B6128DB0B6128DC0B6128831274
:1000D00003138510033083160313DB009730DA0017
:1000E000DA0B7028DB0B702801300A168A11802089
:1000F0000A128A11043083160313DC000C30DB0073
:100100003330DA00DA0B8228DB0B8228DC0B822802
:100110000A168A1195200A128A1183160313DA002F
:10012000DB015A0883160317A200831603135B082A
:1001300083160317A3002F3083160313DA005A081F
:1001400083120313A00083160317230883120313DB
:10015000A20083160317220883120313A100903014
:100160000A128A1503200A128A1103308316031318
:10017000DB009730DA00DA0BBB28DB0BBB289030B2
:100180000A168A11E1200A128A110330831603131A
:10019000DB009730DA00DA0BCB28DB0BCB2883129D
:1001A0000313851408140511033083160313DB00B1
:1001B0009730DA00DA0BDA28DB0BDA2801300A167E
:1001C0008A1180200A128A11043083160313DC007E
:1001D0000C30DB003330DA00DA0BEC28DB0BEC28D8
:1001E000DC0BEC280A168A1195200A128A11831654
:1001F0000313DA00DB015A0883160317A4008316E1
:1002000003135B0883160317A50039308316031305
:10021000DA005A0883120313A00083160317250877
:1002200083120313A20083160317240883120313F7
:10023000A10090300A128A1503200A128A11033095
:1002400083160313DB009730DA00DA0B2529DB0B6A
:10025000252990300A168A11E1200A128A11831684
:1002600003172208F0002308F1000030F11BFF30D3
:10027000F200F30001300A168A11AD250A128A1124
:100280007308831603179D0072089C0071089B0079
:1002900070089A002408F0002508F1000030F11BD6
:1002A000FF30F200F30001300A168A11AD250A1260
:1002B0008A11730883160317A1007208A000710841
:1002C0009F0070089E001D0883160313C10083164B
:1002D00003171C0883160313C000831603171B089B
:1002E00083160313BF00831603171A08831603131C
:1002F000BE0083160317210883160313C500831657
:100300000317200883160313C400831603171F085E
:1003100083160313C300831603171E0883160313E3
:10032000C2000A128A15EB200A128A1183160317DB
:100330002E080A168A1180200A128A111A30831692
:100340000313DB00F730DA00DA0BA429DB0BA42956
:10035000A929831603136D080A168A1180200A1230
:100360008A11033083160313DB009730DA00DA0BAF
:10037000B729DB0BB729831203130515081088145E
:10038000063083160313DC001330DB00AD30DA00D7
:10039000DA0BC829DB0BC829DC0BC829831203132D
:1003A000881055280A128A11002883120313600846
:1003B0008039E100610883160313A400831203133C
:1003C0006008E1006107E200620883160313AB00D6
:1003D00083120313DF1FED29EE29F129831603137E
:1003E0002B14831603132B080319F729F8290B2A5A
:1003F0002B0A031DFC29FD29072A00308312031351
:10040000E0000030DF000030DE000030DD0083124D
:10041000DF17E001152A003083120313E0000030DB
:10042000DF000030DE000030DD005C088039E100D4
:10043000610883160313A406831203135C08E1000A
:100440006107E200620883160313AC0083120313F2
:10045000DB1F2B2A2C2A2F2A831603132C14831616
:1004600003132C080319352A362A492A2C0A031D9E
:100470003A2A3B2A452A003083120313DC0000305D
:10048000DB000030DA000030D9008312DB17DC011A
:10049000532A003083120313DC000030DB000030ED
:1004A000DA000030D9005C085B045A045904031DCB
:1004B0005A2A5B2A782A0030E0000030DF00003042
:1004C000DE000030DD008030DF047F30E004831682
:1004D0000313240883120313E1006108E004600899
:1004E000DC005F08DB005E08DA005D08D900742CD0
:1004F000831603132B08031D7E2A7F2A8A2A0030C5
:1005000083120313DC000030DB000030DA0000301F
:10051000D900742C2B0883120313E100E201620856
:10052000E400831603132C08831203136102E30013
:10053000031CE40363087F3E83160313A5008312A4
:10054000031364080318013E003E83160313A6003C
:1005500083120313600883160313A300831203138B
:100560005F0883160313A200831203135E08831629
:100570000313A100831203135D0883160313A00065
:10058000003083120313E0000030DF000030DE0093
:100590000030DD00003083160313AA000030A900EC
:1005A0000030A8000030A700AC015C2B2C08031918
:1005B000DA2ADB2A0A2B013083120313E10003102D
:1005C00083160313A00DA10DA20DA30D8312031317
:1005D000E10BDF2A0130E1000310DD0DDE0DDF0D40
:1005E000E00DE10BEC2A83160313AA1FF82AF92A5F
:1005F000FC2A831203135D1401308312E1000310FF
:1006000083160313A70DA80DA90DAA0D83120313BA
:10061000E10BFF2A83125C08831603132302031DD8
:10062000272B831203135B08831603132202031D77
:10063000272B831203135A08831603132102031D69
:10064000272B831203135908831603132002031C5C
:100650002A2B2B2B542B2A1783120313590883168A
:100660000313A002831203135A08031C5A0F392BD9
:100670003C2B83160313A102831203135B08031C94
:100680005B0F432B462B83160313A2028312031323
:100690005C08031C5C0F4D2B502B83160313A30225
:1006A0008312031383160313013083120313E10033
:1006B000610883160313AC071A302C02031C612B4C
:1006C000622BD62A23082204210420040319692B53
:1006D0006A2B942B2714942B0130E1000310DD0DBD
:1006E000DE0DDF0DE00DE10B6E2B83160313AA1F49
:1006F0007A2B7B2B7E2B831203135D140130831224
:10070000E100031083160313A70DA80DA90DAA0D70
:1007100083120313E10B812BFF3083160313A5070C
:100720000318A60AFF30A60783120313DF1F992BB5
:100730009A2B6C2B83160313AC01AA1FA02BA12BA1
:10074000CD2BFF30270583120313E100FF30831602
:100750000313280583120313E200FF3083160313EB
:10076000290583120313E3007F30831603132A0540
:1007700083120313E4006408630462046104031930
:10078000C22BC32BC82B83160313AC01AC0ACD2B91
:100790005D1CCB2BCC2BCD2BC32B831603132C082A
:1007A0000319D32BD42B092C013083120313DD073B
:1007B000003003180130DE07003003180130DF0776
:1007C000003003180130E007601CE72BE82B092CF0
:1007D0005D08E1005E08E2005F08E3006008E400F5
:1007E0000130E500640DE40CE30CE20CE10CE50BD8
:1007F000F22B6408E0006308DF006208DE00610895
:10080000DD00013083160313A5070318A60A003084
:10081000A607831603132608803AFF0080307F0264
:10082000031D142CFF302502031C172C182C282C18
:10083000FF3083160313A5000030A600003083129A
:100840000313E0000030DF000030DE000030DD0088
:10085000831603132608803AFF0080307F02031DB1
:10086000332C013025020318362C372C482C8316E4
:100870000313A501A601003083120313E00000302A
:10088000DF000030DE000030DD0083160313A4011A
:1008900083160313250883120313E10061088316EE
:1008A0000313AB002B1C552C562C5A2C831203130C
:1008B000DF17602C7F3083120313E1006108DF052E
:1008C000831603132B0883120313E1000310610C3A
:1008D000E2006208E0008316031324088312031366
:1008E000E1006108E0046F2A080083120313230863
:1008F0008039F9007908A8002308F9007907FA007F
:100900007A08AE00A21F852C862C872C2E142E0868
:1009100003198B2C8C2C9B2C2E0A031D902C912CB4
:10092000992C0030A3000030A2000030A10000305C
:10093000A000A217A32C0030A3000030A2000030BA
:10094000A1000030A00027088039F9007908A80626
:100950002708F9007907FA007A08AD00A61FB12C24
:10096000B22CB32C2D142D080319B72CB82CC72C7E
:100970002D0A031DBC2CBD2CC52C0030A700003057
:10098000A6000030A5000030A400A617CF2C003030
:10099000A7000030A6000030A5000030A4002D08FC
:1009A0000319D32CD42CD92C2E08031DD82CD92CC8
:1009B000E22C0030A3000030A2000030A100003083
:1009C000A000D52F2008F9007908F00026080A12A7
:1009D0008A110E200A128A11710883120313B400BF
:1009E0007008B3003308F900FA01FB01FC017C0830
:1009F000AC007B08AB007A08AA007908A90034088B
:100A0000F900FA01FB01FC017C08B2007B08B1008F
:100A10007A08B0007908AF002108F9007908F000E1
:100A200025080A128A110E200A128A1171088312EF
:100A30000313B4007008B3003308F900FA01FB0196
:100A4000FC017908A9077A0803110318013E03196C
:100A50002A2DAA077B0803110318013E0319312D23
:100A6000AB077C0803110318013E0319382DAC07AE
:100A70003408F900FA01FB01FC017908AF077A0894
:100A800003110318013E0319462DB0077B0803111B
:100A90000318013E03194D2DB1077C0803110318FB
:100AA000013E0319542DB2072208F9007908F0001D
:100AB00024080A128A110E200A128A117108831260
:100AC0000313B4007008B3003308F900FA01FB0106
:100AD000FC017908A9077A0803110318013E0319DC
:100AE000722DAA077B0803110318013E0319792D03
:100AF000AB077C0803110318013E0319802DAC07D6
:100B00003408F900FA01FB01FC017908AF077A0803
:100B100003110318013E03198E2DB0077B08031142
:100B20000318013E0319952DB1077C080311031822
:100B3000013E03199C2DB2070830F9000310A90DDE
:100B4000AA0DAB0DAC0DF90B9E2D2108F90079080B
:100B5000F00024080A128A110E200A128A11710864
:100B600083120313B4007008B3003308F90034088B
:100B7000FA00FB01FC017908A9077A0803110318A0
:100B8000013E0319C42DAA077B0803110318013E77
:100B90000319CB2DAB077C0803110318013E031981
:100BA000D22DAC072008F9007908F00025080A12B8
:100BB0008A110E200A128A11710883120313B400DD
:100BC0007008B3003308F9003408FA00FB01FC0197
:100BD0007908A9077A0803110318013E0319F12DBA
:100BE000AA077B0803110318013E0319F82DAB0770
:100BF0007C0803110318013E0319FF2DAC070830D0
:100C0000F9000310A90DAA0DAB0DAC0DF90B012EC7
:100C10002008F9007908F00024080A128A110E2031
:100C20000A128A11710883120313B4007008B3000A
:100C30003308F9003408FA00FB01FC017908A90720
:100C40007A0803110318013E0319272EAA077B080F
:100C500003110318013E03192E2EAB077C08031164
:100C60000318013E0319352EAC072108F900790855
:100C7000F00026080A128A110E200A128A11710841
:100C800083120313B4007008B3003308F90034086A
:100C9000FA00FB01FC017908AF077A080311031879
:100CA000013E0319542EB0077B0803110318013EBF
:100CB00003195B2EB1077C0803110318013E0319C9
:100CC000622EB2072208F9007908F00025080A12FE
:100CD0008A110E200A128A11710883120313B400BC
:100CE0007008B3003308F9003408FA00FB01FC0176
:100CF0007908AF077A0803110318013E0319812E02
:100D0000B0077B0803110318013E0319882EB107B1
:100D10007C0803110318013E03198F2EB207220825
:100D2000F9007908F00026080A128A110E200A122A
:100D30008A11710883120313B4007008B3003308DA
:100D4000F9003408FA00FB01FC0108300310F90D2A
:100D5000FA0DFB0DFC0DFF3E031DA62E7908AF0713
:100D60007A0803110318013E0319B72EB0077B0858
:100D700003110318013E0319BE2EB1077C080311AD
:100D80000318013E0319C52EB2072908F9002A08E5
:100D9000FA002B08FB002C08FC0018300310FC0C98
:100DA000FB0CFA0CF90CFF3E031DCE2E7908AF07A1
:100DB0007A0803110318013E0319DF2EB0077B08E0
:100DC00003110318013E0319E62EB1077C08031135
:100DD0000318013E0319ED2EB2070830F900031085
:100DE000A90DAA0DAB0DAC0DF90BEF2E2E082D079A
:100DF000F900FA01FA0D7908823EB3007A08031867
:100E0000013EFF3EB400212F0130F9000310AF0D69
:100E1000B00DB10DB20DF90B062FAC1F102F112F15
:100E2000122F2F140130F9000310A90DAA0DAB0DDC
:100E3000AC0DF90B142FFF30B3070318B40AFF30C1
:100E4000B407B11F242F252F042FAD01AC1F292F6C
:100E50002A2F462FFF302905F900FF302A05FA0016
:100E6000FF302B05FB007F302C05FC007C087B0449
:100E70007A04790403193D2F3E2F412FAD01AD0AAD
:100E8000462F2F1C442F452F462F3E2F2D08031988
:100E90004A2F4B2F7C2F0130AF0700300318013051
:100EA000B007003003180130B107003003180130DB
:100EB000B207321C5C2F5D2F7C2F2F08F900300801
:100EC000FA003108FB003208FC000130FD007C0D07
:100ED000FC0CFB0CFA0CF90CFD0B672F7C08B20024
:100EE0007B08B1007A08B0007908AF000130B30781
:100EF0000318B40A0030B4073408803AFF00803089
:100F00007F02031D852FFF303302031C882F892F9A
:100F1000942F7F3083120313B2008030B100003071
:100F2000B0000030AF00C92F831203133408803A99
:100F3000FF0080307F02031D9F2F01303302031812
:100F4000A22FA32FAF2F003083120313B200003063
:100F5000B1000030B0000030AF00A801C92F8312EB
:100F600003133308F9007908AE00FF30AF05FF30F6
:100F7000B0057F30B1050030B2052E1CC02FC12F47
:100F8000C22FB1172E08F9000310790CFA007A0865
:100F9000B2002808F9007908B2043208A300310829
:100FA000A2003008A1002F08A00008008317AE306F
:100FB000FD001030FE008D30FF00A63084000A16C0
:100FC0008A11BC200A128A118313EB30FD00103005
:100FD000FE00AA30FF00DD3084000A168A11BC2012
:100FE0000A128A1183160317AE01AF018316031389
:100FF000EB01EC01ED01EE0183010A128A113528A3
:1010060083120313AB002130A3002308A600D428C3
:1010160025302C060319102811281D282C08A3009A
:101026002B0884002308831780000130A3002308BF
:10103600AB07D428A7010130A007FF3020078400A2
:101046000A168A1100200A128A15AC00A300A40110
:101056002408003A03193028D4282308003A031933
:10106600E628643A03193B280D3A03193B28D4288D
:101076002608840083130008A900840A0008AA0031
:101086000230A3002308A607AA1F4A284B28542883
:101096000330A3002308A704A909AA09A90A03196A
:1010A600AA0AAC01AC0A2C08A3002307013E84005F
:1010B6000A168A1100200A128A15A4000A168A1135
:1010C60000200A128A15A50025082A02031D6D288C
:1010D6002408290203187028712872287C280130F8
:1010E600A3002308AC0705302C06031D7B287C28AB
:1010F6005628270803390319812882288D282D3080
:10110600A3002B0884002308831780000130A30066
:101116002308AB072C08A3002308A800CB280A3015
:10112600F8000030F9002808A3002307013E8400D8
:101136000A168A1100200A128A15F0000A168A1168
:1011460000200A128A15F1002A08F3002908F20085
:101156000A168A1160210A128A157108FB007008A6
:10116600FA000A168A1126210A128A157808303ED4
:1011760083120313A4002408AC002C08A3002B0838
:1011860084002308831780000130A3002308AB07DF
:10119600FF30A3002308A807280A031DD328D42854
:1011A60092280130A007FF30200784000A168A1112
:1011B60000200A128A15A3002308AC002C08031D80
:1011C600E528E6280B282B088400831780010800F1
:1011D600831603134508BD004408BC004308BB0042
:1011E6004208BA000A168A1108250A128A158316B9
:1011F60003133D08D1003C08D0003B08CF003A0855
:10120600CE00443083120313A300E130A200003065
:10121600A1000030A00083160313510883120313A4
:10122600A70083160313500883120313A600831620
:1012360003134F0883120313A500831603134E08E6
:1012460083120313A4000A128A1175240A128A153E
:1012560083120313230883160313D900831203137F
:10126600220883160313D80083120313210883165A
:101276000313D70083120313200883160313D60023
:10128600450883120313EA008316031344088312E6
:101296000313E90083160313430883120313E800BC
:1012A60083160313420883120313E7000A128A15F2
:1012B6002A230A128A15831203136A088316031354
:1012C600D50083120313690883160313D40083120F
:1012D6000313680883160313D300831203136708E6
:1012E60083160313D200403083120313B80066300E
:1012F600B7006630B6006630B5003F30A3006630F2
:10130600A2006630A1006630A000831603134108D0
:1013160083120313A70083160313400883120313D3
:10132600A600831603133F0883120313A500831632
:1013360003133E0883120313A4000A128A117524AC
:101346000A128A15831203132308BC002208BB0065
:101356002108BA002008B9000A128A1578250A124F
:101366008A1583120313380883160313C9008312E0
:101376000313370883160313C800831203133608B2
:1013860083160313C700831203133508831603134A
:10139600C6003C3083120313A3002330A200D730CB
:1013A600A1000A30A0008316031355088312031305
:1013B600A70083160313540883120313A60083168B
:1013C6000313530883120313A5008316031352084D
:1013D60083120313A4000A128A1175240A128A15AD
:1013E600831203132308B8002208B7002108B600A9
:1013F6002008B50083160313490883120313BC00A3
:1014060083160313480883120313BB0083160313C2
:10141600470883120313BA00831603134608831280
:101426000313B9000A128A1578250A128A1583123F
:101436000313380883160313CD00831203133708EA
:1014460083160313CC008312031336088316031383
:10145600CB0083120313350883160313CA00023028
:1014660083120313DC000030DD00831603135908D2
:1014760083120313A700831603135808831203135A
:10148600A60083160313570883120313A5008316B9
:101496000313560883120313A4004030A300003040
:1014A600A2000030A1000030A0000A128A117524A3
:1014B6000A128A15831203132308BC002208BB00F4
:1014C6002108BA002008B900831603134D088312B9
:1014D6000313A700831603134C0883120313A600F5
:1014E600831603134B0883120313A50083160313F5
:1014F6004A0883120313A4004330A3002A30A20033
:101506000030A1000030A0000A128A1175240A12C8
:101516008A15831203132308B8002208B70021088E
:10152600B6002008B5000A128A1578250A128A150F
:10153600831203133808D4003708D3003608D200C4
:101546003508D1000A168A11AF220A128A158312AB
:1015560003135208DF005108DE000A168A114622DC
:101566000A128A15831203135D0883160313EE000D
:10157600831203135C0883160313ED0059088312C4
:101586000313A70083160313580883120313A60038
:1015960083160313570883120313A5008316031338
:1015A600560883120313A4004030A3000030A200A3
:1015B6000030A1000030A0000A128A1175240A1218
:1015C6008A15831203132308D0002208CF002108AE
:1015D600CE002008CD00831603136D08F0006E08B8
:1015E600F1000030F11BFF30F200F30001300A1663
:1015F6008A11AD250A128A15730883120313CC00CB
:101606007208CB007108CA007008C9000A168A1150
:1016160002210A128A15831203134C08D4004B08C0
:10162600D3004A08D2004908D1000A168A11AF220F
:101636000A128A1583120313520883160317AF0082
:1016460083120313510883160317AE00080083168E
:101656000313B901831203136A08F3006908F20041
:101666006808F1006708F0000030F7000030F60067
:101676000030F5000030F4000A168A1166240A12BA
:101686008A150318472B482B652B831203136A0808
:10169600F3006908F2006808F1006708F0000A1212
:1016A6008A1103200A128A15730883120313EA00AB
:1016B6007208E9007108E8007008E7008316031352
:1016C600B901B90A3E3083120313A3002230A200E7
:1016D600F930A1008330A0006A08A7006908A600B7
:1016E6006808A5006708A4000A128A1175240A1260
:1016F6008A15831203132308EA002208E900210849
:10170600E8002008E7006A08DF006908DE006808CC
:10171600DD006708DC000A168A1167260A128A1598
:10172600831203135F08CC005E08CB005D08CA0075
:101736005C08C9006A08D0006908CF006808CE00B6
:101746006708CD000A168A1102210A128A15831229
:1017560003134C08EA004B08E9004A08E800490868
:10176600E7004030A3008030A2000030A100003026
:10177600A0006A08A7006908A6006808A50067080F
:10178600A4000A128A1175240A128A1583120313F9
:101796002308EA002208E9002108E8002008E700FB
:1017A6004030F3000030F2000030F1000030F0006D
:1017B6006A08F7006908F6006808F5006708F4008B
:1017C6000A168A1166240A128A150318EB2BEC2BCB
:1017D6001D2C403083120313CC000030CB000030A8
:1017E600CA000030C9006A08D0006908CF0068083E
:1017F600CE006708CD000A168A1102210A128A1540
:10180600831203134C08EA004B08E9004A08E80073
:101816004908E7008316031339080319132C152CFE
:101826000130162C003083120313EB006B0883166D
:101836000313B9003F30F3008030F2000030F100AE
:101846000030F000831203136A08F7006908F600F7
:101856006808F5006708F4000A168A1166240A1259
:101866008A150318372C382C592C831203136A084F
:10187600CC006908CB006808CA006708C900403078
:10188600D0000030CF000030CE000030CD000A1668
:101896008A1102210A128A15831203134C08EA00E0
:1018A6004B08E9004A08E8004908E70083120313D9
:1018B6006A08A3006908A2006808A1006708A000DA
:1018C6006A08A7006908A6006808A5006708A400BA
:1018D6000A128A1175240A128A1583120313230821
:1018E60083160313B8008312031322088316031307
:1018F600B70083120313210883160313B60083125D
:101906000313200883160313B50038088312031344
:10191600CC0083160313370883120313CB008316F8
:101926000313360883120313CA00831603133508FC
:1019360083120313C9001F30EB006B08CD00033080
:10194600CE000030CF000A168A11C8230A128A1563
:10195600831203134C0883160313B0008312031378
:101966004B0883160313AF00831203134A0883162A
:101976000313AE0083120313490883160313AD0045
:10198600043083120313CE000030CF000B30EB007F
:101996006B08CD0083160313380883120313CC009B
:1019A60083160313370883120313CB00831603131E
:1019B600360883120313CA008316031335088312ED
:1019C6000313C9000A168A11C8230A128A1583123C
:1019D60003134C08E0004B08DF004A08DE00490804
:1019E600DD0083160313300883120313DC0083160D
:1019F60003132F0883120313DB00831603132E0829
:101A060083120313DA00831603132D0883120313BC
:101A1600D9000A128A11D5210A128A1583120313D4
:101A26005C0883160313B400831203135B08831642
:101A36000313B300831203135A0883160313B20069
:101A460083120313590883160313B1003408831253
:101A56000313A30083160313330883120313A20090
:101A660083160313320883120313A100831603138C
:101A7600310883120313A0006A08A7006908A600AC
:101A86006808A5006708A4000A128A1175240A12BC
:101A96008A15831203132308EA002208E9002108A5
:101AA600E8002008E70083160313390803195C2DA4
:101AB6005D2D772D831203136A08F3006908F2007F
:101AC6006808F1006708F0000A128A1103200A125A
:101AD6008A15730883120313EA007208E900710875
:101AE600E8007008E700772D080083120313380812
:101AF6008039BD003D08C5003808BD003D07BE0061
:101B06003E08C700B71F882D892D8A2D4714470820
:101B160003198E2D8F2D9F2D470A031D932D942D6E
:101B26009C2D0030B8000030B7000030B600003001
:101B3600B500B717B801A72D0030B8000030B700C0
:101B46000030B6000030B5003C088039BD003D08C5
:101B5600C600460845060319B12DB22DB32D45170B
:101B66003C08BD003D07BE003E08C600BB1FBC2D9D
:101B7600BD2DBE2D461446080319C22DC32DD32DE7
:101B8600460A031DC72DC82DD02D0030BC000030DD
:101B9600BB000030BA000030B900BB17BC01DB2D1A
:101BA6000030BC000030BB000030BA000030B90085
:101BB600470846020318E02DE12D252E451FE42D8A
:101BC600E52DE92D8030BD003D08C5064708BD005E
:101BD6003D08C8004608BD003D08C7004808BD00CE
:101BE6003D08C6003508BD003D08C8003908BD00DF
:101BF6003D08B5004808BD003D08B9003608BD00DF
:101C06003D08C8003A08BD003D08B6004808BD00BA
:101C16003D08BA003708BD003D08C8003B08BD00B6
:101C26003D08B7004808BD003D08BB003808BD00A8
:101C36003D08C8003C08BD003D08B8004808BD0086
:101C46003D08BC00C8014608BD00BE013E08C000F4
:101C560047083D02BF00031CC0034008803AFF004E
:101C660080307F02031D392E1A303F02031C3C2EA2
:101C76003D2E7A2E831203133808370436043504B2
:101C8600031D462E482E0130492E0030BD003D086A
:101C9600C8000030B8000030B7000030B600003091
:101CA600B5004608BD003D08C700822E481C5C2EC4
:101CB6005D2E662E4808BD0003103D0C0138BE009F
:101CC6003E08C800682E0310C80C351C6B2E6C2EFF
:101CD6006D2EC8170130BD00380DB80CB70CB60C08
:101CE600B50CBD0B6F2E0130BD003D08C707831232
:101CF600031346084702031C812E822E592E451BCC
:101D0600852E862ED12E4708031D8A2E8B2E942EC5
:101D16000030B8000030B7000030B6000030B50023
:101D2600FF2F3908B5073A0803110318013E0319B6
:101D36009D2EB6073B0803110318013E0319A42E76
:101D4600B7073C0803110318013E0319AB2EB80769
:101D5600381CAE2EAF2E852F481CB22EB32EBC2EAD
:101D66004808BD0003103D0C0138BE003E08C800FF
:101D7600BE2E0310C80C351CC12EC22EC32EC8178A
:101D86000130BD00380DB80CB70CB60CB50CBD0B48
:101D9600C52E0130BD003D08C707852F3808803A9B
:101DA600FF003C08803A7F02031DE32E3B08370202
:101DB600031DE32E3A083602031DE32E39083502C9
:101DC6000318E62EE72E3F2FFF30BD00FF30BE0082
:101DD600FF30BF00FF30C0003908C1003A08C2001A
:101DE6003B08C3003C08C4003508C1023608031C82
:101DF600360FFE2EFF2EC2023708031C370F042FA4
:101E0600052FC3023808031C380F0A2F0B2FC402F4
:101E16004108BD0742080318420F122F132FBE07B1
:101E260043080318430F182F192FBF074408031838
:101E3600440AC0074008B8003F08B7003E08B6008D
:101E46003D08B5008030BD003D08C506C809C80A72
:101E56004808031D2F2F302F4D2F0130B5070030B6
:101E660003180130B607003003180130B7070030F9
:101E760003180130B8074D2F3908B5023A08031C7C
:101E86003A0FB6023B08031C3B0FB7023C08031C83
:101E96003C0FB8023808370436043504031D542FA6
:101EA600552F812F4808031D592F5A2F812F003097
:101EB600B8000030B7000030B6000030B500FF2F84
:101EC6000130BD000310B50DB60DB70DB80DBD0B35
:101ED600652FC81F6F2F702F712F3514481C742F54
:101EE600752F782F0314C80D7A2F0310C80D4708D5
:101EF60003197E2F7F2F812F0130C702B71F842F32
:101F0600852F632FC601C81F892F8A2F982F48084F
:101F16007F3903198F2F902F932FC601C60A982F4A
:101F2600351C962F972F982F902F460803199C2F14
:101F36009D2FD12F0130B507003003180130B607A9
:101F4600003003180130B707003003180130B80716
:101F5600381CAE2FAF2FD12F3508BD003608BE0076
:101F66003708BF003808C0000130C100400DC00C62
:101F7600BF0CBE0CBD0CC10BB92F4008B8003F0802
:101F8600B7003E08B6003D08B500470A0319CC2F36
:101F9600CD2FD12F0130BD003D08C707470A0319D1
:101FA600D52FD62FDB2F4708031DDA2FDB2FE92F7E
:101FB6000030B8000030B7000030B6000030B50081
:101FC6004708031DE72FE82FE92FC501471CEC2F13
:101FD600ED2FEF2FB717F32F7F30BD003D08B70564
:101FE6004708BD0003103D0CBE003E08B800C51FE3
:101FF600FD2FFE2FFF2FB817080010308A000408A7
:10200600840A82070034013400340A34003464340C
:102016000034E834033410342734EC34F3344A34CF
:102026004834353495349534C7341734C134DC34E8
:102036004534FD34DB346D34C3347234B334333455
:1020460040342B343434013448347F349D34B03436
:102056004534E734FF34D934423400340034803414
:102066003F346534323420343D34203425346434EE
:102076000A340D3400346534333420343D3420348E
:0A208600253464340A340D340034AC
:10210000F000700883120313930008008316031372
:10211000141C8B288C2886280800663466346634A4
:10212000403400340034E13444340A168A118620E5
:102130000A168A118312031313080800F00083168D
:102140000313981CA428A5289F2870088312031342
:10215000990008000A34D73423343C346F341234E5
:1021600003343A340A34D73423343C34AA340034A8
:102170007E088A007F0882000A168A11B8200A1693
:102180008A118000840A04087D0603190034FF0ABE
:102190000319FE0ABC28F300831603138712731D6C
:1021A000D228D328D728720894008715DB28700816
:1021B000720494008711730871048312031394004E
:1021C0000800F400F201F301F62872087407F10028
:1021D0007108840000080A168A119E200A168A11C6
:1021E0000130F2070318F30A0030F307720874078E
:1021F000F1007108840083170008031D00290129DC
:10220000E5280800803083120313CC065008B8007C
:102210004F08B7004E08B6004D08B5004C08BC008A
:102220004B08BB004A08BA004908B9000A128A15CF
:1022300078250A168A11831203133808CC00370850
:10224000CB003608CA003508C900080078087904B0
:1022500003192B292C295B29FD01FD0A3A2901309C
:102260000310F80DF90DFF3E031D30290130FC006D
:102270007C08FD07F91F3D293E292F2979087B029B
:10228000031D442978087A02031C472948294E294E
:102290007808FA027908031CFB03FB0201300310E3
:1022A000F90CF80CFF3E031D4F290130FD02031D00
:1022B0005A295B293E297B08F9007A08F8000800B2
:1022C000F501F601700871040319672968299F292F
:1022D000F701F70A762901300310F00DF10DFF3EEA
:1022E000031D6C290130F4007408F707F11F7929E8
:1022F0007A296B2901300310F50DF60DFF3E031D01
:102300007B2971087302031D872970087202031C60
:102310008A298B2992297008F2027108031CF303A1
:10232000F302751401300310F10CF00CFF3E031D95
:1023300093290130F702031D9E299F297A297608E7
:10234000F1007508F000080000307005F80000305A
:102350007105F90080307205FA007F307305FB00CB
:102360007B087A0479047804031DB729B829C029A9
:102370000030F3000030F2000030F1000030F000D7
:1023800000307405F80000307505F90080307605DE
:10239000FA007F307705FB007B087A047904780423
:1023A000031DD329D429DC290030F7000030F600C2
:1023B0000030F5000030F40077087306031DEA29A9
:1023C00076087206031DEA2975087106031DEA29BD
:1023D000740870060319ED29EE29F0290310F1297C
:1023E00003140800831203132308F3002208F200E9
:1023F0002108F1002008F0000030F7000030F6005E
:102400000030F5000030F4000A168A11A4210A16E3
:102410008A11031C0C2A0D2A162A8312031324087E
:10242000840083138001840A8001452A83120313E8
:1024300023087F39FC00FD010310FC0DFD0D24086D
:1024400084007C0883138000840A7D088000220DAC
:10245000220D0139FC00FD01240884007C08800461
:10246000840A7D0880042408840082308007840F59
:1024700000080318000AFF00FF307F078000840374
:10248000230880393F38A300A213080083120313E6
:10249000E201DD1F4C2A4D2A542ADC09DD09DC0A41
:1024A0000319DD0AE201E20ADF1F572A582A612ACE
:1024B000DE09DF09DE0A0319DF0A0130E0006008E7
:1024C000E206E301E4015C085D040319682A692A55
:1024D000A02AE101E10A772A01300310DC0DDD0DAD
:1024E000FF3E031D6D2A0130E0006008E107DD1F9B
:1024F0007A2A7B2A6C2A01300310E30DE40DFF3E9B
:10250000031D7C2A5D085F02031D882A5C085E02A9
:10251000031C8B2A8C2A932A5C08DE025D08031CAC
:10252000DF03DF02631401300310DD0CDC0CFF3E1F
:10253000031D942A0130E102031D9F2AA02A7B2A51
:1025400062080319A42AA52AAA2AE309E409E30ACE
:102550000319E40A6408DD006308DC0008000310C6
:1025600083120313530D540DD5005508DB005B088F
:10257000031DBB2ABC2AC52A0030D4000030D3007A
:102580000030D2000030D1002A2B5108D50052086B
:10259000D6005308D7005408D8001F300310D80CB9
:1025A000D70CD60CD50CFF3E031DCE2A5508D900FA
:1025B0005908DA00D317FF30D105FF30D205FF30BC
:1025C000D3050030D4059630DB02DB1FE82AE92A68
:1025D000032B5B08803A973E0318EF2AF02AF12A72
:1025E000BC2A01300310D40CD30CD20CD10CFF3E0A
:1025F000031DF22A0130D5005508DB07031D012B0E
:10260000022BF12A1A2B20305B02031C082B092B0A
:10261000152BBC2A0130D5000310D10DD20DD30DDE
:10262000D40DD50B0C2B0130DB025B08031D192BDD
:102630001A2B0A2B5A0803191E2B1F2B2A2BD109E0
:10264000D209D309D409D10A0319D20A0319D30A2A
:102650000319D40A080083120313A101F31F312BBD
:10266000322B3F2BF009F109F209F309F00A0319A3
:10267000F10A0319F20A0319F30AA101A10AF71FCB
:10268000422B432B522BF409F509F609F709F40AFA
:102690000319F50A0319F60A0319F70A0130F800BD
:1026A0007808A1060030A5000030A4000030A30087
:1026B0000030A20073087204710470040319612BC6
:1026C000622BAF2BA001A00A722B0130F80003107F
:1026D000F00DF10DF20DF30DF80B672B0130F80042
:1026E0007808A007F31F752B762B652B0130F800B7
:1026F0000310A20DA30DA40DA50DF80B782B7308E4
:102700007702031D8D2B72087602031D8D2B710835
:102710007502031D8D2B70087402031C902B912BE6
:10272000A02B7008F4027108031C710FF5027208E7
:10273000031C720FF6027308031C730FF7022214B6
:1027400001300310F30CF20CF10CF00CFF3E031DF2
:10275000A12B0130A002031DAE2BAF2B762B21083D
:102760000319B32BB42BBF2BA209A309A409A509F4
:10277000A20A0319A30A0319A40A0319A50A250822
:10278000F3002408F2002308F1002208F0000800FA
:10279000831203134E08D00001300310D00DFF3E0A
:1027A000031DCD2B0310500D4D0784000A168A110E
:1027B00000200A168A11D1000A168A1100200A1672
:1027C0008A11D2000A168A1100200A168A11D30033
:1027D0000A168A1100200A168A11D4005408D8005B
:1027E0005308D7005208D6005108D500572CFF30A7
:1027F000CE070318CF0AFF30CF074E08D0000130B4
:102800000310D00DFF3E031D002C0310500D4D078B
:1028100084000A168A1100200A168A11D1000A16AD
:102820008A1100200A168A11D2000A168A11002085
:102830000A168A11D3000A168A1100200A168A1174
:10284000D4005408B8005308B7005208B600510825
:10285000B5005808A3005708A2005608A100550863
:10286000A0004C08A7004B08A6004A08A50049088C
:10287000A4000A128A1175240A168A1183120313FE
:102880002308BC002208BB002108BA002008B900B8
:102890000A128A1578250A168A118312031338083A
:1028A000D8003708D7003608D6003508D5004E08BE
:1028B0004F04031D5C2C5D2CF72B5808CC005708E7
:1028C000CB005608CA005508C90008000030700542
:1028D000F80000307105F90080307205FA007F3091
:1028E0007305FB007B087A0479047804031D792CB6
:1028F0007A2C822C0030F3000030F2000030F1001E
:102900000030F00000307405F80000307505F90063
:1029100080307605FA007F307705FB007B087A046B
:1029200079047804031D952C962C9E2C0030F7001A
:102930000030F6000030F5000030F400F31FA12C49
:10294000A22CC62C0030F8000030F9000030FA004C
:102950008030FB007008F8027108031C710FB12C65
:10296000B22CF9027208031C720FB72CB82CFA02B1
:102970007308031C730FBD2CBE2CFB027B08F300F5
:102980007A08F2007908F1007808F000F71FC92CE6
:10299000CA2CEE2C0030F8000030F9000030FA00AC
:1029A0008030FB007408F8027508031C750FD92CE1
:1029B000DA2CF9027608031C760FDF2CE02CFA02E1
:1029C0007708031C770FE52CE62CFB027B08F70049
:1029D0007A08F6007908F5007808F4008030F306EC
:1029E0008030F70677087302031D002D7608720207
:1029F000031D002D75087102031D002D740870025F
:102A00000318032D042D062D0310072D03140800B1
:102A10004030F3004930F2000F30F100DB30F000BD
:102A2000831603133D08F7003C08F6003B08F50049
:102A30003A08F4000A168A1166240A168A11031845
:102A4000222D232D7A2DC03083120313B800963027
:102A5000B700CB30B600E430B500831603133D0851
:102A600083120313BC00831603133C088312031361
:102A7000BB00831603133B0883120313BA008316AB
:102A800003133A0883120313B9000A128A15782532
:102A90000A168A11831203133808EF003708EE0074
:102AA0003608ED003508EC006F08EA006E08E90012
:102AB0006D08E8006C08E7000A128A152A230A1636
:102AC0008A11831203136A0883160313BD0083124D
:102AD0000313690883160313BC00831203136808E9
:102AE00083160313BB0083120313670883160313B3
:102AF000BA00AC2D3F3083120313B800C930B700C1
:102B00000F30B600DB30B500831603133D08831287
:102B10000313BC00831603133C0883120313BB008A
:102B2000831603133B0883120313BA00831603139F
:102B30003A0883120313B9000A128A1578250A1677
:102B40008A11831203133808EF003708EE003608A5
:102B5000ED003508EC00542D0800F8007808031942
:102B6000B22DB32DC72DF31FB62DB72DC72D70096C
:102B7000FA007109FB007209FC007309FD00FA0AF2
:102B80000319FB0A0319FC0A0319FD0ACF2D730868
:102B9000FD007208FC007108FB007008FA00730861
:102BA000720471047004031DD62DD72DE02D003062
:102BB000F3000030F2000030F1000030F000662E2B
:102BC0009630F4007408F900F22D0130F400740816
:102BD000F90701300310FD0CFC0CFB0CFA0CFF3E56
:102BE000031DEA2DFE307D05031DF72DF82DE52D83
:102BF000142E0130F4007408F9070130FA07003090
:102C000003180130FB07003003180130FC070030C7
:102C100003180130FD0701300310FD0CFC0CFB0C08
:102C2000FA0CFF3E031D0C2EFF307D05031D192EEF
:102C30001A2EF92D262E0130F9020130F40003106E
:102C4000FA0DFB0DFC0DFD0DF40B1F2EFC1B292EA8
:102C50002A2E302E0230790203182F2E302E1B2EF2
:102C60007918332E342E3C2EFF30FA05FF30FB0549
:102C70007F30FC05FF30FD050310F90C7908F400E6
:102C8000F501F601F70118300310F40DF50DF60DFE
:102C9000F70DFF3E031D442E7408FA047508FB046B
:102CA0007608FC047708FD0478080319582E592E7D
:102CB0005E2EF31F5C2E5D2E5E2EFD177D08F30049
:102CC0007C08F2007B08F1007A08F000080083120B
:102CD00003135F08A3005E08A2005D08A1005C0862
:102CE000A0006530E0006008A4000A168A11F221F5
:102CF0000A168A1183120313E61F7F2E802EAF2E31
:102D00005F08F3005E08F2005D08F1005C08F00067
:102D10000030F7000030F6000030F5000030F4001D
:102D20000A168A1166240A168A110318982E992EFB
:102D3000A42EBF3083120313DF008030DE0000308A
:102D4000DD000030DC00252F003083120313DF008C
:102D50000030DE000030DD000030DC00252F0030C8
:102D600066021D3003196502031CB72EB82EB92E5A
:102D7000252F5F08D4005E08D3005D08D2005C08F0
:102D8000D1000A168A11AF220A168A118312031380
:102D90005408F3005308F2005208F1005108F00003
:102DA00001300A168A11AD250A168A11730883129A
:102DB0000313E4007208E3007108E2007008E10008
:102DC0005F08F3005E08F2005D08F1005C08F000A7
:102DD0006408F7006308F6006208F5006108F40073
:102DE0000A168A1166240A168A110318F82EF92E7B
:102DF0001B2FBF3083120313B8008030B7000030A0
:102E0000B6000030B5006408BC006308BB0062086F
:102E1000BA006108B9000A128A1578250A168A11C3
:102E2000831203133808DF003708DE003608DD00A0
:102E30003508DC00252F831203136408DF006308C4
:102E4000DE006208DD006108DC0008008312031365
:102E50002608AA002708AB002808AC002908AD0006
:102E600006300310AA0DAB0DAC0DAD0DFF3E031DDA
:102E7000312F2D08F3002C08F2002B08F1002A084E
:102E8000F0002608AE002708AF002808B000290887
:102E9000B10006300310AE0DAF0DB00DB10DFF3E09
:102EA000031D4A2F0030B2001230B3007A30B40054
:102EB0000030B5002E08B2022F08031C2F0F612F1F
:102EC000622FB3023008031C300F672F682FB40243
:102ED0003108031C310F6D2F6E2FB5023508F70036
:102EE0003408F6003308F5003208F4000A168A1197
:102EF0002B230A168A117108FA007008F9000130B4
:102F00007A02003003197902031C872F882FE42FDF
:102F1000831203132608AA002708AB002808AC0078
:102F20002908AD0004300310AA0DAB0DAC0DAD0D9A
:102F3000FF3E031D932F2D08F3002C08F2002B08F1
:102F4000F1002A08F0002608AE002708AF00280884
:102F5000B0002908B10004300310AE0DAF0DB00D64
:102F6000B10DFF3E031DAC2F0030B2001230B30094
:102F70007A30B4000030B5002E08B2022F08031CCE
:102F80002F0FC32FC42FB3023008031C300FC92FDB
:102F9000CA2FB4023108031C310FCF2FD02FB50236
:102FA0003508F7003408F6003308F5003208F4005D
:102FB0000A168A112B230A168A117108FA00700862
:102FC000F90083160313181501307A020030031933
:102FD00079020318EC2FED2FFF2F790883160313C6
:102FE0009900181283120313981783160313871777
:102FF0000717831203131816831603139816080075
:02400E00393F38
:00000001FF
