:100000000A128A11FC2FFF1B0D2883137F188317F8
:100010000008840A0319FF0A080000308A00040857
:10002000840A82070034013400340A340034643412
:100030000034E8340334103427347334313420343A
:100040003D34203400347334323420343D34203491
:100050000034253464340A3400340A340D34003456
:10072A00F000700883120313930008008316031362
:10073A00141CA02BA12B9B2B08000A128A119B23A5
:10074A000A128A118312031313080800F000831691
:10075A000313981CB12BB22BAC2B70088312031312
:10076A0099000800F300831603138712731DBE2B2A
:10077A00BF2BC32B720894008715C72B700872040D
:10078A0094008711730871048312031394000800FC
:10079A00780879040319D22BD32B022CFD01FD0A08
:1007AA00E12B01300310F80DF90DFF3E031DD72B85
:1007BA000130FC007C08FD07F91FE42BE52BD62B42
:1007CA0079087B02031DEB2B78087A02031CEE2BB7
:1007DA00EF2BF52B7808FA027908031CFB03FB02BE
:1007EA0001300310F90CF80CFF3E031DF62B013003
:1007FA00FD02031D012C022CE52B7B08F9007A0867
:10080A00F8000800F601F7012C2C76087107F400AD
:10081A007208F3000318F30AF61F142CF303730883
:10082A00F500750883120313FF00740884000A1286
:10083A008A1103200A128A110A128A11AB230A1298
:10084A008A110130F6070318F70A0030F70776080D
:10085A007107F4007208F3000318F30AF61F362C26
:10086A00F3037308F500750883120313FF00740875
:10087A0084000A128A1103200A128A11003A031DFF
:10088A00472C482C0A2C0800F501F601700871045F
:10089A000319502C512C882CF701F70A5F2C0130D0
:1008AA000310F00DF10DFF3E031D552C0130F4002D
:1008BA007408F707F11F622C632C542C01300310C3
:1008CA00F50DF60DFF3E031D642C71087302031D1E
:1008DA00702C70087202031C732C742C7B2C700809
:1008EA00F2027108031CF303F302751401300310BA
:1008FA00F10CF00CFF3E031D7C2C0130F702031DA6
:10090A00872C882C632C7608F1007508F000080003
:10091A0083120313A101F31F932C942CA12CF00929
:10092A00F109F209F309F00A0319F10A0319F20AA3
:10093A000319F30AA101A10AF71FA42CA52CB42CB0
:10094A00F409F509F609F709F40A0319F50A03196E
:10095A00F60A0319F70A0130F8007808A1060030F0
:10096A00A5000030A4000030A3000030A2007308E4
:10097A007204710470040319C32CC42C112DA00134
:10098A00A00AD42C0130F8000310F00DF10DF20D7D
:10099A00F30DF80BC92C0130F8007808A007F31FF3
:1009AA00D72CD82CC72C0130F8000310A20DA30DA8
:1009BA00A40DA50DF80BDA2C73087702031DEF2C92
:1009CA0072087602031DEF2C71087502031DEF2CC5
:1009DA0070087402031CF22CF32C022D7008F40226
:1009EA007108031C710FF5027208031C720FF602DC
:1009FA007308031C730FF702221401300310F30C5F
:100A0A00F20CF10CF00CFF3E031D032D0130A00285
:100A1A00031D102D112DD82C21080319152D162D63
:100A2A00212DA209A309A409A509A20A0319A30A47
:100A3A000319A40A0319A50A2508F3002408F200D9
:100A4A002308F1002208F000080083120313260885
:100A5A00AA002708AB002808AC002908AD00063018
:100A6A000310AA0DAB0DAC0DAD0DFF3E031D352DC8
:100A7A002D08F3002C08F2002B08F1002A08F000D8
:100A8A002608AE002708AF002808B0002908B100E0
:100A9A0006300310AE0DAF0DB00DB10DFF3E031DB4
:100AAA004E2D0030B2001230B3007A30B40000305C
:100ABA00B5002E08B2022F08031C2F0F652D662DD4
:100ACA00B3023008031C300F6B2D6C2DB4023108B1
:100ADA00031C310F712D722DB5023508F700340849
:100AEA00F6003308F5003208F4000A128A118D2440
:100AFA000A128A117108FA007008F90001307A02A4
:100B0A00003003197902031C8B2D8C2DE82D8312DA
:100B1A0003132608AA002708AB002808AC002908F6
:100B2A00AD0004300310AA0DAB0DAC0DAD0DFF3EA8
:100B3A00031D972D2D08F3002C08F2002B08F10055
:100B4A002A08F0002608AE002708AF002808B000DF
:100B5A002908B10004300310AE0DAF0DB00DB10D70
:100B6A00FF3E031DB02D0030B2001230B3007A30C0
:100B7A00B4000030B5002E08B2022F08031C2F0F54
:100B8A00C72DC82DB3023008031C300FCD2DCE2D32
:100B9A00B4023108031C310FD32DD42DB502350808
:100BAA00F7003408F6003308F5003208F4000A1298
:100BBA008A118D240A128A117108FA007008F90044
:100BCA0083160313181501307A02003003197902CB
:100BDA000318F02DF12D032E7908831603139900BB
:100BEA00181283120313981783160313871707170C
:100BFA008312031318168316031398160800831218
:100C0A000313AB002130A3002308A600D52E2530FC
:100C1A002C060319112E122E1E2E2C08A3002B08A7
:100C2A0084002308831380000130A3002308AB0744
:100C3A00D52EA7010130A007FF30200784000A1231
:100C4A008A110D200A128A11AC00A300A4012408FB
:100C5A00003A0319312ED52E2308003A0319E72E3C
:100C6A00643A03193C2E0D3A03193C2ED52E260858
:100C7A00840083130008A900840A0008AA0002302D
:100C8A00A3002308A607AA1F4B2E4C2E552E03306D
:100C9A00A3002308A704A909AA09A90A0319AA0AE9
:100CAA00AC01AC0A2C08A3002307013E84000A12F7
:100CBA008A110D200A128A11A4000A128A110D2023
:100CCA000A128A11A50025082A02031D6E2E24087D
:100CDA0029020318712E722E732E7D2E0130A30065
:100CEA002308AC0705302C06031D7C2E7D2E572EBB
:100CFA00270803390319822E832E8E2E2D30A30046
:100D0A002B0884002308831380000130A3002308E2
:100D1A00AB072C08A3002308A800CC2E0A30F80041
:100D2A000030F9002808A3002307013E84000A12B4
:100D3A008A110D200A128A11F0000A128A110D2056
:100D4A000A128A11F1002A08F3002908F2000A128D
:100D5A008A1149240A128A117108FB007008FA00E4
:100D6A000A128A11CD230A128A117808303E831298
:100D7A000313A4002408AC002C08A3002B08840049
:100D8A002308831380000130A3002308AB07FF3038
:100D9A00A3002308A807280A031DD42ED52E932EB4
:100DAA000130A007FF30200784000A128A110D20A3
:100DBA000A128A11A3002308AC002C08031DE62E90
:100DCA00E72E0C2E2B08840083138001080083165B
:100DDA0003138113850101308600880183120313EE
:100DEA008801851405150030A9000030A8002530B7
:100DFA00A7008030A6000A128A112A250A128A112F
:100E0A00F001F101F20120300A128A11B7230A1205
:100E1A008A1183120313C301C401C501C60106184E
:100E2A00172F182F782F8510033083120313B7005A
:100E3A009730B600B60B1F2FB70B1F2F01300A12BF
:100E4A008A1195230A128A110A128A11A2230A12F6
:100E5A008A1183120313B600B7013608C300370894
:100E6A00C4001730B6003608A0004408A2004308A0
:100E7A00A10039300A128A1104260A128A110B308B
:100E8A00F1008030F2000A128A1107240A128A112C
:100E9A003930F1000030F2000A128A1107240A12CE
:100EAA008A11EA3083120313B700C230B600B60BB8
:100EBA005C2FB70B5C2F00001B30F1008030F20072
:100ECA000A128A1107240A128A11033083120313A1
:100EDA00B7009730B600B60B702FB70B702F83127E
:100EEA00031385148C1143034404031D7D2F7E2FA5
:100EFA00DF2F08140511033083120313B70097304C
:100F0A00B600B60B862FB70B862F01300A128A114C
:100F1A0095230A128A110A128A11A2230A128A1125
:100F2A0083120313B600B7013608C5003708C60096
:100F3A001730B6003608A0004608A2004508A100EE
:100F4A0039300A128A1104260A128A111130F10064
:100F5A008030F2000A128A1107240A128A113930E3
:100F6A00F1000030F2000A128A1107240A128A11CB
:100F7A00EA3083120313B700C230B600B60BC32F90
:100F8A00B70BC32F00001B30F1008030F2000A12A9
:100F9A008A1107240A128A11033083120313B70035
:100FAA009730B600B60BD72FB70BD72F8312031380
:100FBA0005158C1145034604031DE42FE52F0E2F5A
:100FCA00081088140B3083120313B8002630B700B8
:100FDA005D30B600B60BEF2FB70BEF2FB80BEF2F24
:100FEA008312031388100E2F0A128A110028830114
:060FFA000A128A11EC2E20
:02400E00393F38
:00000001FF
