:060000000A128A11D22F42
:1000080078087904031909280A283928FD01FD0A06
:10001800182801300310F80DF90DFF3E031D0E28B6
:100028000130FC007C08FD07F91F1B281C280D283F
:1000380079087B02031D222878087A02031C2528E8
:1000480026282C287808FA027908031CFB03FB02EF
:1000580001300310F90CF80CFF3E031D2D28013068
:10006800FD02031D382839281C287B08F9007A0866
:10007800F8000800233083120313AD002D08B000E8
:100088001A292530350603194A284B285B283508D4
:10009800AD00200884008317211C83132D088000DD
:1000A8000130A0070318A10A0030A1071A29B101DD
:1000B8000130A207FF30220784000A168A110020A7
:1000C8000A128A11B500AD00AE012E08003A0319D4
:1000D8006E281A292D08003A03192C29643A0319A5
:1000E80079280D3A031979281A29300884008313CE
:1000F8000008B300840A0008B4000230AD002D08DF
:10010800B007B41F8828892892280330AD002D082D
:10011800B104B309B409B30A0319B40AB501B50A9D
:100128003508AD002D07013E84000A168A1100200B
:100138000A128A11AE000A168A1100200A128A11C0
:10014800AF002F083402031DAB282E083302031812
:10015800AE28AF28B028BA280130AD002D08B50761
:1001680005303506031DB928BA2894283108033903
:100178000319BF28C028CF282D30AD0020088400DF
:100188008317211C83132D0880000130A007031852
:10019800A10A0030A1073508AD002D08B2001129C9
:1001A8000A30F8000030F9003208AD002D07013E92
:1001B80084000A168A1100200A128A11F0000A1611
:1001C8008A1100200A128A11F1003408F30033085A
:1001D800F2000A168A1169250A128A117108FB00B1
:1001E8007008FA000A128A1104200A128A11780883
:1001F800303E83120313AE002E08B5003508AD005B
:10020800200884008317211C83132D0880000130E7
:10021800A0070318A10A0030A107FF30AD002D0880
:10022800B207320A031D19291A29D4280130A20756
:10023800FF30220784000A168A1100200A128A1148
:10024800AD002D08B5003508031D2B292C2945289C
:10025800200884008317211C83138001080083165B
:10026800031323088039A800280883120313EA001F
:10027800831603132308A8002807A9002908831256
:100288000313EC0083160313A21F4B294C294F2993
:10029800831203136C1483126C080319542955290B
:1002A80069296C0A031D59295A29642900308316C3
:1002B8000313A3000030A2000030A1000030A0000A
:1002C80083160313A217A30173290030831603139F
:1002D800A3000030A2000030A1000030A0002708D1
:1002E8008039A800280883120313EB006B086A06FC
:1002F80003197F29802981296A1783160313270880
:10030800A8002807A900290883120313EB00831605
:100318000313A61F902991299429831203136B14A0
:1003280083126B08031999299A29AE296B0A031DB0
:100338009E299F29A929003083160313A70000309E
:10034800A6000030A5000030A40083160313A617EA
:10035800A701B829003083160313A7000030A600B0
:100368000030A5000030A400831203136C086B0250
:100378000318BF29C029362A6A1FC329C429CC29D2
:10038800803083160313A800280883120313EA0693
:100398006C0883160313A800280883120313ED00C2
:1003A8006B0883160313A800280883120313EC00B4
:1003B8006D0883160313A800280883120313EB00A3
:1003C800831603132008A800280883120313ED00DE
:1003D800831603132408A8002808A0008312031317
:1003E8006D0883160313A8002808A4002108A80094
:1003F800280883120313ED00831603132508A800A9
:100408002808A100831203136D0883160313A8009C
:100418002808A5002208A800280883120313ED0065
:10042800831603132608A8002808A20083120313C2
:100438006D0883160313A8002808A6002308A8003F
:10044800280883120313ED00831603132708A80056
:100458002808A300831203136D0883160313A8004A
:100468002808A7008312ED016B0883160313A80060
:10047800A9012908AB00831203136C088316031320
:100488002802AA00031CAB032B08803AFF00803027
:100498007F02031D512A1A302A02031C542A552AA6
:1004A800A82A831603132308220421042004031D09
:1004B8005E2A602A0130612A0030A80028088312C9
:1004C8000313ED00003083160313A3000030A200CD
:1004D8000030A1000030A000831203136B088316BC
:1004E8000313A800280883120313EC00B02A6D1C1C
:1004F8007E2A7F2A8C2A6D0883160313A80003100E
:10050800280C0138A900290883120313ED008E2A4C
:100518000310ED0C83160313201C932A942A972AA0
:1005280083120313ED17013083160313A800230D5C
:10053800A30CA20CA10CA00CA80B9B2A0130A800AC
:10054800280883120313EC07831203136B086C0249
:10055800031CAF2AB02A7B2A6A1BB32AB42A112BA0
:100568006C08031DB82AB92AC42A0030831603135D
:10057800A3000030A2000030A1000030A000702CC1
:10058800831603132408A007250803110318013E46
:100598000319CF2AA107260803110318013E0319DE
:1005A800D62AA207270803110318013E0319DD2ADA
:1005B800A307231CE02AE12AD82B831203136D1CFE
:1005C800E62AE72AF42A6D0883160313A800031005
:1005D800280C0138A900290883120313ED00F62A14
:1005E8000310ED0C83160313201CFB2AFC2AFF2A98
:1005F80083120313ED17013083160313A800230D8C
:10060800A30CA20CA10CA00CA80B032B0130A80072
:10061800280883120313EC07D82B83160313230827
:10062800803AFF002708803A7F02031D252B260801
:100638002202031D252B25082102031D252B240832
:1006480020020318282B292B852BFF30A800FF3008
:10065800A900FF30AA00FF30AB002408AC00250831
:10066800AD002608AE002708AF002008AC0221081C
:10067800031C210F402B412BAD022208031C220F23
:10068800462B472BAE022308031C230F4C2B4D2B64
:10069800AF022C08A8072D0803182D0F542B552B33
:1006A800A9072E0803182E0F5A2B5B2BAA072F0811
:1006B80003182F0AAB072B08A3002A08A200290851
:1006C800A1002808A0008030A8002808831203137E
:1006D800EA06ED09ED0A6D08031D732B742B932BA5
:1006E800013083160313A007003003180130A10757
:1006F800003003180130A207003003180130A307A7
:10070800932B2408A0022508031C250FA102260804
:10071800031C260FA2022708031C270FA302831617
:1007280003132308220421042004031D9C2B9D2B62
:10073800D22B831203136D08031DA32BA42BD22BDA
:10074800003083160313A3000030A2000030A1007C
:100758000030A000702C0130A8000310A00DA10DDE
:10076800A20DA30DA80BB12B83120313ED1FBD2BF4
:10077800BE2BC12B83160313201483126D1CC52BAB
:10078800C62BC92B0314ED0DCB2B0310ED0D6C08F4
:100798000319CF2BD02BD22B0130EC028316031375
:1007A800A21FD72BD82BAF2B8312EB01ED1FDD2B0C
:1007B800DE2BEF2B6D087F390319E32BE42BE82B95
:1007C8008312EB01EB0AEF2B83160313201CED2B8E
:1007D800EE2BEF2BE42B83126B080319F42BF52B6C
:1007E800312C013083160313A007003003180130A1
:1007F800A107003003180130A207003003180130A8
:10080800A307231C082C092C312C2008A800210838
:10081800A9002208AA002308AB000130AC002B0D68
:10082800AB0CAA0CA90CA80CAC0B132C2B08A3001E
:100838002A08A2002908A1002808A000831203138F
:100848006C0A0319282C292C312C01308316031328
:10085800A800280883120313EC0783126C0A0319F3
:10086800362C372C3C2C6C08031D3B2C3C2C4E2C76
:10087800003083160313A3000030A2000030A1004B
:100888000030A000831203136C08031D4C2C4D2C60
:100898004E2CEA016C1C512C522C562C8316031337
:1008A800A2175C2C7F3083160313A8002808A20522
:1008B800831203136C0883160313A8000310280C73
:1008C800A9002908A30083120313EA1F6C2C6D2CBE
:1008D800702C83160313A3170800831203135308FD
:1008E8008039D8005808DD005308D8005807D900C7
:1008F8005908E300D21F812C822C832C63146308CF
:100908000319872C882C972C630A031D8C2C8D2C9B
:10091800952C0030D3000030D2000030D1000030D8
:10092800D000D2179F2C0030D3000030D200003006
:10093800D1000030D00057088039D8005808DD06AB
:100948005708D8005807D9005908E200D61FAD2C1F
:10095800AE2CAF2C621462080319B32CB42CC32C30
:10096800620A031DB82CB92CC12C0030D700003006
:10097800D6000030D5000030D400D617CB2C00307C
:10098800D7000030D6000030D5000030D40062080F
:100998000319CF2CD02CD52C6308031DD42CD52CAF
:1009A800DE2C0030D3000030D2000030D1000030FF
:1009B800D000D12F5008D8005808F00056080A1661
:1009C8008A11B1240A128A11710883120313E900EB
:1009D8007008E8006808D800D901DA01DB015B0873
:1009E800E1005A08E0005908DF005808DE006908ED
:1009F800D800D901DA01DB015B08E7005A08E600F4
:100A08005908E5005808E4005108D8005808F000D3
:100A180055080A168A11B1240A128A11710883121C
:100A28000313E9007008E8006808D800D901DA0162
:100A3800DB015808DE07590803110318013E0319A2
:100A4800262DDF075A0803110318013E03192D2D1F
:100A5800E0075B0803110318013E0319342DE10771
:100A68006908D800D901DA01DB015808E4075908F8
:100A780003110318013E0319422DE5075A08031113
:100A88000318013E0319492DE6075B0803110318F3
:100A9800013E0319502DE7075208D8005808F00006
:100AA80054080A168A11B1240A128A11710883128D
:100AB8000313E9007008E8006808D800D901DA01D2
:100AC800DB015808DE07590803110318013E031912
:100AD8006E2DDF075A0803110318013E0319752DFF
:100AE800E0075B0803110318013E03197C2DE10799
:100AF8006908D800D901DA01DB015808E407590868
:100B080003110318013E03198A2DE5075A0803113A
:100B18000318013E0319912DE6075B08031103181A
:100B2800013E0319982DE7070830D8000310DE0DA1
:100B3800DF0DE00DE10DD80B9A2D5108D8005808AB
:100B4800F00054080A168A11B1240A128A11710891
:100B580083120313E9007008E8006808D8006908E0
:100B6800D900DA01DB015808DE0759080311031818
:100B7800013E0319C02DDF075A0803110318013E6F
:100B88000319C72DE0075B0803110318013E031979
:100B9800CE2DE1075008D8005808F00055080A166D
:100BA8008A11B1240A128A11710883120313E90009
:100BB8007008E8006808D8006908D900DA01DB0184
:100BC8005808DE07590803110318013E0319ED2DD3
:100BD800DF075A0803110318013E0319F42DE00733
:100BE8005B0803110318013E0319FB2DE1070830C8
:100BF800D8000310DE0DDF0DE00DE10DD80BFD2D43
:100C08005008D8005808F00054080A168A11B12470
:100C18000A128A11710883120313E9007008E800A8
:100C28006808D8006908D900DA01DB015808DE072E
:100C3800590803110318013E0319232EDF075A0828
:100C480003110318013E03192A2EE0075B0803115C
:100C58000318013E0319312EE1075108D80058083E
:100C6800F00056080A168A11B1240A128A1171086E
:100C780083120313E9007008E8006808D8006908BF
:100C8800D900DA01DB015808E407590803110318F1
:100C9800013E0319502EE5075A0803110318013EB7
:100CA8000319572EE6075B0803110318013E0319C1
:100CB8005E2EE7075208D8005808F00055080A16B3
:100CC8008A11B1240A128A11710883120313E900E8
:100CD8007008E8006808D8006908D900DA01DB0163
:100CE8005808E407590803110318013E03197D2E1B
:100CF800E5075A0803110318013E0319842EE60775
:100D08005B0803110318013E03198B2EE7075208ED
:100D1800D8005808F00056080A168A11B1240A1299
:100D28008A11710883120313E9007008E800680843
:100D3800D8006908D900DA01DB0108300310D80DA2
:100D4800D90DDA0DDB0DFF3E031DA22E5808E4076E
:100D5800590803110318013E0319B32EE5075A0871
:100D680003110318013E0319BA2EE6075B080311A5
:100D78000318013E0319C12EE7075E08D8005F0873
:100D8800D9006008DA006108DB0018300310DB0CBA
:100D9800DA0CD90CD80CFF3E031DCA2E5808E407FC
:100DA800590803110318013E0319DB2EE5075A08F9
:100DB80003110318013E0319E22EE6075B0803112D
:100DC8000318013E0319E92EE7070830D80003107D
:100DD800DE0DDF0DE00DE10DD80BEB2E6308620789
:100DE800D800D901D90D5808823EE80059080318DF
:100DF800013EFF3EE9001D2F0130D8000310E40D2D
:100E0800E50DE60DE70DD80B022FE11F0C2F0D2F76
:100E18000E2F64140130D8000310DE0DDF0DE00D35
:100E2800E10DD80B102FFF30E8070318E90AFF304F
:100E3800E907E61F202F212F002FE201E11F252FB0
:100E4800262F422FFF305E05D800FF305F05D900FE
:100E5800FF306005DA007F306105DB005B085A046B
:100E6800590458040319392F3A2F3D2FE201E20A99
:100E7800422F641C402F412F422F3A2F620803193A
:100E8800462F472F782F0130E40700300318013030
:100E9800E507003003180130E60700300318013079
:100EA800E707671C582F592F782F6408D800650862
:100EB800D9006608DA006708DB000130DC005B0D4A
:100EC800DB0CDA0CD90CD80CDC0B632F5B08E700C1
:100ED8005A08E6005908E5005808E4000130E80718
:100EE8000318E90A0030E9076908803AFF008030F2
:100EF8007F02031D812FFF306802031C842F852F7A
:100F0800902F7F3083120313E7008030E600003013
:100F1800E5000030E400C52F831203136908803A06
:100F2800FF0080307F02031D9B2F013068020318E9
:100F38009E2F9F2FAB2F003083120313E700003042
:100F4800E6000030E5000030E400DD01C52F831223
:100F580003136808D8005808E300FF30E405FF30A1
:100F6800E5057F30E6050030E705631CBC2FBD2F83
:100F7800BE2FE6176308D8000310580CD90059088B
:100F8800E7005D08D8005808E7046708D30066083A
:100F9800D2006508D1006408D00008008317D73054
:100FA800FD001430FE004F30FF00CF3084000A16D9
:100FB8008A117D240A128A11831603130A168A11CC
:100FC8004D240A128A11DE000A168A114E240A12CA
:100FD8008A11DF0083160317C601C701C801C901BA
:100FE800CA01CB01CC01CD01CE0183160313E00168
:100FF80083010A168A114B2E4130831203139F0076
:10100800C030831603139F00080083120313A10145
:10101800F71F0F2810281728F609F709F60A0319E9
:10102800F70AA101A10AF91F1A281B282428F80980
:10103800F909F80A0319F90A0130FA007A08A10631
:10104800A201A3017608770403192B282C2863280A
:10105800A001A00A3A2801300310F60DF70DFF3E53
:10106800031D30280130FA007A08A007F71F3D2831
:101078003E282F2801300310A20DA30DFF3E031DAB
:101088003F2877087902031D4B2876087802031C4D
:101098004E284F2856287608F8027708031CF903CB
:1010A800F902221401300310F70CF60CFF3E031D61
:1010B80057280130A002031D622863283E28210812
:1010C8000319672868286D28A209A309A20A031929
:1010D800A30A2308F7002208F60008008316031362
:1010E800390883120313A800831603133A088312DE
:1010F8000313A900AA01AB0100300A128A15AC211A
:101108000A128A15831203132B08BD002A08BC0093
:101118002908BB002808BA004230B900C830B80016
:101128000030B7000030B6000A128A1523260A12CA
:101138008A15831203133908D7003808D6003708F0
:10114800D5003608D4000A168A1103250A128A1512
:10115800831203132608A8002708A9000030A91B3A
:10116800FF30AA00AB0001300A128A15AC210A121E
:101178008A15831203132B08D3002A08D2002908E2
:10118800D1002808D0000A128A1171240A128A157F
:1011980083120313530883160313B3008312031334
:1011A800520883160313B2008312031351088316DF
:1011B8000313B10083120313500883160313B000FE
:1011C8000A168A11D1260A128A15831603133108C2
:1011D800BA003008B9008312031397128316031359
:1011E8003918F728FB28831203131716FE288312D1
:1011F80003131712831603133A08BC003908BB00FF
:101208000310BC0CBB0C0310BC0CBB0C3B088312BA
:101218000313950008008316031339088312031378
:10122800A800831603133A0883120313A900AA011E
:10123800AB0100300A128A15AC210A128A158312F2
:1012480003132B08BD002A08BC002908BB00280886
:10125800BA004230B900C830B8000030B7000030DA
:10126800B6000A128A1523260A128A158312031356
:101278003908D7003808D6003708D5003608D40012
:101288000A168A1103250A128A15831203132608DF
:10129800A8002708A9000030A91BFF30AA00AB004E
:1012A80001300A128A15AC210A128A158312031317
:1012B8002B08D3002A08D2002908D1002808D0001A
:1012C8000A128A1171240A128A1583120313530809
:1012D80083160313B30083120313520883160313F0
:1012E800B20083120313510883160313B10083124B
:1012F8000313500883160313B0000A168A11D12667
:101308000A128A15831603133108BA003008B90087
:10131800831203139D1283160313391894299829ED
:10132800831203131D169B29831203131D128316A0
:1013380003133A08BC003908BB000310BC0CBB0CF3
:101348000310BC0CBB0C3B08831203139B00080062
:1013580083120313B00030080319B329B429C8292C
:10136800AB1FB729B829C8292809B2002909B30031
:101378002A09B4002B09B500B20A0319B30A0319E4
:10138800B40A0319B50AD0292B08B5002A08B400F5
:101398002908B3002808B2002B082A0429042804C5
:1013A800031DD729D829E1290030AB000030AA0055
:1013B8000030A9000030A800672A9630AC002C083D
:1013C800B100F3290130AC002C08B107013003103B
:1013D800B50CB40CB30CB20CFF3E031DEB29FE3068
:1013E8003505031DF829F929E629152A0130AC002D
:1013F8002C08B1070130B207003003180130B307D9
:10140800003003180130B407003003180130B50765
:1014180001300310B50CB40CB30CB20CFF3E031D25
:101428000D2AFF303505031D1A2A1B2AFA29272AF7
:101438000130B1020130AC000310B20DB30DB40D90
:10144800B50DAC0B202AB41B2A2A2B2A312A0230CC
:1014580031020318302A312A1C2A3118342A352A35
:101468003D2AFF30B205FF30B3057F30B405FF30A9
:10147800B5050310B10C3108AC00AD01AE01AF01E8
:1014880018300310AC0DAD0DAE0DAF0DFF3E031DB2
:10149800452A2C08B2042D08B3042E08B4042F08DA
:1014A800B50430080319592A5A2A5F2AAB1F5D2A46
:1014B8005E2A5F2AB5173508AB003408AA0033083E
:1014C800A9003208A8000800831203132608AA00FE
:1014D8002708AB002808AC002908AD000630031027
:1014E800AA0DAB0DAC0DAD0DFF3E031D732A2D08E3
:1014F800F3002C08F2002B08F1002A08F000260857
:10150800AE002708AF002808B0002908B10006304F
:101518000310AE0DAF0DB00DB10DFF3E031D8C2AAB
:101528000030B2001230B3007A30B4000030B50099
:101538002E08B2022F08031C2F0FA32AA42AB302D5
:101548003008031C300FA92AAA2AB4023108031C48
:10155800310FAF2AB02AB5023508F7003408F60073
:101568003308F5003208F4000A168A1163270A12B4
:101578008A157108FA007008F90001307A02003003
:1015880003197902031CC92ACA2A262B83120313BA
:101598002608AA002708AB002808AC002908AD00D7
:1015A80004300310AA0DAB0DAC0DAD0DFF3E031DAD
:1015B800D52A2D08F3002C08F2002B08F1002A0880
:1015C800F0002608AE002708AF002808B000290858
:1015D800B10004300310AE0DAF0DB00DB10DFF3EDC
:1015E800031DEE2A0030B2001230B3007A30B40086
:1015F8000030B5002E08B2022F08031C2F0F052B50
:10160800062BB3023008031C300F0B2B0C2BB40233
:101618003108031C310F112B122BB5023508F700C6
:101628003408F6003308F5003208F4000A168A1167
:1016380063270A128A157108FA007008F9008316E0
:101648000313181501307A020030031979020318C0
:101658002E2B2F2B412B7908831603139900181270
:101668008312031398178316031387170717831218
:1016780003131816831603139816080000300A1669
:101688008A11D8240A128A15700883120313B60027
:10169800360883160313D30001300A168A11D8249A
:1016A8000A128A15700883120313B60036088316C7
:1016B8000313D40002300A168A11D8240A128A1594
:1016C800700883120313B600360883160313D2007A
:1016D80003300A168A11D8240A128A157008831250
:1016E8000313B600360883160313D50004300A1610
:1016F8008A11D8240A128A15700883120313B600B7
:10170800360883160313D6005308540783120313AD
:10171800B600B701B70D83160313520883120313DB
:101728003607B8000030031801303707B9008316B0
:1017380003135508831203133807BA00003003183F
:1017480001303907BB0083160313560883120313AD
:101758003A07F6000030031801303B07F7008316FC
:101768000313530883120313BC00BD010310BC0DFF
:10177800BD0D83160313560883120313BE00BF0161
:101788000310BE0DBF0D83160313550883120313F0
:101798003E07C0003F0803183F0AC1003C0840024A
:1017A800C2003D08031C3D0A4102C300831603130F
:1017B8005408831203134202F0004308031C430336
:1017C800F1001130F2000030F3000A168A118C245F
:1017D8000A128A157108F9007008F8000A128A15A9
:1017E80009200A128A15760883120313C4004408D4
:1017F80083160313E000A03083120313A000003007
:10180800A1000B30B6003608A20083160313530854
:1018180083120313B700B8013708A3003808A400DF
:1018280083160313540883120313B900BA01390845
:10183800A5003A08A600831603135208831203135F
:10184800BB00BC013B08A7003C08A8008316031393
:10185800550883120313BD00BE013D08A9003E08C8
:10186800AA0083160313560883120313BF00C0018E
:101878003F08AB004008AC000A128A113E200A1249
:101888008A15A030F1000030F2000A168A113225BC
:101898000A128A15823083120313B700DD30B600AE
:1018A800B60B542CB70B542CA03083120313A00092
:1018B8000030A1002B30B6003608A20083160313AF
:1018C800600883120313B700B8013708A30038086B
:1018D800A4000A128A113E200A128A15A030F100CB
:1018E8000030F2000A168A1132250A128A1582304F
:1018F80083120313B700DD30B600B60B812CB70B8B
:10190800812C0800831603136008B9003908831670
:101918000317CD00831603136008831603174C07BB
:1019280083160313B900390883160317CC004E0831
:10193800831603136002B900390883160317CB0016
:101948004D0883160313B900BA01BB01BC013C085A
:1019580083120313AB00831603133B08831203138C
:10196800AA00831603133A0883120313A9008316E7
:101978000313390883120313A80001300A128A15C9
:10198800AC210A128A15831203132B08D7002A08E0
:10199800D6002908D5002808D4003F30D3004C30A1
:1019A800D200CC30D100CD30D0000A128A11712477
:1019B8000A128A1583120313530883160313A70008
:1019C80083120313520883160313A600831203130A
:1019D800510883160313A5008312031350088316B6
:1019E8000313A400831603174C0883160313BD00C2
:1019F800BE01BF01C001400883120313AB00831668
:101A080003133F0883120313AA00831603133E0827
:101A180083120313A900831603133D0883120313CB
:101A2800A80001300A128A15AC210A128A158312FD
:101A380003132B08D7002A08D6002908D500280840
:101A4800D4003F30D3001930D2009930D1009A30F9
:101A5800D0000A128A1171240A128A1583120313FC
:101A6800530883160313A300831203135208831623
:101A78000313A20083120313510883160313A10052
:101A880083120313500883160313A0000A128A1145
:101A980033210A128A1583160313230883160317A2
:101AA800C50083160313220883160317C400831680
:101AB8000313210883160317C30083160313200892
:101AC80083160317C200450883160313A70083165D
:101AD8000317440883160313A60083160317430845
:101AE80083160313A50083160317420883160313EE
:101AF800A400831603174B0883160313B900BA0111
:101B0800BB01BC013C0883120313AB00831603130B
:101B18003B0883120313AA00831603133A0883129F
:101B28000313A90083160313390883120313A800AB
:101B380001300A128A15AC210A128A15831203137E
:101B48002B08D7002A08D6002908D5002808D40071
:101B58000030D3000030D2000030D1000030D00077
:101B68000A128A1171240A128A1583120313530860
:101B780083160313A3008312031352088316031357
:101B8800A20083120313510883160313A1008312C2
:101B98000313500883160313A0000A128A11332175
:101BA8000A128A15831603132308B3002208B20009
:101BB8002108B1002008B0000A168A11D1260A129D
:101BC8008A15831603133008BD003D0883160317D2
:101BD800CA00831603136008B9003908831603176F
:101BE800CE00903083120313A0000130A1001C30F6
:101BF80083160313B900390883120313A20083164E
:101C080003174A0883160313BA00BB013A08831264
:101C18000313A300831603133B0883120313A400C2
:101C28000A128A113E200A128A159030F1000130FA
:101C3800F2000A168A1132250A128A150800831240
:101C480003133D088039BE003E08C7003D08BE00AA
:101C58003E07BF003F08CE00BC1F332E342E352E62
:101C68004E144E080319392E3A2E4A2E4E0A031DD9
:101C78003E2E3F2E472E0030BD000030BC00003005
:101C8800BB000030BA00BC17BD01522E0030BD00A9
:101C98000030BC000030BB000030BA003908803981
:101CA800BE003E08C7063908BE003E07BF003F0811
:101CB800CF00B81F602E612E622E4F144F080319F3
:101CC800662E672E772E4F0A031D6B2E6C2E742EF0
:101CD8000030B9000030B8000030B7000030B6005E
:101CE800B817B9017F2E0030B9000030B8000030B5
:101CF800B7000030B6003908380437043604031D2D
:101D0800862E872EA02E0030BD000030BC0000308B
:101D1800BB000030BA008030BC047F30BD044708E7
:101D2800BE003E08BD043D08B9003C08B8003B08A9
:101D3800B7003A08B600FF2F4E08031DA42EA52EA3
:101D4800AE2E0030B9000030B8000030B7000030C7
:101D5800B600FF2F4E08BE00BF013F08C1004F0864
:101D68003E02C000031CC10340087F3EC800410872
:101D78000318013E003EC9003D08C6003C08C500E6
:101D88003B08C4003A08C3000030BD000030BC0066
:101D98000030BB000030BA000030CD000030CC006D
:101DA8000030CB000030CA00CF01242F4F080319A0
:101DB800DE2EDF2EFF2E0130BE000310C30DC40D32
:101DC800C50DC60DBE0BE12E0130BE000310BA0DC5
:101DD800BB0DBC0DBD0DBE0BEA2ECD1FF42EF52E8E
:101DE800F62E3A140130BE000310CA0DCB0DCC0DEF
:101DF800CD0DBE0BF82E39084602031D0D2F3808ED
:101E08004502031D0D2F37084402031D0D2F360808
:101E18004302031C102F112F202F4D173608C30221
:101E28003708031C370FC4023808031C380FC502D3
:101E38003908031C390FC6020130BE003E08CF071F
:101E48001A304F02031C292F2A2FDA2E4608450480
:101E5800440443040319312F322F512F4A14512FB0
:101E68000130BE000310BA0DBB0DBC0DBD0DBE0B7D
:101E7800362FCD1F402F412F422F3A140130BE007C
:101E88000310CA0DCB0DCC0DCD0DBE0B442FFF306A
:101E9800C8070318C90AFF30C907BC1F542F552F9C
:101EA800342FCF01CD1F592F5A2F762FFF304A05D7
:101EB800BE00FF304B05BF00FF304C05C0007F302F
:101EC8004D05C100410840043F043E0403196D2F2D
:101ED8006E2F712FCF01CF0A762F3A1C742F752FD2
:101EE800762F6E2F4F0803197A2F7B2FAC2F0130D6
:101EF800BA07003003180130BB070030031801305F
:101F0800BC07003003180130BD073D1C8C2F8D2FF6
:101F1800AC2F3A08BE003B08BF003C08C0003D0893
:101F2800C1000130C200410DC10CC00CBF0CBE0C79
:101F3800C20B972F4108BD004008BC003F08BB00FA
:101F48003E08BA000130C8070318C90A0030C9079B
:101F58004908803AFF0080307F02031DB52FFF300B
:101F68004802031CB82FB92FC72FFF308312031361
:101F7800C8000030C9000030BD000030BC0000308F
:101F8800BB000030BA00831203134908803AFF00EF
:101F980080307F02031DD22F013048020318D52F4D
:101FA800D62FE32F83120313C801C9010030BD00E7
:101FB8000030BC000030BB000030BA00C7018312FB
:101FC80003134808BE003E08CE004E1CEC2FED2F30
:101FD800EF2FBC17F32F7F30BE003E08BC054E081C
:101FE800BE0003103E0CBF003F08BD004708BE00FE
:101FF8003E08BD04972E080010308A000408840AA1
:1020080082070034013400340A3400346434003464
:10201800E834033410342734253464342034253428
:102028006434203425346434203425346434203432
:10203800253464340A340D3400345034493444347B
:102048005F34563461346C3420343D3420342534C4
:1020580064340A340D340034653420343D3420347B
:0A206800253464340A340D340034CA
:10289A00643400349A34993419343F34CD34CC3406
:1028AA004C343F34831203139715171512149210E0
:1028BA0012158316031307110800831203139D15BB
:1028CA001D1512149210121583160313871008008F
:1028DA00F00083160313981C732C742C6E2C70084A
:1028EA0083120313990008007E088A007F08820079
:1028FA000A168A1179240A168A118000840A0408A1
:10290A007D0603190034FF0A0319FE0A7D2CF4011F
:10291A00F501701C912C922C982C7208F40703185C
:10292A00F50A7308F50701300310F20DF30DFF3EA7
:10293A00031D992C01300310F10CF00CFF3E031D0E
:10294A00A02C70087104031DAB2CAC2C8E2C7508BE
:10295A00F1007408F0000800F800F401F5017008AD
:10296A00F200F3017208F6007308F700781CBE2C17
:10297A00BF2CC52C7608F4070318F50A7708F50763
:10298A0001300310F60DF70DFF3E031DC62C031090
:10299A00F80C7808031DD22CD32CBB2C7508F10037
:1029AA007408F0000800F4000130F2007208831283
:1029BA0003139F057408F20002300310F20DFF3E64
:1029CA00031DE22C0310720DF30073089F040630F6
:1029DA00F3003030F200F20BF02CF30BF02C000075
:1029EA00831203131F151F19FB2CFC2CF82C1E082D
:1029FA00F100831603131E08F00008008316031360
:102A0A005A08F9005B08FA005C08FB005D08FC0044
:102A1A0002300310F90DFA0DFB0DFC0DFF3E031DEC
:102A2A000E2D7C08F3007B08F2007A08F100790881
:102A3A00F0000030F7007A30F6001230F50000306E
:102A4A00F4000A168A1163270A168A11710883127A
:102A5A000313A7007008A6000800F601F701522D1B
:102A6A0076087107F4007208F3000318F30AF61FD8
:102A7A003F2DF3037308F500740884008317751C4F
:102A8A00831300080A168A116D240A168A11013066
:102A9A00F6070318F70A0030F70776087107F400FB
:102AAA007208F3000318F30AF61F5C2DF303730888
:102ABA00F500740884008317751C83130008031D2E
:102ACA00672D682D352D0800F501F601700871048F
:102ADA000319702D712DA82DF701F70A7F2D0130EA
:102AEA000310F00DF10DFF3E031D752D0130F400AA
:102AFA007408F707F11F822D832D742D01300310FE
:102B0A00F50DF60DFF3E031D842D71087302031D9A
:102B1A00902D70087202031C932D942D9B2D700822
:102B2A00F2027108031CF303F30275140130031057
:102B3A00F10CF00CFF3E031D9C2D0130F702031D22
:102B4A00A72DA82D832D7608F1007508F00008003E
:102B5A00831603135A08F9005B08FA005C08FB00A5
:102B6A005D08FC0002300310F90DFA0DFB0DFC0D97
:102B7A00FF3E031DB82D02300310F90DFA0DFB0DAF
:102B8A00FC0DFF3E031DC12D7C08F3007B08F200FB
:102B9A007A08F1007908F0000030F7007A30F60080
:102BAA001230F5000030F4000A168A1163270A165B
:102BBA008A117008FF3E83160313920083120313CF
:102BCA00290883160313DD008312031328088316CA
:102BDA000313DC0083120313270883160313DB0095
:102BEA0083120313260883160313DA0008008316D8
:102BFA0003135A08F9005B08FA005C08FB005D0839
:102C0A00FC0002300310F90DFA0DFB0DFC0DFF3E1E
:102C1A00031D072E02300310F90DFA0DFB0DFC0DF2
:102C2A00FF3E031D102E7C08F3007B08F2007A0891
:102C3A00F1007908F0000030F7007A30F60012301F
:102C4A00F5000030F4000A168A1163270A168A1161
:102C5A007008FF3E83160313920083120313290898
:102C6A0083160313DD008312031328088316031344
:102C7A00DC0083120313270883160313DB00831275
:102C8A000313260883160313DA000800013083169B
:102C9A00031385008801003083120313A900003052
:102CAA00A8000330A700E830A6000A168A11AD254D
:102CBA000A168A11003083120313A9000030A800F3
:102CCA000330A700E830A6000A168A11FC250A1666
:102CDA008A118312031388100815881108160A121C
:102CEA008A1500200A168A11003083120313A900DC
:102CFA000030A8002530A7008030A6000A128A15E5
:102D0A0068220A168A110A128A1542230A168A1199
:102D1A000A128A1586240A168A1164308316031346
:102D2A00D700831603174A08831603135702B900FC
:102D3A00BA01031CBA030A128A1572200A168A11EA
:102D4A00831603174A08643E83160313B90000303A
:102D5A0003180130BA000A128A150F210A168A11BD
:102D6A000A168A1157240A168A110A168A11622427
:102D7A000A168A11063083160313D9001330D800B5
:102D8A00AD30D700D70BC72ED80BC72ED90BC72EFD
:102D9A00882E0A128A110028031083160313320D93
:102DAA00330DB400340883120313EF006F08031DB8
:102DBA00DF2EE02EEB2E003083160313B300003013
:102DCA00B2000030B1000030B000622F8316031346
:102DDA003008B4003108B5003208B6003308B7002D
:102DEA001F300310B70CB60CB50CB40CFF3E031D14
:102DFA00F62E3408B800380883120313EE0083163F
:102E0A000313B217FF30B005FF30B105FF30B2052A
:102E1A000030B305963083120313EF02EF1F162F0B
:102E2A00172F352F6F08803A973E03181D2F1E2F34
:102E3A001F2FE02E0130031083160313B30CB20CBC
:102E4A00B10CB00CFF3E031D202F0130B400340832
:102E5A0083120313EF07031D332F342F1F2F502F15
:102E6A0020306F02031C3A2F3B2F4B2FE02E0130EC
:102E7A0083160313B4000310B00DB10DB20DB30DD8
:102E8A00B40B402F013083120313EF026F08031DA6
:102E9A004F2F502F3C2F6E080319542F552F622F96
:102EAA0083160313B009B109B209B309B00A0319A9
:102EBA00B10A0319B20A0319B30A080083120313E9
:102ECA00A101F31F692F6A2F772FF009F109F2097F
:102EDA00F309F00A0319F10A0319F20A0319F30AAA
:102EEA00A101A10AF71F7A2F7B2F8A2FF409F5096E
:102EFA00F609F709F40A0319F50A0319F60A031978
:102F0A00F70A0130F8007808A1060030A500003061
:102F1A00A4000030A3000030A200730872047104F8
:102F2A0070040319992F9A2FE72FA001A00AAA2F3C
:102F3A000130F8000310F00DF10DF20DF30DF80B4E
:102F4A009F2F0130F8007808A007F31FAD2FAE2F8E
:102F5A009D2F0130F8000310A20DA30DA40DA50D9D
:102F6A00F80BB02F73087702031DC52F720876027B
:102F7A00031DC52F71087502031DC52F7008740241
:102F8A00031CC82FC92FD82F7008F4027108031C1C
:102F9A00710FF5027208031C720FF6027308031C04
:102FAA00730FF702221401300310F30CF20CF10C28
:102FBA00F00CFF3E031DD92F0130A002031DE62F9E
:102FCA00E72FAE2F21080319EB2FEC2FF72FA209B9
:102FDA00A309A409A509A20A0319A30A0319A40AA1
:102FEA000319A50A2508F3002408F2002308F100B2
:062FFA002208F0000800AF
:02400E00393F38
:00000001FF
