:04000000B3EF00F06A
:08000800046ED8CF05F0E0CF33
:1000100006F00001E9CF0CF0EACF07F0E1CF08F0DD
:10002000E2CF09F0D9CF0AF0DACF0BF0F3CF12F01C
:10003000F4CF13F0FACF14F0F5CF15F0F6CF16F099
:10004000F7CF17F000C00EF001C00FF002C010F0A3
:1000500003C011F09DA630EF00F09EB674EF00F0E3
:100060000EC000F00FC001F010C002F011C003F08C
:100070000CC0E9FF07C0EAFF078E08C0E1FF09C016
:10008000E2FF0AC0D9FF0BC0DAFF12C0F3FF13C0B2
:10009000F4FF14C0FAFF15C0F5FF16C0F6FF17C035
:1000A000F7FF045006C0E0FF05C0D8FF1000C69E51
:1000B0009E9621C0C9FF020EC6BE05D0C7B4FED7AA
:1000C000000EC5BC010E016E1200C69CC586C5B6E9
:1000D000FED700B0C59A00A0C58AC588C5B8FED7AE
:1000E000C9CF01F07EEF00F0C580C5B0FED7010E8C
:1000F0001A24206E216EDBDF006AE7D701C01CF0F6
:10010000C584C5B4FED79E9630EF00F0C580C5B05B
:10011000FED7196AF2BE198EF29E1EC021F0C7DF0B
:1001200019BEF28E196AF2BE198EF29E1DC021F020
:10013000BEDF19BEF28EC584C5B4FED7DBEF00F07A
:10014000EA6A1E0EE96EEF500DE0060E016E006ABF
:10015000002EFED7012EFBD77B0E006E002EFED7A1
:10016000EF2EF3D71200F86AD09E078E948A9488F7
:10017000310EC86E280EC66EC78EC79CAA86080EA2
:10018000AF6E020EB06EA60EAC6E900EAB6EA00EF1
:100190001A6EA10E1B6EB990C19CC19E000EB86E66
:1001A000C00EF2129D86938E81BE0CD0010E1D6E84
:1001B0001AC01EF0ABD7020E1D6EFA0E1E6EC0DF07
:1001C0001D2EFBD71C2C0BD093908A80040E1D6E25
:1001D000FA0E1E6EB5DF1D2EFBD793908A90E3D7E3
:0201E00003001A
:020000040030CA
:0E00000000C20E3E3C9D81000FC00FE00F407D
:00000001FF
;PIC18F4431
;CRC=482E  CREATED="07-Nov-21 14:19"
