:1000000008308A0000280000FF00030E8301A100D1
:100010000A08A0008A010408A2007708A300780853
:10002000A4007908A5007A08A60003170D08031399
:10003000A70003170F080313A80003170C080313E6
:10004000A90003170E080313AA00831383128C3030
:100050008400801D2D288C194E2822088400230836
:10006000F7002408F8002508F9002608FA002708F8
:1000700003178D000313280803178F0003132908A3
:1000800003178C0003132A0803178E00031320089C
:100090008A00210E8300FF0E7F0E09008A110A12CA
:1000A00051288316141C5B28140C031C542883123B
:1000B0001308B100831683128C118A110A122D289D
:1000C0004B34EF30EE33A031E13168103D10253371
:1000D000090089048904890400008E30F700831622
:1000E0002308F8002208F900FA01F808031D822805
:1000F0007908F800F9010830F702F808031D822892
:10010000F7018A280310F81B8928F90DF80DF70369
:100110008228F8138312080083162508AC002908EA
:10012000AC06AC1F982803110310A51B0314CB28A1
:100130002508AC002808AD002408AD020319A62844
:10014000AC1FCB280308013A8300CB282908AD0057
:100150002508AD020319B228AC1FCB280308013AC9
:100160008300CB282A08AD002608AD020319BE285B
:10017000AC1FCB280308013A8300CB282B08AD0025
:100180002708AD020319CA28AC1FCB280308013A7F
:100190008300CB28031083128A150A121429803099
:1001A000831CD5288316AD0683128316B201B301D2
:1001B0002908B1002D08B10628080319C329B00089
:1001C000F7002C080319CC29B00203196829031C75
:1001D00026292D08B600B6172E08B5002F08B40042
:1001E000B3010310B60CB50CB40CB30CB00BF02873
:1001F000B11FFD283214E029321030103216AB3016
:1002000084008313F5293212B11B1029301C1B29DD
:10021000B60CB50CB40CB30CF70A0319DB291B2977
:10022000B61B1E290310B30DB40DB50DB60DF703A3
:100230000319DB2910293217882932132908B10044
:10024000B11F2429B617D429B613D4292C08B0001D
:10025000F7002808B0022908B600B6172A08B5002A
:100260002B08B400B3010310B60CB50CB40CB30CDE
:10027000B00B3229B11F3F29B214E029B21030105F
:10028000B216AF3084008313F529B212B11B522984
:10029000301C5D29B60CB50CB40CB30CF70A03196D
:1002A000DB295D29B61B60290310B30DB40DB50D14
:1002B000B60DF7030319DB295229B2178829B213A7
:1002C0002D08B100B11F6629B617D429B613D42959
:1002D0002D08B600B6172E08B5002F08B400B11FC0
:1002E0007529B6133215E0293211B3013010AB3045
:1002F00084008313F529B11B9E292908B100301C05
:100300008829B60CB50CB40CB30CF70A0319DB2919
:10031000B31F9929B40A031D9929B50A031D992908
:10032000B60A031D9929B60CB50CB40CF70A0319CB
:10033000DB29321B1D29B21B5F29BD298030B6067F
:10034000B61FA629E0292D08B100B3292908B1005C
:10035000B608031DB329B508031DB329B408031D4E
:10036000B329F701D429B61BBD290310B30DB40D71
:10037000B50DB60DF70BB329DB29B11FC129B6178F
:10038000D429B613D4292C08F7002D08B6002E085E
:10039000B5002F08B400D4292808F7002908B600B2
:1003A0002A08B5002B08B4003608F8003508F90013
:1003B0003408FA00132AF701F801F901FA01132AA7
:1003C000B301B409B509B609B309B30A031DEE298F
:1003D000B40A031DEE29B50A0319B60A3218FC281F
:1003E000B2183E2932197429A3290008B407031C46
:1003F000FF29B50A031DFF29B60A03193014840327
:100400000008B507031C072AB60A03193014840331
:100410000008801F803AB60703183014321A0329E7
:10042000B21A45297B298312080083163108031963
:10043000862AB90035080319862AB9070318272A1E
:100440007F30B902031C862A0319862A2B2A8130A1
:10045000B9070318862A3908F700F801F901FA01EB
:100460003208BD00BD173308BC003408BB0018308B
:10047000B900BA013B1C542A3808FA07031C462A63
:10048000F90A031D462AF80A0319BA173708F907AB
:10049000031C4D2AF80A0319BA173608B300B3171C
:1004A0003308F8070318BA17BA0DF80CF90CFA0C50
:1004B000BD0CBC0CBB0C0310B90B392A0130F7077B
:1004C0000318862AF81B6B2ABD0DFA0DF90DF80DDD
:1004D000F7030319862ABD1F7C2AFA0A031D7C2A0A
:1004E000F90A031D7C2AF80A031D7C2AF80CF90C72
:1004F000FA0CF70A0319862A3208BA003608BA0637
:10050000BA1F842AF8178A2AF8138A2AF701F801F1
:10051000F901FA0183120800831624080319522BEB
:10052000B00028080319522BB002031C9C2A7F300C
:10053000B0070318522BA22A8130B002031C522BA1
:100540000319522B3008F700F801F901FA01AF0145
:100550002508AE00AE172608AD002708AC001930FC
:10056000B0002B08AC020318C52A0130AD020318F5
:10057000C52AAE020318C52AAF020318C52AAF0A5E
:10058000AE0AAD0A2B08AC07F72A2A08AD020318F9
:10059000E02A0130AE020318E02AAF020318E02A75
:1005A000AF0AAE0A2A08AD072B08AC07031CF72ACE
:1005B000AD0A031DF72AAE0A031DF72AAF0AF72A70
:1005C00029088038AE020318F62A0130AF0203185A
:1005D000F62AAF0A29088038AE072A08AD07031C9F
:1005E000D42AAE0A031DD42AAF0AD42A7A14B00B37
:1005F000FA2A052B0310AC0DAD0DAE0DAF0D031097
:10060000FA0DF90DF80DB10DB12A311C0D2B0310A7
:10061000F80CF90CFA0CB10C102BF7030319522B40
:10062000B11B392B0310AC0DAD0DAE0DAF0D2B086A
:10063000AC020318252B0130AD020318252BAE02A6
:100640000318252BAF02031C482B2A08AD02031800
:10065000302B0130AE020318302BAF02031C482BA5
:1006600029088038AE020318392B0130AF02031C71
:10067000482BFA0A031D482BF90A031D482BF80AD8
:10068000031D482BF70A0319522BF80CF90CFA0C2E
:100690002508B0002908B006B01F502BF817562BBC
:1006A000F813562BF701F801F901FA0183128A15A4
:1006B0000A12422B83162B08F8012A020318632B17
:1006C0002A08F7006F2BF7010830AC00AA0DF70DD0
:1006D0002B0877020318F700F80DAC0B662B83127A
:1006E000080020308316251E3030A6002408F700AD
:1006F000A41F822BF709F70A7708A4002D30A60063
:10070000A51725142408AA006430AB0083125A23CD
:1007100077088316A40030307807A7002408AA00C1
:100720000A30AB0083125A23303077078316A900B2
:1007300030307807A8002608F70030302702031968
:10074000A52BA514A51B2515B92B2608A70020301D
:10075000A600303028020319B12B2514A51BA514BF
:10076000B92B031D2514031DB92B2708A800203021
:10077000A7002519C02BA518C62B2518CC2BD22BCA
:10078000260883120C1EC22B990083162708831299
:100790000C1EC82B99008316280883120C1ECE2B22
:1007A00099008316290883120C1ED42B99008A15F0
:1007B0000A12AB2B8318DF2BB93084008313F701A7
:1007C000F801F901FA018316B901BA01BB01BC01B4
:1007D000380837043604350403191E2C2030BD00B8
:1007E0000310B10DB20DB30DB40DB90DBA0DBB0DA3
:1007F000BC0D38083C02031D072C37083B02031DC3
:10080000072C36083A02031D072C35083902031C51
:10081000182C3508B9023608031C360FBA023708FF
:10082000031C370FBB023808031C380FBC0203142B
:10083000F70DF80DF90DFA0DBD0BF02B39088000FE
:10084000840A3A088000840A3B088000840A3C0835
:1008500080008312080004088316A9002808AB0052
:1008600003194D2C2708B4002608B3002508B20050
:100870002408B100B801B7012030B6008230B500BD
:10088000831215227A088316A7007908A600780833
:10089000A5007708A400AB0B322C2708B40026086B
:1008A000B3002508B2002408B1003108B63CB100FD
:1008B000FA013208B500B2170310B20CB30CB40C35
:1008C000FA0CF90CF80CF70CB10B5C2CB51F732C5F
:1008D000F709F809F909FA09F70A0319F80A0319D7
:1008E000F90A0319FA0A7A08A7007908A600780815
:1008F000A5007708A400A71F8A2CA903A916A4099C
:10090000A509A609A709A40A0319A50A0319A60A95
:100910000319A70A3B30B0009A30AF00CA30AE00CE
:10092000AD010A30AB0028080319A90A8314A430CA
:10093000840083132708B4002608B3002508B200FA
:100940002408B1003008B8002F08B7002E08B60000
:100950002D08B5008312DA237808F708031DC72C89
:100960008316280A2B02031DB72C8312C72C2908D3
:100970000319CA2C0F392B020319C02C0318062D9A
:10098000A91B062D291BCA2C2030FF2C83122030D6
:100990008316A905A91EDB2CA9122808031DA9038B
:1009A0007708A9002D3083120C1ED42C99008316D1
:1009B0002908F700A90128082B02031DEC2C770851
:1009C000A9002E3083120C1EE32C990083162908EF
:1009D000F7002030A90500303030A91EFF2CA912E5
:1009E0002808031DA9037708A9002D3083120C1EC7
:1009F000F72C990083162908F700A9013030F70772
:100A0000770883120C1E022D99008316831030087C
:100A1000B4002F08B3002E08B2002D08B100B801B1
:100A2000B701B6010A30B5008312DA237A088316BB
:100A3000B0007908AF007808AE007708AD00AB0BC6
:100A4000962C831208000B088316A10083128B13C7
:100A5000831603178C170C14000000000313A11F4A
:100A6000342D83128B17831603186E2D83120317F0
:100A70000C087F3983160313A100831203170D0896
:100A800083160313A200831203170F0883160313A0
:100A9000A300210883120C1E4B2D990083162208F7
:100AA000831203178D008316031323088312031781
:100AB0008F0003130B088316A40083128B13831675
:100AC00003178C170C14000000000313A41F6B2DD8
:100AD00083128B178316A00B6E2D9D2D8312031787
:100AE0000C0D0E0D7F3983160313A100831203171B
:100AF0000D0883160313A200831203170F08831631
:100B00000313A300210883120C1E842D9900831661
:100B10002208831203178D00831603132308831200
:100B200003178F008D0A03198F0A0310831603130E
:100B3000A00B9B2D9D2D8312232D83128A150A1243
:100B4000DC2B0B088316A00083128B13831603176C
:100B50008C170C14000000000313A01FB22D831289
:100B60008B178316831203170C087F390319152E70
:100B700083160313A000831203170D0883160313B3
:100B8000A100831203170F0883160313A200200885
:100B900083120C1EC92D9900831621088312031796
:100BA0008D00831603132208831203178F0003138B
:100BB0000B088316A30083128B13831603178C175D
:100BC0000C14000000000313A31FE92D83128B17E0
:100BD0008316831203170C0D0E0D7F390319152E82
:100BE00083160313A000831203170D088316031343
:100BF000A100831203170F0883160313A200200815
:100C000083120C1E012E99008316210883120317EC
:100C10008D00831603132208831203178F008D0A99
:100C200003198F0A0313A12D031703138A150A1240
:100C3000002CA13084008313000803192C2E0630E9
:100C4000F800F701F70B222EF80B212E7B30F7006E
:0E0C5000F70B282E800B1F2E8A150A12092C76
:1010000003081F398300813083169900A6309800A9
:10101000903083129800B101FF30B200B401B301E7
:1010200083161F149F141F159F1107309C008313F4
:101030008312AB01AC0183168C15C03083128B0474
:101040009412B212320883168700831232163208C5
:10105000831687008312B215320883168700253065
:10106000831294000030831694001F109F101F11EC
:101070009F111F1383121F179F1783169F17831229
:101080001F14B501B601B701B801B901BA01BB011E
:10109000BC01BD01BE01BF01C001C101C201C3014C
:1010A000C401C501C601C701C801C901CA01CB01FC
:1010B000CC01CD01CE01CF01D001E001DF01DE0185
:1010C000DD01F1017108063C031CDF287108033CB7
:1010D000031C9F28710DF700F70DF70DF830F70589
:1010E0001F08C73977049F001030F700F70B7628E8
:1010F0000000710DF700F70DFC30F7057708353E5D
:10110000840083131F151F1983281E08F9008316F6
:101110001E08F8007908FA001E08A2007908A3004A
:101120008A1183126D208A1577088000840A780856
:101130008000840A79088000840A7A088000710897
:10114000033C0318DD28013071078316A000200D31
:10115000F700F70DF70DF830F70583121F08C739B0
:1011600077049F001030F700F70BB4280000710DD2
:10117000F700F70DFC30F7057708353E8400831340
:101180001F151F19C1281E08F90083161E08F80034
:101190007908FA001E08A2007908A3008A118312B8
:1011A0006D208A1577088000840A78088000840AF8
:1011B00079088000840A7A088000F10A6228F10127
:1011C0007108063C031C3D29710DF700F70DFC303A
:1011D000F7057708353E8400831300088316A000C6
:1011E000840A0008A100840A0008A200840A0008FA
:1011F000A300831258088316A7008312570883168A
:10120000A600831256088316A5008312550883167C
:10121000A4002308AB002208AA002108A900200886
:10122000A8008A1183128C288A15031C3B29710D92
:10123000F700F70DFC30F7057708353E840083137F
:101240000008D500840A0008D600840A0008D700E8
:10125000840A0008D8008316A3017108A2008A112D
:1012600083126D208A157A08D4007908D300780893
:10127000D2007708D100F10AE028831454088316BD
:10128000AB00831253088316AA00831252088316F8
:10129000A900831251088316A800AF01AE01AD0169
:1012A0007F30AC008A118312CF208A157A0883160A
:1012B000A3007908A2007808A1007708A0002308FD
:1012C000B4002208B3002108B2002008B100B80120
:1012D000B701B6018130B5008A11831215228A1533
:1012E00035307707840083137A1883170008D900F4
:1012F000840A0008DA00840A0008DB00840A000877
:10130000DC00831054088316AB0083125308831645
:10131000AA00831252088316A9008312510883166B
:10132000A800AF01AE01AD017F30AC008A1183127D
:10133000CF208A157A088316A3007908A2007808BE
:10134000A1007708A0002308B4002208B3002108F8
:10135000B2002008B100B801B701B6018130B50074
:101360008A11831215228A1535307707840083137A
:101370007A1883170008DD00840A0008DE00840A5A
:101380000008DF00840A0008E00083105C08831670
:10139000AB0083125B088316AA0083125A088316D7
:1013A000A900831259088316A800831260088316C7
:1013B000AF0083125F088316AE0083125E088316A7
:1013C000AD0083125D088316AC008A118312CF2012
:1013D0008A157A088316A3007908A2007808A1006C
:1013E0007708A000B401B301B2018030B1008312CC
:1013F00058088316B800831257088316B700831263
:1014000056088316B600831255088316B5008A1154
:10141000831215228A15831483162308AB00220831
:10142000AA002108A9002008A8007A08AF007908BE
:10143000AE007808AD007708AC008A118312CF2087
:101440008A157A088316A3007908A2007808A100FB
:101450007708A0002308B4002208B3002108B200D6
:101460002008B100B801B701B6017E30B5008A117D
:10147000831215228A157A08E4007908E3007808B7
:10148000E2007708E100831458088316AB0083124A
:1014900057088316AA00831256088316A9008312E0
:1014A00055088316A80083125C088316AF008312C8
:1014B0005B088316AE0083125A088316AD008312B0
:1014C00059088316AC008A118312CF208A157A0836
:1014D0008316A3007908A2007808A1007708A0006D
:1014E000B401B301B2018030B100831264088316E5
:1014F000B800831263088316B7008312620883164C
:10150000B600831261088316B5008A118312152272
:101510008A157A088316A7007908A6007808A5001E
:101520007708A4008314831254088316AB00831237
:1015300053088316AA00831252088316A900831247
:1015400051088316A800AF01AE01AD017F30AC0099
:101550008A118312CF208A1583162708B400260823
:10156000B3002508B2002408B1007A08B800790851
:10157000B7007808B6007708B5008A1183121522E3
:101580008A15831483162308AB002208AA002108B9
:10159000A9002008A8007A08AF007908AE007808F2
:1015A000AD007708AC008A118312CF208A157A0823
:1015B0008316A3007908A2007808A1007708A0008C
:1015C00083142308AB002208AA002108A9002008E0
:1015D000A800831264088316AF0083126308831681
:1015E000AE00831262088316AD0083126108831671
:1015F000AC008A118312CF208A157A08E800790896
:10160000E7007808E6007708E50065088316A00083
:1016100083126608803A8316A10083126708831636
:10162000A200831268088316A300B401B301B201BB
:101630008030B100831264088316B80083126308F7
:101640008316B700831262088316B60083126108FE
:101650008316B5008A11831215228A158316230872
:10166000A7002208A6002108A5002008A4007A08E7
:10167000AB007908AA007808A9007708A8008A11A9
:1016800083128C2A8A157A08EC007908EB00780816
:10169000EA007708E90083146C088316AB00831214
:1016A0006B088316AA0083126A088316A9008312A6
:1016B00069088316A800AF01AE014030AD0080304C
:1016C000AC008A118312CF208A158316B401B301AE
:1016D0000830B2008330B1007A08B8007908B7004A
:1016E0007808B6007708B5008A11831215228A158A
:1016F0007A08F0007908EF007808EE007708ED002E
:10170000F1017108063C031CCF2B710DF700F70D9A
:10171000FC30F7057708353E8400831300088316F4
:10172000A000840A0008A100840A0008A200840A1C
:101730000008A300433083120C1E9C2B99004230FA
:101740000C1EA02B990071088316A4001830A50068
:101750008A118312712B8A1520300C1EAD2B990033
:101760003D300C1EB12B990020300C1EB52B99007A
:101770008930840083162308A7002208A6002108C8
:10178000A5002008A4000230A8008A1183122B248F
:101790008A1509300C1ECA2B9900F10A812B603082
:1017A00003178D0000308F0003100E3083160313D3
:1017B000A0008A118312232D8A15893084007008B5
:1017C0008316A70083126F088316A60083126E0883
:1017D0008316A50083126D088316A4000230A800AA
:1017E0008A1183122B248A1509300C1EF52B9900BF
:1017F000693003178D0000308F008A110313A12D6B
:101800008A1504308316A000FA30A1008A118312D1
:10181000192E8A158316A00B042C8312412863000D
:02400E00723FFF
:00000001FF
;PIC16F877A
;CRC=F173  CREATED="20-Nov-21 16:34"
