:1000000000308A0080280000FF00030E8301A10059
:100010000A08A0008A010408A2007708A300780853
:10002000A4007908A5007A08A600831383128C30F7
:100030008400801D1D288C192E2822088400230886
:10004000F7002408F8002508F9002608FA0020081F
:100050008A00210E8300FF0E7F0E09008A110A120A
:1000600031288316941A3C288312A9018316141D83
:100070003C288312A917831683122908A90AAC0009
:100080002C087F3C031C552814138316141C462887
:10009000831213081416AE00AC08031D51282E0855
:1000A000AD002C0B55282E08A8002C08803C031D01
:1000B00066280130AF002F08930014168C118316A8
:1000C00014186028F801111FF80A83128C118A1184
:1000D0000A121D282B3084008313000803197D2881
:1000E0000630F800F701F70B7328F80B72287B3005
:1000F000F700F70B7928800B70288A110A12B828AC
:1001000003081F398300FF30A700A71527088316AF
:10011000870083122716270883168700A0309300D4
:100120003630831294008316111491178130990090
:10013000A63098009030831298000330A9008316EF
:100140001F149F141F159F1107309C008313C0308C
:1001500083128B0483168C158312280BBE288316FA
:100160000610831206140230AA00FA30AB006A2887
:10017000AA0BB5288316061083120610AD2863005B
:02400E00723FFF
:00000001FF
;PIC16F877A
;CRC=2756  CREATED="07-Nov-21 14:17"
