:1000000006308A00442E0000E52F653776103D103B
:100010002536F5040000432131103D1025367500CA
:10002000432132103D1025367500432133103D1019
:1000300025367500432134103D10253675004321C7
:1000400035103D1025367500432136103D102536FC
:100050007500432137103D10253675004B34EF30C5
:10006000EE33A031E13168103D1025367500443083
:1000700084008313000803194A280630F800F701AA
:10008000F70B4028F80B3F287B30F700F70B46288A
:10009000800B3D2808005708013C03185C28FF3AF4
:1000A000031D562856088A3C03185C288A30F8003D
:1000B0000230F9006D286D28D708031D69285608FD
:1000C000313C031C69283230F8000030F9006D28FB
:1000D0006D285608F8005708F90008001030DA00BB
:1000E000F701FA01D70CD60C031C7C285808F70737
:1000F0000318FA0A5908FA07FA0CF70CF90CF80C6D
:10010000DA0B722808000B08D5008B13831603172F
:100110008C170C140000000083120313D51B8B17DF
:100120000318BB2803170C087F390313D5000317E6
:100130000D080313D60003170F080313D700550843
:100140000C1EA0289900560803178D0003135708AA
:1001500003178F0003130B08D8008B1383160317A4
:100160008C170C140000000083120313D81B8B178C
:10017000D40BBB28DB2803170C0D0E0D7F3903139E
:10018000D50003170D080313D60003170F08031338
:10019000D70055080C1ECA289900560803178D0071
:1001A0000313570803178F008D0A03198F0A0310D2
:1001B0000313D40B83280800DC010408DB005C1067
:1001C000831B5C14550EF038D700D707E23ED800E9
:1001D000323EDA0055080F39D807D807DA07E93E6A
:1001E000D900D907D907540E0F39D907DA07D90D25
:1001F000DA0DDA09DA0D54080F39DA07D70D0730AE
:10020000D6000A30DA07D903031C0229D907D8031C
:10021000031C0629D807D703031C0A29D707D603CE
:10022000031C0E2956308400831307305B055B13D3
:1002300084075A30040203195B170008F700031DF6
:1002400029295B1B29295B1A3129DB19292920302F
:100250002C29DB155B123030F70777080C1E2E298E
:100260009900840A5B1F192908000030F8001F0854
:10027000C73978049F001030F700F70B3D290000C4
:100280001F151F1941291E08F90083161E08F800C2
:1002900079088312D5007808D4005508D70078086B
:1002A000D6004B207908C5007808C4000830F80053
:1002B0001F08C73978049F001030F700F70B5E293C
:1002C00000001F151F1962291E08F90083161E0859
:1002D000F80079088312D5007808D4005508D700B3
:1002E0007808D6004B207908C7007808C60010307F
:1002F000F8001F08C73978049F001030F700F70B8B
:100300007F2900001F151F1983291E08F900831675
:100310001E08F80079088312D5007808D400550823
:10032000D7007808D6004B207908C9007808C800A3
:100330001830F8001F08C73978049F001030F70004
:10034000F70BA02900001F151F19A4291E08F9008A
:1003500083161E08F80079088312D5007808D400A7
:100360005508D7007808D6004B207908CB007808CC
:10037000CA002030F8001F08C73978049F001030E9
:10038000F700F70BC12900001F151F19C5291E080A
:10039000F90083161E08F80079088312D500780842
:1003A000D4005508D7007808D6004B207908CD0036
:1003B0007808CC002830F8001F08C73978049F005F
:1003C0001030F700F70BE22900001F151F19E6296E
:1003D0001E08F90083161E08F80079088312D5005C
:1003E0007808D4005508D7007808D6004B20790843
:1003F000CF007808CE003030F8001F08C7397804E5
:100400009F001030F700F70B032A00001F151F197B
:10041000072A1E08F90083161E08F80079088312BF
:10042000D5007808D4005508D7007808D6004B20AE
:100430007908D1007808D000FF30D700FD30D60011
:100440004508D9004408D8006E207908D5007808FE
:10045000D400FF30D700FE30D6004708D900460848
:10046000D8006E207908FA007808D4077A080318B3
:100470007A0FD507FF30D700D6004908D9004808C1
:10048000D8006E207908FA007808D4077A08031893
:100490007A0FD5074C08D4074D0803184D0FD50720
:1004A00003104E0DF9004F0DFA007908D4077A08B1
:1004B00003187A0FD507D7010330D6005108D900A9
:1004C0005008D8006E207908FA0078085407F80020
:1004D00055080318550FFA077808D4007A08D50094
:1004E000D7011130D6005508D9005408D8006E2025
:1004F0007908D5007808D40046084407D600450896
:10050000D70047080318470FD7074808D6074908F8
:100510000318490FD7074A08D6074B0803184B0F93
:10052000D7074C08D6074D0803184D0FD7074E08BC
:10053000D6074F0803184F0FD70750085607F80083
:100540005708FA0051080318510FFA077808D60027
:100550007A08D7005508D9005408D8005708DB009E
:100560005608DA00F801F901F701FA015B08031DEA
:10057000BC2A5A080319D62A1030DC000310D80D03
:10058000D90DF70DFA0D5B087A02031DC92A5A0826
:100590007702031CD22A5A08F702031CFA035B08ED
:1005A000FA020314F80DF90DDC0BBE2A7908D3000A
:1005B0007808D200C3080319F32A043003178D000A
:1005C00000308F00031008300313D4008320103054
:1005D00084005308D5005208D400DC2009300C1EDA
:1005E000EF2A99009B2B0B3003178D0000308F00F2
:1005F000031006300313D400832010308400450814
:10060000D5004408D400DC2009300C1E052B9900CD
:10061000103003178D0000308F00031006300313D5
:10062000D4008320103084004708D5004608D40049
:10063000DC2009300C1E1A2B9900153003178D0091
:1006400000308F00031006300313D40083201030D5
:1006500084004908D5004808D400DC2009300C1E6D
:100660002F2B99001A3003178D0000308F000310D4
:1006700006300313D4008320103084004B08D500CB
:100680004A08D400DC2009300C1E442B99001F308E
:1006900003178D0000308F00031006300313D400C1
:1006A0008320103084004D08D5004C08D400DC2095
:1006B00009300C1E592B9900243003178D0000308F
:1006C0008F00031006300313D40083201030840001
:1006D0004F08D5004E08D400DC2009300C1E6E2BCC
:1006E0009900293003178D0000308F000310063069
:1006F0000313D4008320103084005108D500500823
:10070000D400DC2009300C1E832B99002E300317F7
:100710008D0000308F0003100E300313D4008320AF
:10072000103084005308D5005208D400DC20093072
:100730000C1E982B99005208F8005308F900080085
:100740008E30F7004908F8004808F900FA01F80867
:10075000031DB42B7908F800F9010830F702F808F6
:10076000031DB42BF701BC2B0310F81BBB2BF90D99
:10077000F80DF703B42BF813080080308318CD066A
:10078000D201D3014908D1004D08D1064808031908
:10079000AD2CD000F7004C080319B62CD002031979
:1007A000522C031C102C4D08D600D6174E08D5002D
:1007B0004F08D400D3010310D60CD50CD40CD30CA5
:1007C000D00BDA2BD11FE72B5214CA2C5210501029
:1007D00052164B3084008313DF2C5212D11BFA2B9C
:1007E000501C052CD60CD50CD40CD30CF70A0319CD
:1007F000C52C052CD61B082C0310D30DD40DD50DFC
:10080000D60DF7030319C52CFA2B5217722C52136D
:100810004908D100D11F0E2CD617BE2CD613BE2CE2
:100820004C08D000F7004808D0024908D600D61777
:100830004A08D5004B08D400D3010310D60CD50CC0
:10084000D40CD30CD00B1C2CD11F292CD214CA2CA5
:10085000D2105010D2164F3084008313DF2CD212E6
:10086000D11B3C2C501C472CD60CD50CD40CD30CD3
:10087000F70A0319C52C472CD61B4A2C0310D30D9D
:10088000D40DD50DD60DF7030319C52C3C2CD2176A
:10089000722CD2134D08D100D11F502CD617BE2C6C
:1008A000D613BE2C4D08D600D6174E08D5004F08DB
:1008B000D400D11F5F2CD6135215CA2C5211D3016C
:1008C00050104B3084008313DF2CD11B882C490837
:1008D000D100501C722CD60CD50CD40CD30CF70ABA
:1008E0000319C52CD31F832CD40A031D832CD50ACE
:1008F000031D832CD60A031D832CD60CD50CD40CD7
:10090000F70A0319C52C521B072CD21B492CA72C04
:100910008030D606D61F902CCA2C4D08D1009D2CB5
:100920004908D100D608031D9D2CD508031D9D2C18
:10093000D408031D9D2CF701BE2CD61BA72C031039
:10094000D30DD40DD50DD60DF70B9D2CC52CD11F75
:10095000AB2CD617BE2CD613BE2C4C08F7004D0876
:10096000D6004E08D5004F08D400BE2C4808F7002A
:100970004908D6004A08D5004B08D4005608F800AC
:100980005508F9005408FA00FD2CF701F801F901A7
:10099000FA01FD2CD301D409D509D609D309D30A0C
:1009A000031DD82CD40A031DD82CD50A0319D60A46
:1009B0005218E62BD218282C52195E2C8D2C0008C8
:1009C000D407031CE92CD50A031DE92CD60A031908
:1009D000501484030008D507031CF12CD60A031910
:1009E000501484030008801F803AD607031850145F
:1009F000521AED2BD21A2F2C652C08008E30F700DE
:100A00004408F7024508F9004608F800F917F70806
:100A10000319152D0310F908031D112DF8080319EA
:100A2000152DF90CF80CF70B0A2DC51F1C2DF80914
:100A3000F909F80A0319F90A0800480803198D2D65
:100A4000D0004C0803198D2DD00703182E2D7F30B0
:100A5000D002031C8D2D03198D2D322D8130D0072E
:100A600003188D2D5008F700F801F901FA01490823
:100A7000D400D4174A08D3004B08D2001830D00055
:100A8000D101521C5B2D4F08FA07031C4D2DF90AAA
:100A9000031D4D2DF80A0319D1174E08F907031C41
:100AA000542DF80A0319D1174D08CA00CA174A086D
:100AB000F8070318D117D10DF80CF90CFA0CD40C67
:100AC000D30CD20C0310D00B402D0130F7070318C4
:100AD0008D2DF81B722DD40DFA0DF90DF80DF703BD
:100AE00003198D2DD41F832DFA0A031D832DF90AB6
:100AF000031D832DF80A031D832DF80CF90CFA0C45
:100B0000F70A03198D2D4908D1004D08D106D11FD0
:100B10008B2DF817912DF813912DF701F801F9019C
:100B2000FA0108004308B0004308B107C9014308AF
:100B3000C800A02383147A08CB007908CA0078087B
:100B4000C9007708C8002D08CF002C08CE002B085C
:100B5000CD002A08CC00BD237A08C7007908C6005A
:100B60007808C5007708C400FE247808B200C901DF
:100B70003008C800A0233708CB003608CA00350863
:100B8000C9003408C8007A08CF007908CE00780878
:100B9000CD007708CC001D257A08C7007908C6006B
:100BA0007808C5007708C400C9013108C800A0232F
:100BB0003B08CB003A08CA003908C9003808C80009
:100BC0007A08CF007908CE007808CD007708CC00ED
:100BD0001D2583104708CB004608CA004508C900F8
:100BE0004408C8007A08CF007908CE007808CD0004
:100BF0007708CC00BD237A08C7007908C6007808BA
:100C0000C5007708C400C9013208C800A0233F0806
:100C1000CB003E08CA003D08C9003C08C8007A085D
:100C2000CF007908CE007808CD007708CC001D25CC
:100C300083104708CB004608CA004508C90044088D
:100C4000C8007A08CF007908CE007808CD00770870
:100C5000CC00BD237A08C7007908C6007808C50013
:100C60007708C400FE247808B300C9014308C8000F
:100C7000A0237A08AD007908AC007808AB007708AB
:100C8000AA008A110A120A2F03081F398300813033
:100C900083169900A6309800903083129800A9011D
:100CA000A801A701A601AD01AC01AB01AA01AF01EA
:100CB0009630AE00B001B101B201B301B701B60187
:100CC000B5018230B400BB01BA01B901B801BF015E
:100CD000BE014030BD008130BC00FF30C000831633
:100CE0001F149F141F159F1107309C00831383123C
:100CF000A001A10183161F109F101F119F111F1328
:100D000083121F179F1783169F1783121F144011FA
:100D1000400883168700831207110C309700C0101B
:100D2000400883168700831287100C309D00003026
:100D3000F80004389200F9308316920002308312D2
:100D4000C300FA30C4003720C30BA12E831608124B
:100D5000831208160130C30035217908C9007808CC
:100D6000C800A0237A08A9007908A8007808A7007D
:100D70007708A6000430C300FA30C4003720C30B44
:100D8000BC2E8316081283120812831608108312D1
:100D90000814831688108312881083160811831292
:100DA000081583168811831288112F08F9002E0860
:100DB000F800F90CF80CF90CF80CF90C780895000F
:100DC000F90C790C3039F7001708CF397704970000
:100DD0002F08F9002E08F800F90CF80CF90CF80CA3
:100DE000F90C78089B00F90C790C3039F7001D08D4
:100DF000CF3977049D008316881283128816C201AA
:100E0000C101C30135217908C2007808C100410839
:100E1000C300922D33082E02C3002F08C4000030F7
:100E2000031C0130C402C40CC30CC40CC30CC40C9E
:100E300043089500C40C440C3039F7001708CF392B
:100E40007704970033082E07C3002F08C400031847
:100E5000C40AC40CC30CC40CC30CC40C43089B00D0
:100E6000C40C440C3039F7001D08CF3977049D00BD
:040E7000FB2E6300F2
:02400E00723FFF
:00000001FF
;PIC16F877A
;CRC=999E  CREATED="06-Dec-21 16:57"
